:020000040800F2
:100000000004002047010008750100087B0100087A
:100010007F0100088301000887010008000000003C
:100020000000000000000000000000008B0100083C
:100030008D010008000000008F01000891010008F8
:1000400067010008670100086701000867010008F0
:1000500067010008670100086701000867010008E0
:1000600067010008670100086701000867010008D0
:1000700067010008670100086701000867010008C0
:1000800067010008670100086701000867010008B0
:1000900067010008670100086701000867010008A0
:1000A0006701000867010008670100086701000890
:1000B0006701000867010008670100086701000880
:1000C0006701000867010008670100086701000870
:1000D0006701000877010008670100086701000850
:1000E0006701000867010008670100086701000850
:1000F0006701000867010008670100086701000840
:10010000670100086701000867010008670100082F
:10011000670100086701000867010008670100081F
:10012000670100086701000867010008670100080F
:10013000DFF80CD001F0F6FC0048004793010008FE
:1001400028020020704708488047084981F3088842
:1001500007480047FEE7FEE7FEE7FEE7FEE7FEE7AB
:10016000FEE7FEE7FEE7FEE7450100082802002063
:1001700031010008704700BFFEE700BFFEE700BF87
:10018000FEE700BFFEE700BFFEE77047704770471D
:10019000704701F09DFC482000F010FA01E001F0EA
:1001A00047F8FCE708B50121082001F0BBFB4FF43C
:1001B0007E40ADF8000003208DF8020010208DF87D
:1001C00003006946F74801F011F908BD0021082134
:1001D00018E000F080022AB14FF40042F14B1033D6
:1001E0001A6004E04FF40042EE4B14331A604FF4EF
:1001F0000052EC4B14331A601B1F1A604206100E9B
:100200004A1ED1B20029E4DC704710B504464FF411
:100210000060E44914310860401008602046FFF790
:10022000D5FF4FF40060DF491031086010BD10B5F4
:1002300004464FF40060DB49143108604010091F88
:1002400008602046FFF7C2FF4FF40060D549103127
:10025000086010BD10B504464FF40060D149143158
:1002600008604010091F08602012FFF7AFFFE0B2DE
:10027000FFF7ACFF4FF40060CA491031086010BDB1
:1002800030B505460C462846FFF7BFFF2046FFF76E
:10029000CEFF30BD10B54FF48050C2491431086014
:1002A000642000F0A7F94FF48050BE491031086077
:1002B000322000F09FF910BD10B5FFF773FFFFF774
:1002C000E9FF1120FFF7A1FF782000F093F9B1209A
:1002D000FFF79BFF0120FFF7AAFF2C20FFF7A7FFE6
:1002E0002D20FFF7A4FFB220FFF78FFF0120FFF7BB
:1002F0009EFF2C20FFF79BFF2D20FFF798FFB320D8
:10030000FFF783FF0120FFF792FF2C20FFF78FFFFD
:100310002D20FFF78CFF0120FFF789FF2C20FFF72E
:1003200086FF2D20FFF783FFB420FFF76EFF072025
:10033000FFF77DFFC020FFF768FFA220FFF777FFE0
:100340000220FFF774FF8420FFF771FFC120FFF741
:100350005CFFC520FFF76BFFC220FFF756FF0A20A6
:10036000FFF765FF0020FFF762FFC320FFF74DFF97
:100370008A20FFF75CFF2A20FFF759FFC420FFF710
:1003800044FF8A20FFF753FFEE20FFF750FFC52000
:10039000FFF73BFF0E20FFF74AFF3620FFF735FF40
:1003A000C820FFF744FFE020FFF72FFF0F20FFF7E3
:1003B0003EFF1A20FFF73BFF0F20FFF738FF182002
:1003C000FFF735FF2F20FFF732FF2820FFF72FFF21
:1003D0002020FFF72CFF2220FFF729FF1F20FFF727
:1003E00026FF1B20FFF723FF2320FFF720FF3720E6
:1003F000FFF71DFF0020FFF71AFF0720FFF717FF89
:100400000220FFF714FF1020FFF711FFE120FFF794
:10041000FCFE0F20FFF70BFF1B20FFF708FF0F204C
:10042000FFF705FF1720FFF702FF3320FFF7FFFE5E
:100430002C20FFF7FCFE2920FFF7F9FE2E20FFF706
:10044000F6FE3020FFF7F3FE3020FFF7F0FE3920F4
:10045000FFF7EDFE3F20FFF7EAFE0020FFF7E7FE83
:100460000720FFF7E4FE0320FFF7E1FE1020FFF76F
:10047000DEFE2A20FFF7C9FE0020FFF7D8FE00208D
:10048000FFF7D5FE0020FFF7D2FE7F20FFF7CFFE5B
:100490002B20FFF7BAFE0020FFF7C9FE0020FFF770
:1004A000C6FE0020FFF7C3FE9F20FFF7C0FEF0202E
:1004B000FFF7ABFE0120FFF7BAFEF620FFF7A5FE1F
:1004C0000020FFF7B4FE3A20FFF79FFE0520FFF75C
:1004D000AEFE2920FFF799FE10BDF0B504460D468B
:1004E00016461F462A20FFF790FE0020FFF79FFECA
:1004F000A11CC8B2FFF79BFE0020FFF798FEB11CBD
:10050000C8B2FFF794FE2B20FFF77FFE0020FFF715
:100510008EFEE91CC8B2FFF78AFE0020FFF787FEB7
:10052000F91CC8B2FFF783FE2C20FFF76EFEF0BD6A
:1005300030B504460D462B46224629462046FFF795
:10054000CCFF30BDF0B504460D4616462746C5F132
:10055000800084B23D46681C83B2601C82B229468A
:100560002046FFF7BAFF3046FFF774FEF0BD60B5D6
:1005700005460E4631462846FFF7DAFFE0B2FFF7A0
:1005800056FE204660BD70B506467F231A46002100
:100590000846FFF7A2FF2C20FFF737FE00240AE0F1
:1005A000002505E0000C01403046FFF753FE6D1CAE
:1005B000802DF9D3641C802CF2D370BD4FF0E02164
:1005C000096921F004014FF0E0221161C21700EB2C
:1005D0005272C2F3C702234B1A701946097801EB15
:1005E0004102C2EBC1114FF6FF7202EAC1011E4A7D
:1005F0001180704701461C4A12884A434FF0E0239D
:100600005A6100229A6101221A6100BF4FF0E02274
:10061000106900F001021AB100F48032002AF5D00E
:1006200000224FF0E0231A619A61704701460D4A9B
:1006300012784A434FF0E0235A6100229A61012266
:100640001A6100BF4FF0E022106900F001021AB1F8
:1006500000F48032002AF5D000224FF0E0231A6126
:100660009A617047000000200200002030B501466A
:1006700001F01F04C1F34513CA0AE50205EB431557
:100680001544A8B230BD2DE9F04706460F46904606
:100690009A46002445464FEA4800C0F103094AE063
:1006A0007A1991B2321990B25246FFF74BFF7A197C
:1006B00091B2321B90B25246FFF744FF7A1B91B2BF
:1006C000321990B25246FFF73DFF7A1B91B2321BAE
:1006D00090B25246FFF736FF3A1991B2721990B2B2
:1006E0005246FFF72FFF3A1991B2721B90B2524651
:1006F000FFF728FF3A1B91B2721990B25246FFF7EA
:1007000021FF3A1B91B2721B90B25246FFF71AFFBB
:10071000B9F1000F05DA042000FB049000F106098E
:1007200007E0601B042101FB009000F10A09681E2C
:1007300085B2601C84B2AC42B2DBAC4237D17A19CC
:1007400091B2321990B25246FFF7FCFE7A1991B27B
:10075000321990B25246FFF7F5FE7A1B91B2321968
:1007600090B25246FFF7EEFE7A1B91B2321B90B266
:100770005246FFF7E7FE3A1991B2721990B252460B
:10078000FFF7E0FE3A1991B2721B90B25246FFF7A2
:10079000D9FE3A1B91B2721990B25246FFF7D2FEBF
:1007A0003A1B91B2721B90B25246FFF7CBFEBDE8E6
:1007B000F0872DE9FF4F83B0804689464946404681
:1007C000FFF7B6FE0598A0EB08050698A0EB090612
:1007D000002D02DB0120029003E04FF0FF30029079
:1007E0006D42002E02DB0120019003E04FF0FF304C
:1007F000019076424FEA450A4FEA460BB54219DDB1
:10080000ABEB0504002712E049464046109AFFF77B
:1008100099FE002C05DBA4EB0A04019848441FFA5A
:1008200080F95C44029840441FFA80F87F1CAF4274
:10083000EADD18E0AAEB0604002712E0494640462C
:10084000109AFFF77FFE002C05DBA4EB0B04029847
:1008500040441FFA80F85444019848441FFA80F934
:100860007F1CB742EADD07B0BDE8F08F2DE9F84301
:1008700005460C4616461F46DDF820804EF67D7074
:100880000090A81982B2234621462846FFF791FF1F
:1008900042F6651004F1010CBC441FFA8CF305EB21
:1008A000060CACF1010C1FFA8CF204F1010C1FFADA
:1008B0008CF105EB060CACF1010C00901FFA8CF0EA
:1008C000FFF777FF42F665100090E01983B2A81990
:1008D00082B2E01981B22846FFF76BFF4EF67D70B9
:1008E0000090E01983B22A4621462846FFF761FFAF
:1008F00004F1010CBC44ACF1020C1FFA8CF305F1BD
:10090000010CB444ACF1020C1FFA8CF204F1010C9E
:100910001FFA8CF105F1010C1FFA8CF0CDF8008064
:10092000FFF747FFBDE8F8832DE9F84305460C467D
:1009300016461F46DDF82080B8F1000F39D14EF67B
:100940007D700090A81982B2234621462846FFF701
:1009500030FF42F6651004F1010CBC441FFA8CF321
:1009600005EB060CACF1010C1FFA8CF204F1010C42
:100970001FFA8CF105EB060CACF1010C00901FFA8C
:100980008CF0FFF716FF42F665100090E01983B275
:10099000A81982B2E01981B22846FFF70AFF4EF685
:1009A0007D700090E01983B22A4621462846FFF761
:1009B00000FFB8F1010F39D142F665100090A81977
:1009C00082B2234621462846FFF7F3FE4EF67D709D
:1009D00004F1010CBC441FFA8CF305EB060CACF1DE
:1009E000010C1FFA8CF204F1010C1FFA8CF105EBDB
:1009F000060CACF1010C00901FFA8CF0FFF7D9FE49
:100A00004EF67D700090E01983B2A81982B2E01909
:100A100081B22846FFF7CDFE42F665100090E0193E
:100A200083B22A4621462846FFF7C3FEB8F1020FDB
:100A300039D14FF6FF700090A81982B223462146A3
:100A40002846FFF7B6FE4FF6FF7004F1010CBC44D8
:100A50001FFA8CF305EB060CACF1010C1FFA8CF2BB
:100A600004F1010C1FFA8CF105EB060CACF1010C42
:100A700000901FFA8CF0FFF79CFE4FF6FF7000907D
:100A8000E01983B2A81982B2E01981B22846FFF7B3
:100A900090FE4FF6FF700090E01983B22A4621467F
:100AA0002846FFF786FEBDE8F883F8B504460D46F4
:100AB00016461F4644F208202B463246294600902F
:100AC0002046FFF776FE48F210406A1C93B291B2BE
:100AD000621C009090B23246FFF76BFE44F2082091
:100AE0003B462246294600902046FFF762FE48F228
:100AF0001040631C9AB26B1C99B2631C009098B2B0
:100B00003B46FFF756FE4FF6FF703B4632463946EE
:100B100000902046FFF74DFE4FF6FF703B463246F1
:100B2000294600903046FFF744FEF8BDF8B506466A
:100B30000F4614461D464FF6FF703B462246394687
:100B400000903046FFF735FE4FF6FF702B463246D9
:100B5000394600903046FFF72CFE48F210406A1EDE
:100B600093B291B2721C009090B22246FFF721FE20
:100B700044F208202B462246294600903046FFF7D3
:100B800018FE48F21040631E9AB27B1C99B2631E95
:100B9000009098B22B46FFF70CFE44F208202B463B
:100BA0002246394600902046FFF703FEF8BD2DE9A6
:100BB000F84F0746884693469A46DDF828900097F6
:100BC000B3E099F8000080283DDA99F800600D2E16
:100BD00005D1009F08F110001FFA80F830E0202EA8
:100BE00003DDA6F1200086B200E00026002422E00A
:100BF00000251CE004EB0610E849085C802129412F
:100C0000084040B108EB040291B27A1990B25A46FA
:100C1000FFF798FC09E0D34507D008EB040291B236
:100C20007A1990B25246FFF78DFC681CC5B2082DA8
:100C3000E0DB601CC4B2102CDADB07F1080087B2DD
:100C400009F1010971E0002668E006EB0610D449BD
:100C500011F8100099F8001088425DD106EB0610DB
:100C6000CF4901EB4000407899F80110884253D1F8
:100C700000244FE0002520E006EB0610C84901EBF8
:100C80004000801C10F8141080202841014041B120
:100C900008EB040291B27A1990B25A46FFF752FC5F
:100CA00009E0D34507D008EB040291B27A1990B25B
:100CB0005246FFF747FC681CC5B2082DDCDB002557
:100CC00024E006EB0610B64901EB4000801C012130
:100CD00001EB4401405C80212941084048B108EB08
:100CE000040291B27A19083290B25A46FFF72AFCF0
:100CF0000AE0D34508D008EB040291B27A19083211
:100D000090B25246FFF71EFC681CC5B2082DD8DB16
:100D1000601CC4B2102CADDB701C86B2322E94DB8A
:100D200009F1020907F1100087B299F800000028C4
:100D30007FF447AFBDE8F88F2DE9F05F064688469F
:100D400093469A46DDF82890E2E099F80000802862
:100D500035DA99F80070202F03DDA7F1200087B263
:100D600000E00027002522E000241CE005EB07102E
:100D70008A49095C80202041014041B108EB05020D
:100D800091B2321990B25A46FFF7DCFB09E0D34525
:100D900007D008EB050291B2321990B25246FFF724
:100DA000D1FB601CC4B2082CE0DB681CC5B2102D5E
:100DB000DADB09F1010906F1080086B2A8E0002794
:100DC0009EE007EB870000EB4710764911F8100012
:100DD00099F8001088427CD107EB870000EB4710A0
:100DE000704901EB4000407899F801108842F2D137
:100DF000002580E0002423E007EB870000EB47108C
:100E0000684901EB4000801C05EB4501405C8021F6
:100E10002141084040B108EB050291B2321990B26D
:100E20005A46FFF78FFB09E0D34507D008EB0502D0
:100E300091B2321990B25246FFF784FB601CC4B2E3
:100E4000082CD9DB002426E007EB870000EB4710D5
:100E5000544901EB4000801C05EB4501491C405CF6
:100E600080212141084048B108EB050291B23219B6
:100E7000083290B25A46FFF765FB0AE0D34508D026
:100E800008EB050291B23219083290B25246FFF7D0
:100E900059FB601CC4B2082CD6DB002427E007EB0A
:100EA000870000EB47103F4901EB4000801C05EB39
:100EB0004501891C405C80212141084050B108EB6C
:100EC000050291B23219103290B25A46FFF73AFB3E
:100ED0000BE013E0D34508D008EB050291B23219BC
:100EE000103290B25246FFF72DFB601CC4B2082CA2
:100EF000D5DB681CC5B2182DFFF67CAF781C87B215
:100F0000142FFFF65EAF09F1020906F1180086B250
:100F100099F8000000287FF418AFBDE8F09F2DE994
:100F2000F05F0746884692469946002531E0002446
:100F30002BE01D490A9801EBC01000EB850010F86A
:100F400004B000261DE08020304100EA0B0050B1C3
:100F500008EB050291B207EBC402324490B252464C
:100F6000FFF7F0FA0BE0CA4509D008EB050291B291
:100F700007EBC402324490B24A46FFF7E3FA701C12
:100F8000C6B2082EDFDB601CC4B2042CD1DB681CA7
:100F9000C5B2202DCBDBBDE8F09F0000661B00082A
:100FA000D8280008C02F00085721000808B54EF6C1
:100FB0007D70FFF7E8FAACA04EF67D731F2200218A
:100FC00000901020FFF7F3FDABA04EF67D734FF4B9
:100FD0007842142100901020FFF7E9FD3A23712296
:100FE00026210F20FFF7A2FDA7A04EF67D734FF636
:100FF000E072282100901020FFF7D9FD58237122BC
:1010000044210F20FFF792FDA3A04EF67D731F220F
:10101000462100901020FFF7CAFD7623712262213D
:101020000F20FFF783FDA0A04EF67D734FF47842AA
:10103000642100901020FFF7BAFD40F2DC50FFF76A
:10104000D9FA08BDF8B500244EF67D70FFF79BFA7B
:1010500099A04EF67D734FF4784214210090102031
:10106000FFF7A5FD4FF47A70FFF7C4FA4EF67D70D6
:10107000FFF789FA00BF21E0032094FBF0F0400164
:10108000401D85B2032094FBF0F100FB114000EB02
:1010900080004FF6FF7101EAC0068A49601C085CB7
:1010A0004EF67D734FF47842294600903046FFF7A4
:1010B00036FF6420FFF79EFA601CC4B20A2CDBDB0B
:1010C000F8BD08B54EF67D70FFF75DFA72A04EF6DA
:1010D0007D731F220A2100901020FFF768FD4FF456
:1010E0007A70FFF787FA4EF67D70FFF74CFA5EA034
:1010F0004EF67D734FF6E0721E2100901020FFF730
:1011000056FD71A04EF67D731F22322100901020F3
:10111000FFF74DFD70A04EF67D734FF478424621E7
:1011200000901020FFF743FD6FA04EF67D731F2245
:10113000642100900020FFF73AFD6FA04EF67D730A
:101140004FF47842822100900020FFF730FD4FF4E9
:10115000E160FFF74FFA08BD38B501244EF67D7007
:10116000FFF711FA68A04EF67D731F220A21009046
:101170001420FFF71CFDC820FFF73CFA11E04FF6E2
:10118000FF70FFF700FA0020FFF7FDF94FF47840F9
:10119000FFF7F9F94FF4FC60FFF7F5F91F20FFF7AF
:1011A000F2F9201EA4F10101CCB2E8D138BD2DE93D
:1011B000F04707464FF6FF70FFF7E5F9002633E0EA
:1011C00000252EE006EB860C4FEACC0C0CF1270C28
:1011D0001FFA8CF305EB850C4FEACC0C0CF1270CB5
:1011E0001FFA8CF206EB860C4FEACC4C4FEA1C41FE
:1011F00005EB850C4FEACC4C4FEA1C40FFF76DF92C
:1012000000240AE017F8149007EB440090F80180DE
:1012100049EA0820FFF71EF8641CB4F5C86FF1DB3B
:101220006D1C032DCEDB761C032EC9DBBDE8F087D9
:1012300010B5FFF741F84FF4007036490860FFF72A
:10124000B5FEFFF789FFFFF7FDFEFFF73AFF3248D3
:10125000FFF7ADFF4FF49660FFF7CCF94FF4007045
:101260002C49091D086010BDC8ABB6AFB5E7D7D390
:10127000BCBCCAF500000000D2BABEA7B2E2CAD414
:10128000B3CCD0F200000000D1D5C9ABCCEEB3E4B2
:10129000B2E2CAD400000000CEC4D7D6CFD4CABEB2
:1012A000B2E2CAD400000000CDBCC6ACCFD4CABEE6
:1012B000B2E2CAD4000000004E756D20546573740C
:1012C0000000000004000020D7A8D7A2D2BABEA711
:1012D000C5FAB7A200000000C8ABB3CCBCBCCAF5CD
:1012E000D6A7B3D60000000054656C3A31353938C2
:1012F00039333133353038007777772E7164746540
:1013000063682E6E65740000436F6C6F72205465C5
:1013100073740000100C01403E35000810B50446FF
:10132000C649601A8C422FD009DCC548204480B1E0
:10133000B0F5806F16D0B0F5006F4AD11BE0B0F564
:10134000806F2AD0B0F5006F30D0B0F5406F40D13B
:1013500035E00121042000F0FFFA0021042000F014
:10136000FBFA37E00121082000F0F6FA00210820FE
:1013700000F0F2FA2EE00121102000F0EDFA002139
:10138000102000F0E9FA25E00121202000F0E4FA25
:101390000021202000F0E0FA1CE00121402000F0B4
:1013A000DBFA0021402000F0D7FA13E00121802071
:1013B00000F0D2FA0021802000F0CEFA0AE00121EC
:1013C000080200F0C9FA00214FF4807000F0C4FA5E
:1013D00000E000BF00BF10BD10B50121084600F0BD
:1013E000BBFA0021012000F0B7FA10BD2DE9F04151
:1013F000024600250026002000230024002791F843
:1014000003C00CF00F0591F803C00CF0100CBCF1F8
:10141000000F03D091F802C04CEA050591F800C016
:10142000BCF1000F31D0146800202BE04FF0010C0C
:101430000CFA00F3B1F800C00CEA03069E4220D17A
:1014400083004FF00F0C0CFA03F7BC4305FA03FCC2
:101450004CEA040491F803C0BCF1280F06D14FF008
:10146000010C0CFA00FCC2F814C00AE091F803C0A9
:10147000BCF1480F05D14FF0010C0CFA00FCC2F88A
:1014800010C0401C0828D1D31460B1F800C0BCF1D2
:10149000FF0F34DD546800202EE000F1080C4FF0FF
:1014A000010808FA0CF3B1F800C00CEA03069E42EA
:1014B00021D183004FF00F0C0CFA03F7BC4305FA5F
:1014C00003FC4CEA040491F803C0BCF1280F05D1D9
:1014D00000F1080C08FA0CF8C2F8148091F803C067
:1014E000BCF1480F07D100F1080C4FF0010808FAD1
:1014F0000CF8C2F81080401C0828CED35460BDE818
:10150000F0814FF6FF710180022181700421C170CA
:1015100070470246002093680B400BB1012000E0A9
:10152000002070470146886880B27047024600205C
:10153000D3680B400BB1012000E00020704701464A
:10154000C86880B2704701617047416170470AB155
:10155000016100E041617047C16070474FF4803223
:101560000A438261816182618269826970470246B1
:101570000020344B18684FF68073184040EA021080
:101580000843304B186070472F49C8617047F0B569
:101590000A4600230024002100252A4E7168C0F36A
:1015A000034583B200F44016B6F5401F08D121F080
:1015B0007061244E766826F07066224F7E6012E0DD
:1015C00000F48016B6F5801F06D1032606FA05F44E
:1015D000A14341F0706106E0460D360103FA06F6BC
:1015E000B14341F0706122B1460D360103FA06F6AF
:1015F0003143144E7160F0BD30B500228B071C0FD3
:101600000F2303FA04F20F4B08338C1053F82430E5
:1016100093430C4C08348D1044F8253023468C102D
:1016200053F824308C07240F00FA04F42343054CAC
:1016300008348D1044F8253030BD000000140140FE
:1016400000F8FEBF0000014000002042DE480068B4
:1016500040F00100DC49086008464068DB4908406A
:10166000D949486008460068D9490840D649086009
:101670000846006820F4802008600846406820F48E
:10168000FE004860002088607047CF49096821F457
:101690008031CD4A11601146096821F48021116022
:1016A000B0F5803F03D0B0F5802F0ED106E0C649DB
:1016B000096841F48031C44A116007E0C2490968F1
:1016C00041F4A021C04A116000E000BF00BF704794
:1016D00010B501460022002300204A11012A02D140
:1016E000B94C236806E0022A02D1B74C236A01E014
:1016F000B54C636A01F01F02012494401C400CB1F8
:10170000012000E0002010BD38B50020009000242A
:10171000002500BF3120FFF7DBFF05460098401C85
:1017200000901DB90098B0F5A06FF3D13120FFF7FC
:10173000CFFF08B1012400E00024204638BD014657
:101740000020A14A106820F0F80040EAC1001060B3
:101750007047A04908607047024600209A4B5868BD
:1017600020F47C1042EA01031843974B58607047FD
:1017700098490866704701460020934A506820F057
:1017800003000843506070478F48406800F00C0029
:101790007047014600208C4A506820F0F000084352
:1017A0005060704701460020874A506820F4E0608E
:1017B00008435060704701460020834A506820F477
:1017C000605040EAC1005060704729B17E4A527AA9
:1017D00002437D4B5A7204E07B4A527A82437A4B31
:1017E0005A7270477B49D831086070470146002023
:1017F000754A506820F4404008435060704700210B
:10180000714A20321170704A82F82010012802D0EB
:1018100004280AD104E001216B4A2032117005E04E
:101820000521694A2032117000E000BF00BF7047F7
:101830006949086070476449096A0143624A116254
:101840007047654944390860704730B5002100226F
:10185000002400235C4D6D6805F00C0121B10429C2
:1018600005D0082923D105E05C4D056022E05B4DE1
:1018700005601FE0544D6D6805F47012022505EBFC
:101880009242514D6D6805F480341CB9544D554356
:1018900005600BE04C4D6D6805F400351DB1504DF1
:1018A0005543056002E04D4D5543056002E04B4D48
:1018B000056000BF00BF444D6D6805F0F0010909E7
:1018C000484D6B5C0568DD4045603F4D6D6805F433
:1018D000E061090A434D6B5C4568DD4085603A4D27
:1018E0006D6805F46051C90A3E4D6B5C4568DD408A
:1018F000C560354D6D6805F44041890B3A4D6B5C10
:10190000C568B5FBF3F5056130BD29B12E4A5269B2
:1019100002432D4B5A6104E02B4A526982432A4B01
:101920005A61704729B1284A92690243264B9A614D
:1019300004E0254A92698243234B9A61704729B19A
:10194000214AD2690243204BDA6104E01E4AD2697F
:1019500082431D4BDA61704729B11B4AD2680243AA
:10196000194BDA6004E0184AD2688243164BDA60F9
:10197000704729B1144A12690243134B1A6104E0FB
:10198000114A12698243104B1A617047124940395B
:10199000086070470F49C86470470B49C8717047A9
:1019A0000948406A40F08070074948627047014624
:1019B0000020054A92680A400AB1012000E0002098
:1019C0007047014988727047001002400000FFF81C
:1019D000FFFFF6FE000042428004424200127A00FD
:1019E00000093D000E0000201E0000200CB5002064
:1019F000019000904748006840F4803045490860F5
:101A000000BF4448006800F4003000900198401C7A
:101A10000190009818B90198B0F5A06FF1D13D4838
:101A2000006800F4003010B10120009001E00020B7
:101A300000900098012844D13748006840F0100019
:101A4000354908600846006820F003000860084631
:101A5000006840F0020008602E4840682D49486048
:101A60000846406848600846406840F48060486026
:101A70000846406820F47C1048600846406840F4FE
:101A8000E81048600846006840F08070086000BFB9
:101A90002048006800F000700028F9D01D48406818
:101AA00020F003001B4948600846406840F00200EF
:101AB000486000BF1748406800F00C000828F9D1C2
:101AC00001E000BFFEE70CBD10B5FFF78FFF10BDB2
:101AD00010B51048006840F001000E490860084643
:101AE00040680E4908400B494860084600680C49A8
:101AF0000840084908600846006820F48020086013
:101B00000846406820F4FE00486000208860FFF727
:101B1000DBFF10BD00100240002002400000FFF873
:101B2000FFFFF6FE064C074D06E0E06840F00103BB
:101B300094E8070098471034AC42F6D3FEF7FCFA5D
:101B4000C0410008E041000802E008C8121F08C1B7
:101B5000002AFAD170477047002001E001C1121F2E
:101B6000002AFBD1704700000000000000000000C8
:101B700000000000000000101010101010101010D5
:101B800000001010000000006C6C24240000000015
:101B90000100000000000024242424FE4848484896
:101BA000FC909090900000103C5492905038141289
:101BB0001292547810000000225C94A8481010245F
:101BC0002A5254880000000030484850206E549437
:101BD0008C888A7400000000303010100000000073
:101BE0000000000000000004081010202020202029
:101BF0002010100804000080402020101010101049
:101C0000102020408000000000001054381038548C
:101C100010000000000000000010101010FE101056
:101C20001010000000000000000000000000000094
:101C300000001010200000000000000000FE000066
:101C40000000000000000000000000000000000094
:101C500000001010000000000404080810102020EC
:101C6000404080800000000038448282828282826C
:101C70008282443800000000107010101010101004
:101C80001010107C000000003844828204081020EC
:101C9000408284FC000000003844820204380402C0
:101CA0000282443800000000040C1414242444442C
:101CB000FE04040E00000000FC808080B8C4820294
:101CC00002828478000000003C428280B8C4828294
:101CD00082824438000000007E4282040408080822
:101CE00010101010000000003844828244384482F2
:101CF0008282443800000000384482828282463A60
:101D000002824438000000000000101000000000B3
:101D10001010000000000000000010100000000083
:101D200000101020000000000000061860806018FD
:101D3000060000000000000000000000FE0000FEA1
:101D400000000000000000000000C0300C020C3059
:101D5000C000000000000038448282020408101015
:101D600010001010000000003844829AAAAAAAAA03
:101D7000AA9680423C0000001010102828284444F5
:101D80007C4444EE00000000FC424242427C42425D
:101D9000424242FC000000003C44828080808080FF
:101DA0008282443800000000F844424242424242EB
:101DB000424244F800000000FC444240447C44405D
:101DC000404244FC00000000FC444240447C44404B
:101DD000404040F000000000344C828080808E84BF
:101DE00084844C3400000000EE444444447C444469
:101DF000444444EE000000007C101010101010103D
:101E00001010107C000000003E08080808080808B0
:101E10000888887000000000EE4448485060504830
:101E2000484444EE00000000E04040404040404054
:101E3000404244FC00000000C6446C6C6C54545496
:101E4000444444EE00000000CE4464646454544CA6
:101E50004C4C44E40000000038448282828282823A
:101E60008282443800000000F844424242447840F4
:101E7000404040E00000000038448282828282823A
:101E800082BA443C02000000F04844444448704890
:101E9000444444E6000000003C44828040300C0290
:101EA00002824478000000007C5492101010101040
:101EB0001010103800000000EE44444444444444F0
:101EC0004444443800000000EE4444444428282898
:101ED0002810101000000000EE4454545454545480
:101EE0002828282800000000EE4444282810102844
:101EF000284444EE00000000EE4444282828101036
:101F000010101038000000007E44840808102020C3
:101F1000408284FC0000001C1010101010101010E3
:101F2000101010101C000000EE445454FE54545481
:101F30002828282800000070101010101010101011
:101F400010101010700000304884000000000000E5
:101F50000000000000000000000000000000000081
:101F600000000000FE000040200000000000000013
:101F70000000000000000000000000007884047CE5
:101F800084848C7600000000C04040405864424287
:101F90004242645800000000000000003844808085
:101FA00080804438000000000C040404344C848415
:101FB00084844C360000000000000000788484FC1B
:101FC000808084780000000018242020F820202041
:101FD0002020207000000000000000003A444478F7
:101FE000807C82827C000000C040404058644444B1
:101FF000444444EE000000001010000030101010A7
:1020000010101038000000001010000030101010E8
:102010001010109060000000C04040405C485060CC
:10202000504844EE00000000301010101011101045
:10203000101010390000000000000000ACD2929295
:10204000929292D6000000000000000058E4444440
:10205000444444EE00000000000000003844828246
:10206000828244380000000000000000D864424230
:1020700042645840E000000000000000364C8484B8
:10208000844C34040E000000000000006C3020205E
:10209000202020700000000000000000788884608C
:1020A000188444780000000000202020F820202020
:1020B000202024180000000000000000C642424218
:1020C0004242463A0000000000000000EE4444286E
:1020D000282810100000000000000000EE444454C6
:1020E000542828280000000000000000EE442810BA
:1020F000102844EE0000000000000000EE444428D8
:10210000281010A0C0000000000000007E448810CD
:10211000204284FC0000000C101010101060101001
:10212000101010100C0000101010101010101010D3
:1021300010101010100000C0202020202018202097
:1021400020202020C00000000000000000728C0051
:102150000000000000000000000000001FE0000080
:102160003FF000003FF000001FE000018006000388
:10217000C00F0003C00F0003C00F0003C00F000317
:10218000C00F0003C00F0003C00F0003C00F000307
:102190000003000000000000000000000000000339
:1021A00000030003C00F0003C00F0003C00F0003B3
:1021B000C00F0003C00F0003C00F0003C00F0003D7
:1021C000C00F0001800600001FE000003FF000008B
:1021D0003FF000001FE000000000000000000000D1
:1021E00000800000018000000380000007800000E4
:1021F00007800000078000000780000007800000C3
:1022000007800000078000000780000007800000B2
:10221000018000000000000000000000000000003D
:102220000180000007800000078000000780000098
:102230000780000007800000078000000780000082
:10224000078000000780000003800000018000007C
:102250000080000000000000000000001FE00000FF
:102260003FF00000FFF00001FFE00000000600006A
:10227000000F0000000F0000000F0000000F000022
:10228000000F0000000F0000000F0000000F000012
:102290001FE300007FF800007FF800001FE000034C
:1022A00000000003C0000003C0000003C0000003E2
:1022B000C0000003C0000003C0000003C000000312
:1022C000C0000001800000001FF000003FF8000087
:1022D0003FFC00001FFE000000000003FF80000123
:1022E000FFC00000FFC000007F8000000018000059
:1022F000003C0000003C0000003C0000003C0000EE
:10230000003C0000003C0000003C0000003C0000DD
:102310007F8C0001FFE00001FFF000007F800000E3
:10232000000C0000003C0000003C0000003C0000ED
:10233000003C0000003C0000003C0000003C0000AD
:10234000003C0000001800007F800000FFC000017A
:10235000FFC00003FF80000000000000000000023A
:10236000000100030003000380070003C00F000307
:10237000C00F0003C00F0003C00F0003C00F000315
:10238000C00F0003C00F0003C00F0003C00F000305
:102390001FE300007FF800007FFC00001FE000004A
:1023A00000030000000F0000000F0000000F0000FD
:1023B000000F0000000F0000000F0000000F0000E1
:1023C000000F0000000F00000007000000030000E5
:1023D0000001000000000000000000001FFC0000E1
:1023E0003FF800003FF000001FE000018000000304
:1023F000C0000003C0000003C0000003C0000003D1
:10240000C0000003C0000003C0000003C0000003C0
:102410001FE000007FF800007FF800001FE00000D0
:1024200000030000000F0000000F0000000F00007C
:10243000000F0000000F0000000F0000000F000060
:10244000000F0000000600003FE000007FF00000E9
:10245000FFF00001FFE00000000000001FFC000092
:102460003FF800003FF000001FE000018000000383
:10247000C0000003C0000003C0000003C000000350
:10248000C0000003C0000003C0000003C000000340
:102490001FE000007FF800007FFC00001FE0000349
:1024A00000030003C00F0003C00F0003C00F0003B0
:1024B000C00F0003C00F0003C00F0003C00F0003D4
:1024C000C00F0001800600001FE000003FF0000088
:1024D0003FF000001FE0000000000007FFE00003E5
:1024E000FFC00001FF880000FF1800000038000056
:1024F00000780000007800000078000000780000FC
:1025000000780000007800000078000000780000EB
:1025100000180000000000000000000000000000A3
:10252000001800000078000000780000007800002B
:1025300000780000007800000078000000780000BB
:10254000007800000078000000380000001800004B
:102550000008000000000000000000001FE0000074
:102560003FF000003FF000001FE000018006000384
:10257000C00F0003C00F0003C00F0003C00F000313
:10258000C00F0003C00F0003C00F0003C00F000303
:102590001FE300007FF800007FFC00001FE0000345
:1025A00000030003C00F0003C00F0003C00F0003AF
:1025B000C00F0003C00F0003C00F0003C00F0003D3
:1025C000C00F0001800600001FE000003FF0000087
:1025D0003FF000001FE00000000000001FE00000CE
:1025E0003FF000003FF000001FE000018006000304
:1025F000C00F0003C00F0003C00F0003C00F000393
:10260000C00F0003C00F0003C00F0003C00F000382
:102610001FE300007FF800007FFC00001FE00000C7
:1026200000030000000F0000000F0000000F00007A
:10263000000F0000000F0000000F0000000F00005E
:10264000000F0000000600001FE000003FF0000047
:102650007FF00000FFE0000000000000000000002C
:10266000000000000000000000000000000000006A
:10267000000000000000000000000000000000005A
:10268000000000000000000000000000000000004A
:10269000000000000000000000000000000000003A
:1026A00000000000000000000000000078000000B2
:1026B000780000007800000078000000780000003A
:1026C0007800000000000000000000000000000092
:1026D00000000000000000000000000000000000FA
:1026E00000000000000000000000000000000000EA
:1026F0000000000000000000070000000F80000044
:102700000F8000000F8000000700000000000000A4
:1027100000000000000000000000000000000000B9
:1027200000000000070000000F8000000F80000084
:102730000F80000007000000000000000000000003
:102740000000000000000000000000000000000089
:102750000000000000000000000000000000000079
:102760000000000000000007C006000FE0060000A7
:10277000000C0030181800301818003018300030E5
:10278000183000301860003008C00007C0C0000FCB
:10279000E080000000000000000FE0000607C0001D
:1027A000063018000C3018000C30180018301800D3
:1027B000303018003030180060000000C00FE0001A
:1027C000C007C00000000000000000000000000082
:1027D00000000000000000000000000000000000F9
:1027E00000000000000000000000000000000007E2
:1027F00000E0000887FC00088E03000898018007AD
:102800001800800030000000300000007000000060
:102810006000000060000000600000006000000038
:102820006000000070000000300000003000000078
:1028300038000000180100000C03000007FC000035
:1028400001F0000000000000000000000000000097
:102850000000000000000000000000000000000078
:102860000000000000000000000000000000000068
:102870000000000000000000000000000000000058
:102880000000000000000000000000000000000048
:10289000000000003FF000007FF000007FE000003B
:1028A000FFC0000000000000000000000000000069
:1028B0000000000000000000000000000000000018
:1028C0000000000000000000000000000000000008
:1028D0000000000000000000B5E702000200020056
:1028E0007FF0421042107FF0421042107FF0420011
:1028F0000208020801F800000000D7D37FF0002092
:102900000040008001000200FFF802000200020007
:102910000200020002000E0000000000C8AB01002F
:10292000010002800440082010102FE8C1060100B9
:1029300001001FF00100010001007FFC0000B6AFA4
:10294000004000407C40004001FC0044FE44204424
:102950002044208448844484FD0445040228041053
:10296000BCBC10201020102013FEFC2010201020D2
:1029700015FC18843088D048105010201050518811
:102980002606CAF501000120011001107FFC03801A
:1029900005400540092011102108410401020100F1
:1029A00001000100D2BA0080404027F811400140E8
:1029B0008278424816A81AD0235022204220425042
:1029C000028800000000BEA73FE020203FE020205A
:1029D0003FE00000FDF885088508FDF885088508BA
:1029E000FDF8850800000000B2E200084F88288842
:1029F0000AA88AA84AA80AA82AA82AA842284508F4
:102A000084888888103800000000CAD440502048CC
:102A100020400FF80040E040274022402240222082
:102A20002A2833A82E18000800000000B3CC0000AC
:102A30001BF0E210221023F0F800200033F0688031
:102A40006080A3F02080208027F800000000D0F2F2
:102A5000020001003FF820002FF0202022402180BA
:102A60003FF8208820904080408083800000000054
:102A7000D1D5200010F87E20444028F87E8848A850
:102A800050A864A848A872A884501888610800005B
:102A90000000C9AB100010003FE0404080807FF094
:102AA0004210421042107FF04000400840083FF8BA
:102AB00000000000CCEE20802FF8208027F0F410DA
:102AC00027F0241027F0241027F03410CFF802202C
:102AD000041000000000B3E404000200FFF8080046
:102AE000104020207FF0089008800880088010881F
:102AF0002088C07800000000CEC40400020002005C
:102B0000FFF8104010400880088005000200050012
:102B100008803060C01800000000D7D60400020012
:102B2000FFF8800880083FC0008001000200FFF825
:102B30000200020002000E0000000000CFD43FE0BF
:102B4000202020203FE0202020203FE008804890E7
:102B5000289028A008800880FFF800000000CABE66
:102B600000003FE0000000000000FFF802001240FB
:102B7000122022104208820802000E00000000000D
:102B8000CDBC7FF84008440847C8484854884308EB
:102B90004CC8733840884C08430840887FF80000D0
:102BA0000000C6AC00802080208020803FF0200004
:102BB000200020003FC02040204020404040804076
:102BC00000000000B4A520403840484091F07D50FE
:102BD000555055507D5055F054407C40545057F856
:102BE0008C0800000000C3FE2220222027F8FA20D3
:102BF00027F0241027F03410E7F020802FF8214030
:102C00002220EC1800000000CAE440804140F2207D
:102C100044108BE8A000F78824A827A834A8E7A8C8
:102C200024A8248825B800000000C8EB0800040090
:102C30000400020002000500050008800880104022
:102C4000104020204010800800000000C8AB0200A7
:102C500002000500088010402020DFD8020002009A
:102C60001FC0020002000200FFF800000000B3CC09
:102C700000001BF0E210221023F0F800200033F0D7
:102C800068806080A3F02080208027F8000000008A
:102C9000BCBC208020802080F7F02080208027E0AE
:102CA0003220E2202140208021402220EC18000028
:102CB0000000CAF50200024002200200FFF80700EF
:102CC0000A800A801240222042108208020002007C
:102CD00000000000D6A702000200FFF80200020078
:102CE0007FE010201040088005000200050018C099
:102CF000E03800000000B3D62080208023F0F88068
:102D0000208027F828203020E7F8202022202120CA
:102D10002020E0E000000000D7A8020002007FF0C1
:102D200004000400FFF8080010003FE0002000400D
:102D30001C800300008000000000D7A2010040803A
:102D4000200017F0008080804080008017F0108005
:102D50002080208040804FF800000000C5FA20400D
:102D600024402440F4482450276024403440E44068
:102D70002440244025482648E43800000000B7A23B
:102D800002002220221044007FF8040008000FE017
:102D9000142024404280810006C038380000000022
:102DA000B3C900A0009000807FF8408040907C90E4
:102DB000449044A044A0444858A841188208000008
:102DC0000000B9A601000100F90023F02110211034
:102DD0002110211021103910C210021004100860B7
:102DE00000000000D2C60000002000780CE4790446
:102DF000516810307E6019981A3C2FE448E4083876
:102E0000003000600000D1A100000120012003FC7F
:102E100062203420042003FC240021B02120222041
:102E2000323E18000FE00000D4F10000000010FC5A
:102E30001304110C3DF8703E10D015907CF0503EFC
:102E400018101BFE023000200000CFEE0000000032
:102E500003FE00607C4012FC11041106113611249F
:102E60001F44794400C0009C01860000C4BF0000DC
:102E700000000FE03C18200820043E0460046004B9
:102E80007E046004200C20081FF001800000B6CCF6
:102E90000000080011FC103E3EF82D8C2904490466
:102EA00009043E8C50FC10881EC811FC100E000056
:102EB000B0B400000040006012FE13023A427F44AA
:102EC00010C41BFE3C987190113011A00078004C8A
:102ED0000000C8B70000004000F878C41F8C3138EB
:102EE00021EC2126413A7DE2272225FA3D260124C4
:102EF00001040000B6A80000010001705FFC70042E
:102F000020042FF801001100113821C431003F00C6
:102F100063E040380000B3A4000000000818086017
:102F200008C00B001E00181C7FF01000118010E07C
:102F30001838098E0F000000B0B400000040006097
:102F400012FE13023A427F4410C41BFE3C9871905B
:102F5000113011A00078004C0000B7B5000000004F
:102F600007F80600240014F8078C04042408261827
:102F700025F0647C64C220801FC00000BBD8000024
:102F800000001FF030182008278C2C4428442844C7
:102F90002CC427842004300C1FF80380000000009C
:102FA0000000000000000000000000000000000021
:102FB0000000000000000000000000000000000011
:102FC000B4BF000000000000020100063FC00C3F3B
:102FD000E01803001002003336603726203E6630CA
:102FE0001C643018642031FEE03F1FC01C0C000040
:102FF0000C000704003E07F00001C00000000000C4
:1030000000000000000000000000C9AB000000004C
:10301000000001FE0003E3000703000C03001C3F57
:10302000003BFFC03F30600C30200C30200C1020E3
:103030000C10600FFFC0083F000800000800600E81
:103040003FE007FC0000000000000000000000005E
:1030500000000000CCEE00000000000000030000B3
:10306000FFE00C07F00C06000CFF803FF0E01FC0F3
:10307000600CFE300CCC3004F83004FF2004C0207B
:103080001FFE603EC06001FFF001FFF000606000C5
:103090004000000000000000000000000000B3E459
:1030A00000000000000000200000300007FFF03F9B
:1030B000FFE00300000601800C01800801C0180732
:1030C000E00FFE7007E000020600060400040400A2
:1030D0000404000C06700C07E00000000000000073
:1030E0000000000000000000B2E20000000000004C
:1030F00000003039FC301FCC300706B00F06F01945
:1031000007B03137B03136F01F27F00167F001E525
:10311000F001E1F00041F00CF8B03CD830008C3008
:1031200000803000000000000000000000000000EF
:103130000000CAD40000000000000803600C037007
:103140000C0330003FE0003F800801003C01800498
:103150007F80047D800C00800C10C00C10C00C1807
:10316000400C1C600F7E60067030000030000000D4
:10317000000000000000000000000000CEC40000BD
:103180000000C00000E00000700001FFE01FFFC071
:10319000180100000300000600000E00001C000ED5
:1031A000180007300001E00000F00000FC00018F73
:1031B000000303C00201E000000000000000000066
:1031C000000000000000D7D6000000000000002032
:1031D00000003F0031FFE03FC02038003030FE20CB
:1031E00033C660100200000C000018000018000038
:1031F0000C0007FFE03FFFE0000400000C00000CA3
:1032000000000000000000000000000000000000BE
:10321000CFD400000000000007FF000F03C00C0027
:10322000401FF8601800600800400E01C007FF0052
:103230000000000184000184001987800F8CE007E2
:103240008C2000CC0003FFE01FFFC0000000000046
:1032500000000000000000000000CABE00000000E6
:1032600000000E00001FFFC0007FE0000000000013
:1032700000000000000000003FC03FFFE000300001
:103280000030000030000613000C13C00C18F018BA
:1032900018001818000000000000000000000000E6
:1032A00000000000CDBC00000000000007FF000F80
:1032B00003801CC0C019FC6011C66033062033E6D1
:1032C0003036FF30301FF030703030FC30339F30FC
:1032D00036002010E060187C400E01C003FF0000A3
:1032E0003800000000000000000000000000C6AC34
:1032F0000000000000000818001808001808001856
:103300000800180C201FFFF01FF800180000100024
:103310000010F8001FFE001E030010030010030041
:10332000100300100300180200000000000000005D
:103330000000000000000000CFD4000000000000EA
:1033400007FF000F03C00C00401FF8601800600862
:1033500000400E01C007FF0000000001840001844E
:10336000001987800F8CE0078C2000CC0003FFE061
:103370001FFFC0000000000000000000000000006F
:103380000000CABE0000000000000E00001FFFC0C9
:10339000007FE000000000000000000000000000CE
:1033A0003FC03FFFE0003000003000003000061357
:1033B000000C13C00C18F0181800181800000000BA
:1033C000000000000000000000000000B4A50000A4
:1033D000000000000601800FC1801E6180304FC0D8
:1033E00020CFE0078D303FC9303379303379303F1B
:1033F000FB3037FF203267E03FE3803FE3C03263BA
:10340000603267F0304FB0000000000000000000A4
:10341000000000000000C3FE0000000000000030BB
:10342000C000FFF00C79C00C1F800C7FE03FE06013
:103430000CC0300CFC3004C03007C0301E60603C53
:103440003FC0041C00047FE000FFE00030C00060CB
:10345000600000000000000000000000000000000C
:10346000CAE40000000000000C03800C0FC0081C20
:10347000703F70001F9FC0101FC0100000367C30CE
:1034800017E6301FE3B0067FB00277F007E3F03FA6
:103490007FF01336F00326300326300000000000D2
:1034A00000000000000000000000C8EB0000000069
:1034B000000006000003800001C00000E000007072
:1034C0000000780000CC0000C600018300030180EA
:1034D0000700C00600E00C00701800301800003033
:1034E00000000000000000000000000000000000DC
:1034F00000000000000000000000000000000000CC
:1035000000000000000000000000000000000000BB
:1035100000000000000000000000000000000000AB
:10352000000000000000000000000000000000009B
:103530000000000000000000000000000000DBDED2
:103540005DEF5DEF7DEF5DEF5DEF5DEF5DEF5DEFFB
:103550005DEF5DEF5DEF5DEF5DEF5DEFBEF7FFFFF0
:10356000DEFF38C6928C8E6B6E6B107C96AD3CE79E
:10357000FFFFFFFF7DEF5DEF5DEF5DEF5DEF5DEF67
:103580005DEF5DEF5DEF5DEF5DEF5DEF5DEF5DEFDB
:10359000FFFFFFFFFFFFFFFFFFFFFFFFFFFFFFFF3B
:1035A000FFFFFFFFFFFFFFFFFFFFFFFF5DEF159D29
:1035B0004F636C420A328829461925194521E831A2
:1035C0008E6B18BEFFFFFFFFFFFFFFFFFFFFFFFF38
:1035D000FFFFFFFFFFFFFFFFFFFFFFFFFFFF5DEFAD
:1035E000FFFFFFFFFFFFFFFFFFFFFFFFFFFFFFFFEB
:1035F000FFFFFFFFFFFFFFFFDFFFF59C0F53104BA7
:1036000051530F4B6C3AE93167212519E410A30897
:10361000620083088A4A59C6FFFFFFFFFFFFFFFFD2
:10362000FFFFFFFFFFFFFFFFFFFFFFFFFFFF5DEF5C
:10363000FFFFFFFFFFFFFFFFFFFFFFFFFFFFFFFF9A
:10364000FFFFFFFFFFFF1CE74F5BB363B87CF56331
:1036500011434D32EA29882126190519051904114B
:103660000411E4108300A308728CFFFFFFFFFFFF2B
:10367000FFFFFFFFFFFFFFFFFFFFFFFFFFFF5DEF0C
:10368000FFFFFFFFFFFFFFFFFFFFFFFFFFFFFFFF4A
:10369000FFFFFFFFDBDE4B3AF042356C544BB1329B
:1036A0002E2AEB21A921671905190411041104110F
:1036B000041104110519E4104200AF73FFFFFFFF6E
:1036C000FFFFFFFFFFFFFFFFFFFFFFFFFFFF5DEFBC
:1036D000FFFFFFFFFFFFFFFFFFFFFFFFFFFFFFFFFA
:1036E000FFFF5DEF09324C32104B8F324F2A2E2AEA
:1036F000CC19891989214719051904110411C4101D
:10370000C410041104110411E41042003184FFFFBD
:10371000FFFFFFFFFFFFFFFFFFFFFFFFFFFF5DEF6B
:10372000FFFFFFFFFFFFFFFFFFFFFFFFFFFFFFFFA9
:10373000FFFFEC5247194C320B2AEC21EC210C22F2
:10374000915BEE4A061126190419E410E410A7292A
:103750006621A308051904110411E4108200F7BDC5
:10376000FFFFFFFFFFFFFFFFFFFFFFFFFFFF5DEF1B
:10377000FFFFFFFFFFFFFFFFFFFFFFFFFFFFFFFF59
:1037800035A58308882188218921AA218A216B42B5
:10379000718CFFFF728C83080411C4082942FBDE80
:1037A0005DEFEC5A83080411041104118308E83119
:1037B000DFFFFFFFFFFFFFFFFFFFFFFFFFFF5DEFEB
:1037C000FFFFFFFFFFFFFFFFFFFFFFFFFFFFBEF752
:1037D000C731C4102519261947194719A8298A5233
:1037E000284A55ADFFFFE831A30805194D6B4D6B15
:1037F000FFFF7DEF4521C410041104110411620084
:1038000076ADFFFFFFFFFFFFFFFFFFFFFFFF5DEF55
:10381000FFFFFFFFFFFFFFFFFFFFFFFFFFFF96B56B
:1038200062000411041905110519C4088B4AB6B5C4
:103830005DEFF7BDFFFF8E6B62002942AA5A084276
:10384000FFFFFFFFCC528308041104110411A308E9
:10385000AD52FFFFFFFFFFFFFFFFFFFFFFFFBEF7C0
:10386000FFFFDFFFDBDEFFFFFFFFFFFFFFFF4E631A
:103870006200041104110411E41062008E63FFFF62
:10388000FFFFFFFFFFFFCF730100F39C2C6396B592
:10389000FFFFFFFF2D5B8300041104110411E410EE
:1038A00067213DEFFFFFFFFFFFFFFFFFFFFFB7B502
:1038B00076AD7DEFCB52B394FFFFFFFFDFFFE83122
:1038C000A3080411041104110411A3084942FFF7CD
:1038D000FFF7FFFFFFFF6A4A01007284FFFFFFFF4F
:1038E000FFF7DFEF093AA3080411041104110411D2
:1038F000051118BEFFFFFFFFFFFFFFFFFFFFF07B7B
:103900006200E831C731410035A5FFFF5DEF462178
:10391000C4100411041104110411E410A308769DCD
:10392000FFF7FFFFB7ADA308A308C7319EE7FFF776
:10393000FFF776A5A308E410041104110411051182
:10394000051135A5FFFFFFFFFFFFFFFFFFFFDBDED8
:10395000A7298300C410C410C4101CE79EEF0511F2
:10396000E41004110411041104110419C408E51031
:10397000D16BD16BC5086400A50843002B32779D3D
:10398000B3842519C410041104110411041125195C
:103990002609359DFFFFFFFFFFFFFFFFFFFFFFFF32
:1039A000AF7362000419051982000D5B8E9B6210D3
:1039B0000511041104110419E41085000511C4391E
:1039C000815A407B229C43AC03A4839B8272824930
:1039D000C218A400C500E410041904110519471900
:1039E0006711EC5ABEFFFFFFFFFFFFFFFFFFDFFF86
:1039F000DBD6C410E41004110511A41801C083889B
:103A0000E40005190419C5084421438323D542FE67
:103A1000E4FE27FF07FFA4FE64FE03FEA3FDE2FC15
:103A200042EC83B32462E510C40804192619A819CE
:103A300087210090D3BCFFFFFFFFFFFFFFFF5DEF7B
:103A4000FFFFF07B420005190511832801D044F8DF
:103A5000A348E400C508445A02EDE2FD02FE66FEFA
:103A600074FFB8FF73FFE7F6A6F645F6A4F5C3FCAE
:103A700062FCC2FCC2FCE3CBC44906118819870171
:103A8000A49001F8EC9AFFFFFFFFFFFFFFFF5DEF3F
:103A9000FFFF9EF7E83183000509824001C023F84B
:103AA00085F0A348A400445A02FD23CCC2DC04FEE6
:103AB00028FE48F646F624F6E4F564FDE3FC62FCD5
:103AC000C2FC02E402DCE2FCA47A48016701C4788B
:103AD00024F802F884B07DE7FFFFFFFFFFFF5DEFF2
:103AE000FFFFFFFFDBDE2519A300C43802E022D868
:103AF00044F8A6F8A4786300432183728339829B3B
:103B000021F561FD22FDE2FCA2FC42FC42FC42FCEC
:103B100022AB8341C392045226012519A49844F88C
:103B200023F802F8A4D09EEFFFFFFFFFFFFF5DEF39
:103B3000FFFFFFFFFFFF9AD68729A50043B822F8B1
:103B400023E065F8E8F807C983484200A300840031
:103B50006329A27A62B3A2CB62D302BB828A833981
:103B6000A400E500E500E508C46064D844F824F842
:103B700023F802F88388DBC6FFFFFFFFFFFF5DEF3E
:103B8000FFFFFFFFFFFFFFFF3DE7505B083123E82A
:103B900043F844F065F809F9ABF989D10689A348DF
:103BA000421802004200610082006200620083004D
:103BB000A320C450A58885D865F844F844F823F8B4
:103BC00023F803D08210C7295DEFFFFFFFFF5DEFF1
:103BD000FFFFFFFFFFFFFFFFFFFFFFFF6C32A53876
:103BE00002D823F865F866F8A7F84AF90CFA4DFAF6
:103BF0004CEA0BD2A9B968B147A927B107B907D1D7
:103C0000E7E8C7F8A7F865F865F844F823F803F87B
:103C100002D0A3280509C408EC5AFFFFFFFF5DEF9F
:103C2000FFFFFFFFFFFFFFFFFFFFFBDE0519C400E3
:103C3000A741E6C003F886F8A7F887F886F8C7F822
:103C400029F98AF9ABF9ABF98BF96AF929F908F97D
:103C5000C7F8A6F886F865F864F823F802F006B10C
:103C60002529E400E41025192519149DFFFF5DEFB7
:103C7000FFFFFFFFFFFFFFFFFFFF96AD620082081F
:103C80003595BACE8BA244D025F887F8A7F8C7F8A7
:103C9000A7F887F886F886F886F887F8A7F8A7F8CF
:103CA000A6F885F865F864F824F064B80D93BBB6FF
:103CB000CF6383080411E4106621493A5DEF5DEF9C
:103CC000FFFFFFFFFFFFFFFFFFFFD3944200E41061
:103CD000BBCEFFFFBEE776B5CCAA07C145E045F8ED
:103CE00046F866F886F886F886F886F865F845F8A6
:103CF00065F865E844D043A8018882903CD7FFEF7F
:103D0000559583080411041105194619B3945DEF04
:103D1000FFFFFFFFFFFFFFFFFFFFB394410086217E
:103D20005DDFFFFFFFFFFFFFDFE77AC6D3B44EB3CF
:103D30002AC268D1E6E0A6E8A5E8A5E8E6D888C9E1
:103D400006A922A802A800A000C800D8F7E5FFE74E
:103D5000F8ADC410E4100411E41005118B4A5DEFB6
:103D6000FFFFFFFFFFFFFFFFFFFF55A54100A72952
:103D70005DDFFFF7FFFFFFFFFFFFFFFFFFFFFFEF2D
:103D80007DDFDBCE59CEF8CDD7CDF7C579CEFBBEE2
:103D9000ABA203F045F842D043E800F072D4FFDF55
:103DA00039AEE410E4100411E410051187295DEF29
:103DB000FFFFFFFFFFFFFFFFFFFF59CE83084621F4
:103DC0001CD7FFF7FFFFFFFFFFFFFFFFFFFFFFFF16
:103DD000FFFFFFFFFFFFFFFFFFFFFFFFFFFFFFEF03
:103DE0008BBA04F845F862E044F000F88EDBFFDFA0
:103DF000F8A5C410E410E4100411E41025195DEFD7
:103E0000FFFFFFFFFFFFFFFFFFFFBEF787298308CC
:103E100039B6FFF7DFF7FFFFFFFFFFFFFFFFFFFFF1
:103E2000FFFFFFFFFFFFFFFFFFFFFFFFFFFFBEE7FB
:103E30004ABA03F845F864F844F800F86EE3FFD78F
:103E4000F48C83080411E410E410E41005195DEF0C
:103E5000FFFFFFFFFFFFFFFFFFFFFFFFEF7300000C
:103E60007284FFEFBEEFDFFFFFFFFFFFFFFFFFFFEB
:103E7000FFFFFFFFFFFFFFFFFFFFFFFFFFFFDFE78A
:103E80008BBA03F845F845F823F800F8D3D4FFD7E8
:103E90004E5B2100293A55A58308C41025195DEF12
:103EA000FFFFFFFFFFFFFFFFFFFFFFFFFBDEA3089A
:103EB000E8319EDF9EE7BFEFFFFFFFFFFFFFFFFF41
:103EC000FFFFFFFFFFFFFFFFFFFFFFFFFFFFFFF70A
:103ED00051BC02E003F803F043E0ECC27ECFFCBE2D
:103EE00046212100D394FFFF5184000087295DEF14
:103EF000FFFFFFFFFFFFFFFFFFFFFFFFFFFF5184FB
:103F00000000F48CFFEF9EE7BFEFDFFFFFFFFFFF36
:103F1000FFFFFFFFFFFFFFFFFFFFFFFFFFFFFFFFB1
:103F20003DDF55BD52BC72BCB7B55DC7FFDFF06B5E
:103F30000000093ABFF7FFFFFFFF149D55A55DEF95
:103F4000FFFFFFFFFFFFFFFFFFFFFFFFFFFFFFFF81
:103F5000AC4AA408BBBEDFE77EE7BEEFDFF7DFFFBA
:103F6000FFFFFFFFFFFFFFFFFFFFFFFFFFFFDFFF81
:103F7000DFF7FFEFDFDFBFD79ED7DFDFD8A58308EE
:103F80002611DBD6FFFFFFFFFFFFFFFFFFFF5DEF07
:103F9000FFFFFFFFFFFFFFFFFFFFFFFFFFFF79EEC8
:103FA0008BDC2131A9213DCFBFDF7EDF9EE7BEEF55
:103FB000BFEFDFF7DFF7DFF7DFF7DFF7BFEFBEEFCA
:103FC0009EE77EDF5ED75ED7DFDF9AB6261942080E
:103FD000EDA3BFFFFFFFFFFFFFFFFFFFFFFF5DEF51
:103FE000FFFFFFFFFFFFFFFFFFFFFFFF74DDC0DBF1
:103FF00000FE42EE024289217BB6DFDF7ED77EDF04
:104000007EDF9EE79EE79EE79EE79EE77EDF7EDF00
:104010005DD75DD79EDFFFE7F8A50711E31802C55E
:1040200060FDE6D3DBEEFFFFFFFFFFFFFFFF5DEF6D
:10403000FFFFFFFFFFFFFFFFFFFF9EF784BAC1FCFA
:1040400042FE82FEA2FE8183452174745EC7DFDFDB
:104050007ED75ED75DD75ED75ED75DD75DD75ED79B
:104060009EDFFFE73DC7F1638408425226E629FF41
:1040700086FEE0F36AC3FFFFFFFFFFFFFFFF5DEF78
:10408000FFFFFFFFFFFFFFFFFFFF18DEC1D2A2FD12
:1040900022FE42FE42FE62FEE2D4416A494253746D
:1040A0003BA63EC7BFD7BFD7BFD7BFDFBFD73EC72F
:1040B0001AA6F263A729824122B462FE83FEAAFEF9
:1040C0000FFF67FD63BA3CEFFFFFFFFFFFFF5DEFF0
:1040D000FFFFFFFFFFFFFFFFFFFF9AE680D221FDFA
:1040E000C2FDE2F5C2F582F582FD62FD61DC219B35
:1040F000846AE96A2C63AF6311746E632C63895A16
:104100000452817AC2CBE2FC62FD82FDC2FDC2FD97
:10411000E4FD24FD62CA1CE7FFFFFFFFFFFF5DEF28
:10412000FFFFFFFFFFFFFFFFFFFFFFFFB1CC81D2CB
:10413000C0F3C1FC02FD02FDE2FCC2FCC2FC81FC3A
:1041400080FBC0C9A48135AD59CE719C218100DAB4
:10415000A1FB82FCA2FC82FCA2FC02FD22FDE2FC8F
:1041600000FC60DA90CCFFFFFFFFFFFFFFFF5DEF79
:10417000FFFFFFFFFFFFFFFFFFFFFFFFFFFF59DE16
:104180000DC406CBE4D203DB03DBE3DAC3D2A4C263
:1041900009B3D2BC9EF7FFFFFFFFFFFFFBE60EB4A3
:1041A000A6BA83D2E3E202EB22EB22E303DBE4D202
:1041B0006AC3B6D5FFFFFFFFFFFFFFFFFFFF000051
:1041C000E04100080000002024000000481B000817
:1041D000044200082400002004020000581B0008CC
:1041E00000000000000102030405060708090000A2
:1041F0000000010203040102030406070809020487
:0442000006080000AC
:0400000508000131BD
:00000001FF
