Component: ARM Compiler 5.05 update 1 (build 106) Tool: armlink [4d0efa]

==============================================================================

Section Cross References

    stm32f10x_it.o(.text) refers to stm32f10x_exti.o(.text) for EXTI_GetITStatus
    stm32f10x_it.o(.text) refers to stm32f10x_gpio.o(.text) for GPIO_ReadInputDataBit
    stm32f10x_it.o(.text) refers to stm32f10x_tim.o(.text) for TIM_GetCounter
    stm32f10x_it.o(.text) refers to stm32f10x_it.o(.data) for Ultrasonic_UP
    stm32f10x_it.o(.text) refers to ultrasonic.o(.data) for Ultrasonic_Time
    main.o(.text) refers to stm32f10x_usart.o(.text) for USART_SendData
    main.o(.text) refers to stm32f10x_rcc.o(.text) for RCC_APB1PeriphClockCmd
    main.o(.text) refers to stm32f10x_gpio.o(.text) for GPIO_Init
    main.o(.text) refers to stm32f10x_i2c.o(.text) for I2C_DeInit
    main.o(.text) refers to printfa.o(i.__0printf) for __2printf
    main.o(.text) refers to usart.o(.text) for Usart_Init
    main.o(.text) refers to bsp_i2c_gpio.o(.text) for bsp_InitI2C
    main.o(.text) refers to delay.o(.text) for delay_init
    main.o(.text) refers to delayl.o(.text) for delayl_init
    main.o(.text) refers to oled.o(.text) for OLED_Init
    main.o(.text) refers to f2d.o(.text) for __aeabi_f2d
    main.o(.text) refers to fmul.o(.text) for __aeabi_fmul
    main.o(.text) refers to cfrcmple.o(.text) for __aeabi_cfrcmple
==============================================================================

Removing Unused input sections from the image.

    Removing stm32f10x_adc.o(.text), (1102 bytes).
    Removing stm32f10x_bkp.o(.text), (196 bytes).
    Removing stm32f10x_can.o(.text), (2544 bytes).
    Removing stm32f10x_cec.o(.text), (288 bytes).
    Removing stm32f10x_crc.o(.text), (72 bytes).
    Removing stm32f10x_dac.o(.text), (396 bytes).
    Removing stm32f10x_dbgmcu.o(.text), (48 bytes).
    Removing stm32f10x_dma.o(.text), (596 bytes).
    Removing stm32f10x_flash.o(.text), (1468 bytes).
    Removing stm32f10x_fsmc.o(.text), (1548 bytes).
    Removing stm32f10x_iwdg.o(.text), (64 bytes).
    Removing stm32f10x_pwr.o(.text), (204 bytes).
    Removing stm32f10x_rtc.o(.text), (328 bytes).
    Removing stm32f10x_sdio.o(.text), (468 bytes).
    Removing stm32f10x_spi.o(.text), (780 bytes).
    Removing stm32f10x_wwdg.o(.text), (136 bytes).
    Removing core_cm3.o(.emb_text), (32 bytes).
    Removing startup_stm32f10x_hd.o(HEAP), (512 bytes).
==============================================================================

Image Symbol Table

    Local Symbols

    Symbol Name                              Value     Ov Type        Size  Object(Section)

    ../clib/microlib/division.c              0x00000000   Number         0  uldiv.o ABSOLUTE
    ../clib/microlib/division.c              0x00000000   Number         0  uidiv.o ABSOLUTE
    ../clib/microlib/errno.c                 0x00000000   Number         0  errno.o ABSOLUTE
    ../clib/microlib/init/entry.s            0x00000000   Number         0  entry7b.o ABSOLUTE
    ../clib/microlib/init/entry.s            0x00000000   Number         0  entry8b.o ABSOLUTE
    ../clib/microlib/init/entry.s            0x00000000   Number         0  entry5.o ABSOLUTE
    ../clib/microlib/init/entry.s            0x00000000   Number         0  entry8a.o ABSOLUTE
    ../clib/microlib/init/entry.s            0x00000000   Number         0  entry10a.o ABSOLUTE
    ../clib/microlib/init/entry.s            0x00000000   Number         0  entry9b.o ABSOLUTE
    ../clib/microlib/init/entry.s            0x00000000   Number         0  entry9a.o ABSOLUTE
    ../clib/microlib/init/entry.s            0x00000000   Number         0  entry7a.o ABSOLUTE
    ../clib/microlib/init/entry.s            0x00000000   Number         0  entry10b.o ABSOLUTE
    ../clib/microlib/init/entry.s            0x00000000   Number         0  entry11b.o ABSOLUTE
    ../clib/microlib/init/entry.s            0x00000000   Number         0  entry2.o ABSOLUTE
    ../clib/microlib/init/entry.s            0x00000000   Number         0  entry11a.o ABSOLUTE
    ../clib/microlib/init/entry.s            0x00000000   Number         0  entry.o ABSOLUTE
    ../clib/microlib/longlong.c              0x00000000   Number         0  llsshr.o ABSOLUTE
    ../clib/microlib/longlong.c              0x00000000   Number         0  llushr.o ABSOLUTE
    ../clib/microlib/longlong.c              0x00000000   Number         0  llshl.o ABSOLUTE
    ../clib/microlib/printf/printf.c         0x00000000   Number         0  printfb.o ABSOLUTE
    ../clib/microlib/printf/printf.c         0x00000000   Number         0  printf0.o ABSOLUTE
    ../clib/microlib/printf/printf.c         0x00000000   Number         0  printf8.o ABSOLUTE
    ../clib/microlib/printf/printf.c         0x00000000   Number         0  printfa.o ABSOLUTE
    ../clib/microlib/printf/printf.c         0x00000000   Number         0  printf2.o ABSOLUTE
    ../clib/microlib/printf/printf.c         0x00000000   Number         0  printf3.o ABSOLUTE
    ../clib/microlib/printf/printf.c         0x00000000   Number         0  printf4.o ABSOLUTE
    ../clib/microlib/printf/printf.c         0x00000000   Number         0  printf5.o ABSOLUTE
    ../clib/microlib/printf/printf.c         0x00000000   Number         0  printf7.o ABSOLUTE
    ../clib/microlib/printf/printf.c         0x00000000   Number         0  printf6.o ABSOLUTE
    ../clib/microlib/printf/printf.c         0x00000000   Number         0  printf1.o ABSOLUTE
    ../clib/microlib/printf/stubs.s          0x00000000   Number         0  stubs.o ABSOLUTE
    ../clib/microlib/stdio/streams.c         0x00000000   Number         0  stdout.o ABSOLUTE
    ../clib/microlib/stubs.s                 0x00000000   Number         0  iusefp.o ABSOLUTE
    ../fplib/microlib/d2f.c                  0x00000000   Number         0  d2f.o ABSOLUTE
    ../fplib/microlib/f2d.c                  0x00000000   Number         0  f2d.o ABSOLUTE
    ../fplib/microlib/fpadd.c                0x00000000   Number         0  fadd.o ABSOLUTE
    ../fplib/microlib/fpadd.c                0x00000000   Number         0  dadd.o ABSOLUTE
    ../fplib/microlib/fpdiv.c                0x00000000   Number         0  fdiv.o ABSOLUTE
    ../fplib/microlib/fpdiv.c                0x00000000   Number         0  ddiv.o ABSOLUTE
    ../fplib/microlib/fpepilogue.c           0x00000000   Number         0  fepilogue.o ABSOLUTE
    ../fplib/microlib/fpepilogue.c           0x00000000   Number         0  depilogue.o ABSOLUTE
    ../fplib/microlib/fpfix.c                0x00000000   Number         0  ffixui.o ABSOLUTE
    ../fplib/microlib/fpfix.c                0x00000000   Number         0  dfixul.o ABSOLUTE
    ../fplib/microlib/fpfix.c                0x00000000   Number         0  dfixi.o ABSOLUTE
    ../fplib/microlib/fpflt.c                0x00000000   Number         0  fflti.o ABSOLUTE
    ../fplib/microlib/fpflt.c                0x00000000   Number         0  dflti.o ABSOLUTE
    ../fplib/microlib/fpflt.c                0x00000000   Number         0  ffltui.o ABSOLUTE
    ../fplib/microlib/fpflt.c                0x00000000   Number         0  dfltui.o ABSOLUTE
    ../fplib/microlib/fpmul.c                0x00000000   Number         0  fmul.o ABSOLUTE
    ../fplib/microlib/fpmul.c                0x00000000   Number         0  dmul.o ABSOLUTE
    ../fplib/microlib/fpsqrt.c               0x00000000   Number         0  fsqrt.o ABSOLUTE
    ../mathlib/sqrtf.c                       0x00000000   Number         0  sqrtf_x.o ABSOLUTE
    ../mathlib/sqrtf.c                       0x00000000   Number         0  sqrtf.o ABSOLUTE
    ..\Drivers\OED\oled.c                    0x00000000   Number         0  oled.o ABSOLUTE
    ..\Drivers\Ultrasonic\ultrasonic.c       0x00000000   Number         0  ultrasonic.o ABSOLUTE
    ..\Drivers\Usart\USART.c                 0x00000000   Number         0  usart.o ABSOLUTE
    ..\Drivers\delayL\delayl.c               0x00000000   Number         0  delayl.o ABSOLUTE
    ..\Drivers\delay\delay.c                 0x00000000   Number         0  delay.o ABSOLUTE
    ..\Drivers\sys\sys.c                     0x00000000   Number         0  sys.o ABSOLUTE
    ..\Libraries\CMSIS\core_cm3.c            0x00000000   Number         0  core_cm3.o ABSOLUTE
    ..\Libraries\CMSIS\startup\startup_stm32f10x_hd.s 0x00000000   Number         0  startup_stm32f10x_hd.o ABSOLUTE
    ..\Libraries\CMSIS\system_stm32f10x.c    0x00000000   Number         0  system_stm32f10x.o ABSOLUTE
    ..\Libraries\FWlib\src\misc.c            0x00000000   Number         0  misc.o ABSOLUTE
    ..\Libraries\FWlib\src\stm32f10x_adc.c   0x00000000   Number         0  stm32f10x_adc.o ABSOLUTE
    ..\Libraries\FWlib\src\stm32f10x_bkp.c   0x00000000   Number         0  stm32f10x_bkp.o ABSOLUTE
    ..\Libraries\FWlib\src\stm32f10x_can.c   0x00000000   Number         0  stm32f10x_can.o ABSOLUTE
    ..\Libraries\FWlib\src\stm32f10x_cec.c   0x00000000   Number         0  stm32f10x_cec.o ABSOLUTE
    ..\Libraries\FWlib\src\stm32f10x_crc.c   0x00000000   Number         0  stm32f10x_crc.o ABSOLUTE
    ..\Libraries\FWlib\src\stm32f10x_dac.c   0x00000000   Number         0  stm32f10x_dac.o ABSOLUTE
    ..\Libraries\FWlib\src\stm32f10x_dbgmcu.c 0x00000000   Number         0  stm32f10x_dbgmcu.o ABSOLUTE
    ..\Libraries\FWlib\src\stm32f10x_dma.c   0x00000000   Number         0  stm32f10x_dma.o ABSOLUTE
    ..\Libraries\FWlib\src\stm32f10x_exti.c  0x00000000   Number         0  stm32f10x_exti.o ABSOLUTE
    ..\Libraries\FWlib\src\stm32f10x_flash.c 0x00000000   Number         0  stm32f10x_flash.o ABSOLUTE
    ..\Libraries\FWlib\src\stm32f10x_fsmc.c  0x00000000   Number         0  stm32f10x_fsmc.o ABSOLUTE
    ..\Libraries\FWlib\src\stm32f10x_gpio.c  0x00000000   Number         0  stm32f10x_gpio.o ABSOLUTE
    ..\Libraries\FWlib\src\stm32f10x_i2c.c   0x00000000   Number         0  stm32f10x_i2c.o ABSOLUTE
    ..\Libraries\FWlib\src\stm32f10x_iwdg.c  0x00000000   Number         0  stm32f10x_iwdg.o ABSOLUTE
    ..\Libraries\FWlib\src\stm32f10x_pwr.c   0x00000000   Number         0  stm32f10x_pwr.o ABSOLUTE
    ..\Libraries\FWlib\src\stm32f10x_rcc.c   0x00000000   Number         0  stm32f10x_rcc.o ABSOLUTE
    ..\Libraries\FWlib\src\stm32f10x_rtc.c   0x00000000   Number         0  stm32f10x_rtc.o ABSOLUTE
    ..\Libraries\FWlib\src\stm32f10x_sdio.c  0x00000000   Number         0  stm32f10x_sdio.o ABSOLUTE
    ..\Libraries\FWlib\src\stm32f10x_spi.c   0x00000000   Number         0  stm32f10x_spi.o ABSOLUTE
    ..\Libraries\FWlib\src\stm32f10x_tim.c   0x00000000   Number         0  stm32f10x_tim.o ABSOLUTE
    ..\Libraries\FWlib\src\stm32f10x_usart.c 0x00000000   Number         0  stm32f10x_usart.o ABSOLUTE
    ..\Libraries\FWlib\src\stm32f10x_wwdg.c  0x00000000   Number         0  stm32f10x_wwdg.o ABSOLUTE
    ..\USER\bsp_i2c_gpio.c                   0x00000000   Number         0  bsp_i2c_gpio.o ABSOLUTE
    ..\USER\main.c                           0x00000000   Number         0  main.o ABSOLUTE
    ..\USER\stm32f10x_it.c                   0x00000000   Number         0  stm32f10x_it.o ABSOLUTE
    ..\\Drivers\\sys\\sys.c                  0x00000000   Number         0  sys.o ABSOLUTE
    ..\\Libraries\\CMSIS\\core_cm3.c         0x00000000   Number         0  core_cm3.o ABSOLUTE
    cdcmple.s                                0x00000000   Number         0  cdcmple.o ABSOLUTE
    cdrcmple.s                               0x00000000   Number         0  cdrcmple.o ABSOLUTE
    cfcmple.s                                0x00000000   Number         0  cfcmple.o ABSOLUTE
    cfrcmple.s                               0x00000000   Number         0  cfrcmple.o ABSOLUTE
    dc.s                                     0x00000000   Number         0  dc.o ABSOLUTE
    handlers.s                               0x00000000   Number         0  handlers.o ABSOLUTE
    init.s                                   0x00000000   Number         0  init.o ABSOLUTE
    RESET                                    0x08000000   Section      304  startup_stm32f10x_hd.o(RESET)
    .ARM.Collect$$$$00000000                 0x08000130   Section        0  entry.o(.ARM.Collect$$$$00000000)
    .ARM.Collect$$$$00000001                 0x08000130   Section        4  entry2.o(.ARM.Collect$$$$00000001)
    .ARM.Collect$$$$00000004                 0x08000134   Section        4  entry5.o(.ARM.Collect$$$$00000004)
    .ARM.Collect$$$$00000008                 0x08000138   Section        0  entry7b.o(.ARM.Collect$$$$00000008)
    .ARM.Collect$$$$0000000A                 0x08000138   Section        0  entry8b.o(.ARM.Collect$$$$0000000A)
    .ARM.Collect$$$$0000000B                 0x08000138   Section        8  entry9a.o(.ARM.Collect$$$$0000000B)
    .ARM.Collect$$$$0000000D                 0x08000140   Section        0  entry10a.o(.ARM.Collect$$$$0000000D)
    .ARM.Collect$$$$0000000F                 0x08000140   Section        0  entry11a.o(.ARM.Collect$$$$0000000F)
    .ARM.Collect$$$$00002712                 0x08000140   Section        4  entry2.o(.ARM.Collect$$$$00002712)
    __lit__00000000                          0x08000140   Data           4  entry2.o(.ARM.Collect$$$$00002712)
    .text                                    0x08000144   Section        0  stm32f10x_it.o(.text)
    .text                                    0x08000210   Section        0  main.o(.text)
    i2c_Delay                                0x08000ffd   Thumb Code    14  main.o(.text)
    .text                                    0x080010e4   Section        0  bsp_i2c_gpio.o(.text)
    i2c_Delay                                0x080010e5   Thumb Code    14  bsp_i2c_gpio.o(.text)
    .text                                    0x080012fc   Section        0  misc.o(.text)
    .text                                    0x080013d8   Section        0  stm32f10x_exti.o(.text)
    .text                                    0x080014f4   Section        0  stm32f10x_gpio.o(.text)
    .text                                    0x08001850   Section        0  stm32f10x_i2c.o(.text)
    .text                                    0x08001c54   Section        0  stm32f10x_rcc.o(.text)
    .text                                    0x08001ff8   Section        0  stm32f10x_tim.o(.text)
    TI4_Config                               0x0800249f   Thumb Code   130  stm32f10x_tim.o(.text)
    TI3_Config                               0x08002533   Thumb Code   122  stm32f10x_tim.o(.text)
    TI2_Config                               0x080025c7   Thumb Code   130  stm32f10x_tim.o(.text)
    TI1_Config                               0x0800265b   Thumb Code   108  stm32f10x_tim.o(.text)
    .text                                    0x08002e14   Section        0  stm32f10x_usart.o(.text)
    .text                                    0x0800321c   Section        0  system_stm32f10x.o(.text)
    SetSysClockTo72                          0x0800321d   Thumb Code   214  system_stm32f10x.o(.text)
    SetSysClock                              0x080032f3   Thumb Code     8  system_stm32f10x.o(.text)
    .text                                    0x080033fc   Section       36  startup_stm32f10x_hd.o(.text)
    .text                                    0x08003420   Section        0  delay.o(.text)
    .text                                    0x080034d0   Section        0  usart.o(.text)
    .text                                    0x080035e0   Section        0  delayl.o(.text)
    .text                                    0x080036b4   Section        0  oled.o(.text)
    .text                                    0x08003b9a   Section        0  fadd.o(.text)
    .text                                    0x08003c4a   Section        0  fmul.o(.text)
    .text                                    0x08003cae   Section        0  fdiv.o(.text)
    .text                                    0x08003d2a   Section        0  dadd.o(.text)
    .text                                    0x08003e78   Section        0  dmul.o(.text)
    .text                                    0x08003f5c   Section        0  ddiv.o(.text)
    .text                                    0x0800403a   Section        0  fflti.o(.text)
    .text                                    0x0800404c   Section        0  ffltui.o(.text)
    .text                                    0x08004056   Section        0  dflti.o(.text)
    .text                                    0x08004078   Section        0  dfltui.o(.text)
    .text                                    0x08004092   Section        0  ffixui.o(.text)
    .text                                    0x080040ba   Section        0  dfixi.o(.text)
    .text                                    0x080040f8   Section        0  f2d.o(.text)
    .text                                    0x08004120   Section       48  cdcmple.o(.text)
    .text                                    0x08004150   Section       48  cdrcmple.o(.text)
    .text                                    0x08004180   Section        0  d2f.o(.text)
    .text                                    0x080041b8   Section       20  cfcmple.o(.text)
    .text                                    0x080041cc   Section       20  cfrcmple.o(.text)
    .text                                    0x080041e0   Section        0  uidiv.o(.text)
    .text                                    0x0800420c   Section        0  uldiv.o(.text)
    .text                                    0x0800426e   Section        0  llshl.o(.text)
    .text                                    0x0800428c   Section        0  llushr.o(.text)
    .text                                    0x080042ac   Section        0  llsshr.o(.text)
    .text                                    0x080042d0   Section        0  fepilogue.o(.text)
    .text                                    0x080042d0   Section        0  iusefp.o(.text)
    .text                                    0x0800433e   Section        0  fsqrt.o(.text)
    .text                                    0x0800439c   Section        0  depilogue.o(.text)
    .text                                    0x08004456   Section        0  dfixul.o(.text)
    .text                                    0x08004488   Section       36  init.o(.text)
    i.__0printf                              0x080044ac   Section        0  printfa.o(i.__0printf)
    i.__scatterload_copy                     0x080044cc   Section       14  handlers.o(i.__scatterload_copy)
    i.__scatterload_null                     0x080044da   Section        2  handlers.o(i.__scatterload_null)
    i.__scatterload_zeroinit                 0x080044dc   Section       14  handlers.o(i.__scatterload_zeroinit)
    i.__set_errno                            0x080044ec   Section        0  errno.o(i.__set_errno)
    i._fp_digits                             0x080044f8   Section        0  printfa.o(i._fp_digits)
    _fp_digits                               0x080044f9   Thumb Code   334  printfa.o(i._fp_digits)
    i._printf_core                           0x0800465c   Section        0  printfa.o(i._printf_core)
    _printf_core                             0x0800465d   Thumb Code  1744  printfa.o(i._printf_core)
    i._printf_post_padding                   0x08004d38   Section        0  printfa.o(i._printf_post_padding)
    _printf_post_padding                     0x08004d39   Thumb Code    36  printfa.o(i._printf_post_padding)
    i._printf_pre_padding                    0x08004d5c   Section        0  printfa.o(i._printf_pre_padding)
    _printf_pre_padding                      0x08004d5d   Thumb Code    46  printfa.o(i._printf_pre_padding)
    i.sqrtf                                  0x08004d8a   Section        0  sqrtf.o(i.sqrtf)
    .constdata                               0x08004db8   Section      808  main.o(.constdata)
    XSinTbl                                  0x08004db8   Data         808  main.o(.constdata)
    .constdata                               0x080050e0   Section     6080  oled.o(.constdata)
    .data                                    0x20000000   Section        1  stm32f10x_it.o(.data)
    .data                                    0x20000002   Section        2  main.o(.data)
    .data                                    0x20000004   Section       20  stm32f10x_rcc.o(.data)
    APBAHBPrescTable                         0x20000004   Data          16  stm32f10x_rcc.o(.data)
    ADCPrescTable                            0x20000014   Data           4  stm32f10x_rcc.o(.data)
    .data                                    0x20000018   Section       20  system_stm32f10x.o(.data)
    .data                                    0x2000002c   Section        4  delay.o(.data)
    fac_us                                   0x2000002c   Data           1  delay.o(.data)
    fac_ms                                   0x2000002e   Data           2  delay.o(.data)
    .data                                    0x20000030   Section        4  ultrasonic.o(.data)
    .data                                    0x20000034   Section        4  delayl.o(.data)
    fac_us                                   0x20000034   Data           1  delayl.o(.data)
    fac_ms                                   0x20000036   Data           2  delayl.o(.data)
    .data                                    0x20000038   Section        4  stdout.o(.data)
    .data                                    0x2000003c   Section        4  errno.o(.data)
    _errno                                   0x2000003c   Data           4  errno.o(.data)
    .bss                                     0x20000040   Section    16640  main.o(.bss)
    .bss                                     0x20004140   Section     1024  oled.o(.bss)
    STACK                                    0x20004540   Section     1024  startup_stm32f10x_hd.o(STACK)

    Global Symbols

    Symbol Name                              Value     Ov Type        Size  Object(Section)

    BuildAttributes$$THM_ISAv4$P$D$K$B$S$PE$A:L22UL41UL21$X:L11$S22US41US21$IEEE1$IW$USESV6$~STKCKD$USESV7$~SHL$OTIME$ROPI$IEEEJ$EBA8$MICROLIB$REQ8$PRES8$EABIv2 0x00000000   Number         0  anon$$obj.o ABSOLUTE
    __ARM_use_no_argv                        0x00000000   Number         0  main.o ABSOLUTE
    _printf_a                                0x00000000   Number         0  stubs.o ABSOLUTE
    _printf_c                                0x00000000   Number         0  stubs.o ABSOLUTE
    _printf_charcount                        0x00000000   Number         0  stubs.o ABSOLUTE
    _printf_d                                0x00000000   Number         0  stubs.o ABSOLUTE
    _printf_e                                0x00000000   Number         0  stubs.o ABSOLUTE
    _printf_f                                0x00000000   Number         0  stubs.o ABSOLUTE
    _printf_flags                            0x00000000   Number         0  stubs.o ABSOLUTE
    _printf_fp_dec                           0x00000000   Number         0  stubs.o ABSOLUTE
    _printf_fp_hex                           0x00000000   Number         0  stubs.o ABSOLUTE
    _printf_g                                0x00000000   Number         0  stubs.o ABSOLUTE
    _printf_i                                0x00000000   Number         0  stubs.o ABSOLUTE
    _printf_int_dec                          0x00000000   Number         0  stubs.o ABSOLUTE
    _printf_l                                0x00000000   Number         0  stubs.o ABSOLUTE
    _printf_lc                               0x00000000   Number         0  stubs.o ABSOLUTE
    _printf_ll                               0x00000000   Number         0  stubs.o ABSOLUTE
    _printf_lld                              0x00000000   Number         0  stubs.o ABSOLUTE
    _printf_lli                              0x00000000   Number         0  stubs.o ABSOLUTE
    _printf_llo                              0x00000000   Number         0  stubs.o ABSOLUTE
    _printf_llu                              0x00000000   Number         0  stubs.o ABSOLUTE
    _printf_llx                              0x00000000   Number         0  stubs.o ABSOLUTE
    _printf_longlong_dec                     0x00000000   Number         0  stubs.o ABSOLUTE
    _printf_longlong_hex                     0x00000000   Number         0  stubs.o ABSOLUTE
    _printf_longlong_oct                     0x00000000   Number         0  stubs.o ABSOLUTE
    _printf_ls                               0x00000000   Number         0  stubs.o ABSOLUTE
    _printf_mbtowc                           0x00000000   Number         0  stubs.o ABSOLUTE
    _printf_n                                0x00000000   Number         0  stubs.o ABSOLUTE
    _printf_o                                0x00000000   Number         0  stubs.o ABSOLUTE
    _printf_p                                0x00000000   Number         0  stubs.o ABSOLUTE
    _printf_percent                          0x00000000   Number         0  stubs.o ABSOLUTE
    _printf_pre_padding                      0x00000000   Number         0  stubs.o ABSOLUTE
    _printf_return_value                     0x00000000   Number         0  stubs.o ABSOLUTE
    _printf_s                                0x00000000   Number         0  stubs.o ABSOLUTE
    _printf_sizespec                         0x00000000   Number         0  stubs.o ABSOLUTE
    _printf_str                              0x00000000   Number         0  stubs.o ABSOLUTE
    _printf_truncate_signed                  0x00000000   Number         0  stubs.o ABSOLUTE
    _printf_truncate_unsigned                0x00000000   Number         0  stubs.o ABSOLUTE
    _printf_u                                0x00000000   Number         0  stubs.o ABSOLUTE
    _printf_wc                               0x00000000   Number         0  stubs.o ABSOLUTE
    _printf_wctomb                           0x00000000   Number         0  stubs.o ABSOLUTE
    _printf_widthprec                        0x00000000   Number         0  stubs.o ABSOLUTE
    _printf_x                                0x00000000   Number         0  stubs.o ABSOLUTE
    __cpp_initialize__aeabi_                  - Undefined Weak Reference
    __cxa_finalize                            - Undefined Weak Reference
    __decompress                              - Undefined Weak Reference
    _clock_init                               - Undefined Weak Reference
    _microlib_exit                            - Undefined Weak Reference
    __Vectors_Size                           0x00000130   Number         0  startup_stm32f10x_hd.o ABSOLUTE
    __Vectors                                0x08000000   Data           4  startup_stm32f10x_hd.o(RESET)
    __Vectors_End                            0x08000130   Data           0  startup_stm32f10x_hd.o(RESET)
    __main                                   0x08000131   Thumb Code     0  entry.o(.ARM.Collect$$$$00000000)
    _main_stk                                0x08000131   Thumb Code     0  entry2.o(.ARM.Collect$$$$00000001)
    _main_scatterload                        0x08000135   Thumb Code     0  entry5.o(.ARM.Collect$$$$00000004)
    __main_after_scatterload                 0x08000139   Thumb Code     0  entry5.o(.ARM.Collect$$$$00000004)
    _main_clock                              0x08000139   Thumb Code     0  entry7b.o(.ARM.Collect$$$$00000008)
    _main_cpp_init                           0x08000139   Thumb Code     0  entry8b.o(.ARM.Collect$$$$0000000A)
    _main_init                               0x08000139   Thumb Code     0  entry9a.o(.ARM.Collect$$$$0000000B)
    __rt_final_cpp                           0x08000141   Thumb Code     0  entry10a.o(.ARM.Collect$$$$0000000D)
    __rt_final_exit                          0x08000141   Thumb Code     0  entry11a.o(.ARM.Collect$$$$0000000F)
    NMI_Handler                              0x08000145   Thumb Code     2  stm32f10x_it.o(.text)
    HardFault_Handler                        0x08000147   Thumb Code     4  stm32f10x_it.o(.text)
    MemManage_Handler                        0x0800014b   Thumb Code     4  stm32f10x_it.o(.text)
    BusFault_Handler                         0x0800014f   Thumb Code     4  stm32f10x_it.o(.text)
    UsageFault_Handler                       0x08000153   Thumb Code     4  stm32f10x_it.o(.text)
    SVC_Handler                              0x08000157   Thumb Code     2  stm32f10x_it.o(.text)
    DebugMon_Handler                         0x08000159   Thumb Code     2  stm32f10x_it.o(.text)
    PendSV_Handler                           0x0800015b   Thumb Code     2  stm32f10x_it.o(.text)
    SysTick_Handler                          0x0800015d   Thumb Code     2  stm32f10x_it.o(.text)
    EXTI15_10_IRQHandler                     0x0800015f   Thumb Code   136  stm32f10x_it.o(.text)
    TIM5_IRQHandler                          0x080001e7   Thumb Code    22  stm32f10x_it.o(.text)
    fputc                                    0x08000211   Thumb Code    32  main.o(.text)
    I2C1_Configuration                       0x08000231   Thumb Code   124  main.o(.text)
    I2C2_Configuration                       0x080002ad   Thumb Code   126  main.o(.text)
    I2C1_GPIO_Config                         0x0800032b   Thumb Code    46  main.o(.text)
    I2C1_Mode_config                         0x08000359   Thumb Code    60  main.o(.text)
    I2C2_GPIO_Config                         0x08000395   Thumb Code    48  main.o(.text)
    I2C2_Mode_config                         0x080003c5   Thumb Code    58  main.o(.text)
    main_init                                0x080003ff   Thumb Code    18  main.o(.text)
    sp02_treated_fun                         0x08000411   Thumb Code   438  main.o(.text)
    find_max_num_index                       0x080005c7   Thumb Code   318  main.o(.text)
    EE                                       0x08000705   Thumb Code    76  main.o(.text)
    my_floor                                 0x08000751   Thumb Code    76  main.o(.text)
    my_fmod                                  0x0800079d   Thumb Code   152  main.o(.text)
    XSin                                     0x08000835   Thumb Code   488  main.o(.text)
    XCos                                     0x08000a1d   Thumb Code    30  main.o(.text)
    FFT                                      0x08000a3b   Thumb Code   386  main.o(.text)
    max10300_FIFO_Read                       0x08000bbd   Thumb Code   200  main.o(.text)
    max10300_Bus_Read                        0x08000c85   Thumb Code    80  main.o(.text)
    test_max30100_fun                        0x08000cd5   Thumb Code   608  main.o(.text)
    max10300_Bus_Write                       0x08000f35   Thumb Code    68  main.o(.text)
    max10300_init                            0x08000f79   Thumb Code    68  main.o(.text)
    main                                     0x08000fbd   Thumb Code    64  main.o(.text)
    qsqrt                                    0x0800100b   Thumb Code    50  main.o(.text)
    i2c_Stop                                 0x080010f3   Thumb Code    36  bsp_i2c_gpio.o(.text)
    bsp_InitI2C                              0x08001117   Thumb Code    64  bsp_i2c_gpio.o(.text)
    i2c_Start                                0x08001157   Thumb Code    46  bsp_i2c_gpio.o(.text)
    i2c_SendByte                             0x08001185   Thumb Code    88  bsp_i2c_gpio.o(.text)
    i2c_ReadByte                             0x080011dd   Thumb Code    66  bsp_i2c_gpio.o(.text)
    i2c_WaitAck                              0x0800121f   Thumb Code    64  bsp_i2c_gpio.o(.text)
    i2c_Ack                                  0x0800125f   Thumb Code    52  bsp_i2c_gpio.o(.text)
    i2c_NAck                                 0x08001293   Thumb Code    44  bsp_i2c_gpio.o(.text)
    i2c_CheckDevice                          0x080012bf   Thumb Code    56  bsp_i2c_gpio.o(.text)
    NVIC_PriorityGroupConfig                 0x080012fd   Thumb Code    10  misc.o(.text)
    NVIC_Init                                0x08001307   Thumb Code   100  misc.o(.text)
    NVIC_SetVectorTable                      0x0800136b   Thumb Code    14  misc.o(.text)
    NVIC_SystemLPConfig                      0x08001379   Thumb Code    34  misc.o(.text)
    SysTick_CLKSourceConfig                  0x0800139b   Thumb Code    40  misc.o(.text)
    EXTI_DeInit                              0x080013d9   Thumb Code    28  stm32f10x_exti.o(.text)
    EXTI_Init                                0x080013f5   Thumb Code   142  stm32f10x_exti.o(.text)
    EXTI_StructInit                          0x08001483   Thumb Code    16  stm32f10x_exti.o(.text)
    EXTI_GenerateSWInterrupt                 0x08001493   Thumb Code    16  stm32f10x_exti.o(.text)
    EXTI_GetFlagStatus                       0x080014a3   Thumb Code    22  stm32f10x_exti.o(.text)
    EXTI_ClearFlag                           0x080014b9   Thumb Code     8  stm32f10x_exti.o(.text)
    EXTI_GetITStatus                         0x080014c1   Thumb Code    34  stm32f10x_exti.o(.text)
    EXTI_ClearITPendingBit                   0x080014e3   Thumb Code     8  stm32f10x_exti.o(.text)
    GPIO_DeInit                              0x080014f5   Thumb Code   172  stm32f10x_gpio.o(.text)
    GPIO_AFIODeInit                          0x080015a1   Thumb Code    20  stm32f10x_gpio.o(.text)
    GPIO_Init                                0x080015b5   Thumb Code   278  stm32f10x_gpio.o(.text)
    GPIO_StructInit                          0x080016cb   Thumb Code    16  stm32f10x_gpio.o(.text)
    GPIO_ReadInputDataBit                    0x080016db   Thumb Code    18  stm32f10x_gpio.o(.text)
    GPIO_ReadInputData                       0x080016ed   Thumb Code     8  stm32f10x_gpio.o(.text)
    GPIO_ReadOutputDataBit                   0x080016f5   Thumb Code    18  stm32f10x_gpio.o(.text)
    GPIO_ReadOutputData                      0x08001707   Thumb Code     8  stm32f10x_gpio.o(.text)
    GPIO_SetBits                             0x0800170f   Thumb Code     4  stm32f10x_gpio.o(.text)
    GPIO_ResetBits                           0x08001713   Thumb Code     4  stm32f10x_gpio.o(.text)
    GPIO_WriteBit                            0x08001717   Thumb Code    10  stm32f10x_gpio.o(.text)
    GPIO_Write                               0x08001721   Thumb Code     4  stm32f10x_gpio.o(.text)
    GPIO_PinLockConfig                       0x08001725   Thumb Code    18  stm32f10x_gpio.o(.text)
    GPIO_EventOutputConfig                   0x08001737   Thumb Code    26  stm32f10x_gpio.o(.text)
    GPIO_EventOutputCmd                      0x08001751   Thumb Code     6  stm32f10x_gpio.o(.text)
    GPIO_PinRemapConfig                      0x08001757   Thumb Code   138  stm32f10x_gpio.o(.text)
    GPIO_EXTILineConfig                      0x080017e1   Thumb Code    66  stm32f10x_gpio.o(.text)
    GPIO_ETH_MediaInterfaceConfig            0x08001823   Thumb Code     8  stm32f10x_gpio.o(.text)
    I2C_DeInit                               0x08001851   Thumb Code    50  stm32f10x_i2c.o(.text)
    I2C_Init                                 0x08001883   Thumb Code   222  stm32f10x_i2c.o(.text)
    I2C_StructInit                           0x08001961   Thumb Code    30  stm32f10x_i2c.o(.text)
    I2C_Cmd                                  0x0800197f   Thumb Code    24  stm32f10x_i2c.o(.text)
    I2C_DMACmd                               0x08001997   Thumb Code    24  stm32f10x_i2c.o(.text)
    I2C_DMALastTransferCmd                   0x080019af   Thumb Code    24  stm32f10x_i2c.o(.text)
    I2C_GenerateSTART                        0x080019c7   Thumb Code    24  stm32f10x_i2c.o(.text)
    I2C_GenerateSTOP                         0x080019df   Thumb Code    24  stm32f10x_i2c.o(.text)
    I2C_AcknowledgeConfig                    0x080019f7   Thumb Code    24  stm32f10x_i2c.o(.text)
    I2C_OwnAddress2Config                    0x08001a0f   Thumb Code    22  stm32f10x_i2c.o(.text)
    I2C_DualAddressCmd                       0x08001a25   Thumb Code    24  stm32f10x_i2c.o(.text)
    I2C_GeneralCallCmd                       0x08001a3d   Thumb Code    24  stm32f10x_i2c.o(.text)
    I2C_ITConfig                             0x08001a55   Thumb Code    18  stm32f10x_i2c.o(.text)
    I2C_SendData                             0x08001a67   Thumb Code     4  stm32f10x_i2c.o(.text)
    I2C_ReceiveData                          0x08001a6b   Thumb Code     8  stm32f10x_i2c.o(.text)
    I2C_Send7bitAddress                      0x08001a73   Thumb Code    18  stm32f10x_i2c.o(.text)
    I2C_ReadRegister                         0x08001a85   Thumb Code    22  stm32f10x_i2c.o(.text)
    I2C_SoftwareResetCmd                     0x08001a9b   Thumb Code    22  stm32f10x_i2c.o(.text)
    I2C_NACKPositionConfig                   0x08001ab1   Thumb Code    28  stm32f10x_i2c.o(.text)
    I2C_SMBusAlertConfig                     0x08001acd   Thumb Code    28  stm32f10x_i2c.o(.text)
    I2C_TransmitPEC                          0x08001ae9   Thumb Code    24  stm32f10x_i2c.o(.text)
    I2C_PECPositionConfig                    0x08001b01   Thumb Code    28  stm32f10x_i2c.o(.text)
    I2C_CalculatePEC                         0x08001b1d   Thumb Code    24  stm32f10x_i2c.o(.text)
    I2C_GetPEC                               0x08001b35   Thumb Code     8  stm32f10x_i2c.o(.text)
    I2C_ARPCmd                               0x08001b3d   Thumb Code    24  stm32f10x_i2c.o(.text)
    I2C_StretchClockCmd                      0x08001b55   Thumb Code    24  stm32f10x_i2c.o(.text)
    I2C_FastModeDutyCycleConfig              0x08001b6d   Thumb Code    28  stm32f10x_i2c.o(.text)
    I2C_CheckEvent                           0x08001b89   Thumb Code    42  stm32f10x_i2c.o(.text)
    I2C_GetLastEvent                         0x08001bb3   Thumb Code    26  stm32f10x_i2c.o(.text)
    I2C_GetFlagStatus                        0x08001bcd   Thumb Code    58  stm32f10x_i2c.o(.text)
    I2C_ClearFlag                            0x08001c07   Thumb Code    12  stm32f10x_i2c.o(.text)
    I2C_GetITStatus                          0x08001c13   Thumb Code    54  stm32f10x_i2c.o(.text)
    I2C_ClearITPendingBit                    0x08001c49   Thumb Code    12  stm32f10x_i2c.o(.text)
    RCC_DeInit                               0x08001c55   Thumb Code    64  stm32f10x_rcc.o(.text)
    RCC_HSEConfig                            0x08001c95   Thumb Code    70  stm32f10x_rcc.o(.text)
    RCC_GetFlagStatus                        0x08001cdb   Thumb Code    56  stm32f10x_rcc.o(.text)
    RCC_WaitForHSEStartUp                    0x08001d13   Thumb Code    56  stm32f10x_rcc.o(.text)
    RCC_AdjustHSICalibrationValue            0x08001d4b   Thumb Code    20  stm32f10x_rcc.o(.text)
    RCC_HSICmd                               0x08001d5f   Thumb Code     6  stm32f10x_rcc.o(.text)
    RCC_PLLConfig                            0x08001d65   Thumb Code    24  stm32f10x_rcc.o(.text)
    RCC_PLLCmd                               0x08001d7d   Thumb Code     6  stm32f10x_rcc.o(.text)
    RCC_SYSCLKConfig                         0x08001d83   Thumb Code    18  stm32f10x_rcc.o(.text)
    RCC_GetSYSCLKSource                      0x08001d95   Thumb Code    10  stm32f10x_rcc.o(.text)
    RCC_HCLKConfig                           0x08001d9f   Thumb Code    18  stm32f10x_rcc.o(.text)
    RCC_PCLK1Config                          0x08001db1   Thumb Code    18  stm32f10x_rcc.o(.text)
    RCC_PCLK2Config                          0x08001dc3   Thumb Code    20  stm32f10x_rcc.o(.text)
    RCC_ITConfig                             0x08001dd7   Thumb Code    26  stm32f10x_rcc.o(.text)
    RCC_USBCLKConfig                         0x08001df1   Thumb Code     8  stm32f10x_rcc.o(.text)
    RCC_ADCCLKConfig                         0x08001df9   Thumb Code    18  stm32f10x_rcc.o(.text)
    RCC_LSEConfig                            0x08001e0b   Thumb Code    50  stm32f10x_rcc.o(.text)
    RCC_LSICmd                               0x08001e3d   Thumb Code     6  stm32f10x_rcc.o(.text)
    RCC_RTCCLKConfig                         0x08001e43   Thumb Code    12  stm32f10x_rcc.o(.text)
    RCC_RTCCLKCmd                            0x08001e4f   Thumb Code     8  stm32f10x_rcc.o(.text)
    RCC_GetClocksFreq                        0x08001e57   Thumb Code   192  stm32f10x_rcc.o(.text)
    RCC_AHBPeriphClockCmd                    0x08001f17   Thumb Code    26  stm32f10x_rcc.o(.text)
    RCC_APB2PeriphClockCmd                   0x08001f31   Thumb Code    26  stm32f10x_rcc.o(.text)
    RCC_APB1PeriphClockCmd                   0x08001f4b   Thumb Code    26  stm32f10x_rcc.o(.text)
    RCC_APB2PeriphResetCmd                   0x08001f65   Thumb Code    26  stm32f10x_rcc.o(.text)
    RCC_APB1PeriphResetCmd                   0x08001f7f   Thumb Code    26  stm32f10x_rcc.o(.text)
    RCC_BackupResetCmd                       0x08001f99   Thumb Code     8  stm32f10x_rcc.o(.text)
    RCC_ClockSecuritySystemCmd               0x08001fa1   Thumb Code     6  stm32f10x_rcc.o(.text)
    RCC_MCOConfig                            0x08001fa7   Thumb Code     6  stm32f10x_rcc.o(.text)
    RCC_ClearFlag                            0x08001fad   Thumb Code    14  stm32f10x_rcc.o(.text)
    RCC_GetITStatus                          0x08001fbb   Thumb Code    20  stm32f10x_rcc.o(.text)
    RCC_ClearITPendingBit                    0x08001fcf   Thumb Code     6  stm32f10x_rcc.o(.text)
    TIM_DeInit                               0x08001ff9   Thumb Code   424  stm32f10x_tim.o(.text)
    TIM_TimeBaseInit                         0x080021a1   Thumb Code   122  stm32f10x_tim.o(.text)
    TIM_OC1Init                              0x0800221b   Thumb Code   132  stm32f10x_tim.o(.text)
    TIM_OC2Init                              0x0800229f   Thumb Code   154  stm32f10x_tim.o(.text)
    TIM_OC3Init                              0x08002339   Thumb Code   150  stm32f10x_tim.o(.text)
    TIM_OC4Init                              0x080023cf   Thumb Code   182  stm32f10x_tim.o(.text)
    TIM_SetIC4Prescaler                      0x08002485   Thumb Code    26  stm32f10x_tim.o(.text)
    TIM_SetIC3Prescaler                      0x08002521   Thumb Code    18  stm32f10x_tim.o(.text)
    TIM_SetIC2Prescaler                      0x080025ad   Thumb Code    26  stm32f10x_tim.o(.text)
    TIM_SetIC1Prescaler                      0x08002649   Thumb Code    18  stm32f10x_tim.o(.text)
    TIM_ICInit                               0x080026c7   Thumb Code   150  stm32f10x_tim.o(.text)
    TIM_PWMIConfig                           0x0800275d   Thumb Code   124  stm32f10x_tim.o(.text)
    TIM_BDTRConfig                           0x080027d9   Thumb Code    32  stm32f10x_tim.o(.text)
    TIM_TimeBaseStructInit                   0x080027f9   Thumb Code    18  stm32f10x_tim.o(.text)
    TIM_OCStructInit                         0x0800280b   Thumb Code    20  stm32f10x_tim.o(.text)
    TIM_ICStructInit                         0x0800281f   Thumb Code    18  stm32f10x_tim.o(.text)
    TIM_BDTRStructInit                       0x08002831   Thumb Code    40  stm32f10x_tim.o(.text)
    TIM_Cmd                                  0x08002859   Thumb Code    24  stm32f10x_tim.o(.text)
    TIM_CtrlPWMOutputs                       0x08002871   Thumb Code    30  stm32f10x_tim.o(.text)
    TIM_ITConfig                             0x0800288f   Thumb Code    18  stm32f10x_tim.o(.text)
    TIM_GenerateEvent                        0x080028a1   Thumb Code     4  stm32f10x_tim.o(.text)
    TIM_DMAConfig                            0x080028a5   Thumb Code    10  stm32f10x_tim.o(.text)
    TIM_DMACmd                               0x080028af   Thumb Code    18  stm32f10x_tim.o(.text)
    TIM_InternalClockConfig                  0x080028c1   Thumb Code    12  stm32f10x_tim.o(.text)
    TIM_SelectInputTrigger                   0x080028cd   Thumb Code    18  stm32f10x_tim.o(.text)
    TIM_ITRxExternalClockConfig              0x080028df   Thumb Code    24  stm32f10x_tim.o(.text)
    TIM_TIxExternalClockConfig               0x080028f7   Thumb Code    62  stm32f10x_tim.o(.text)
    TIM_ETRConfig                            0x08002935   Thumb Code    28  stm32f10x_tim.o(.text)
    TIM_ETRClockMode1Config                  0x08002951   Thumb Code    54  stm32f10x_tim.o(.text)
    TIM_ETRClockMode2Config                  0x08002987   Thumb Code    32  stm32f10x_tim.o(.text)
    TIM_PrescalerConfig                      0x080029a7   Thumb Code     6  stm32f10x_tim.o(.text)
    TIM_CounterModeConfig                    0x080029ad   Thumb Code    18  stm32f10x_tim.o(.text)
    TIM_EncoderInterfaceConfig               0x080029bf   Thumb Code    66  stm32f10x_tim.o(.text)
    TIM_ForcedOC1Config                      0x08002a01   Thumb Code    18  stm32f10x_tim.o(.text)
    TIM_ForcedOC2Config                      0x08002a13   Thumb Code    26  stm32f10x_tim.o(.text)
    TIM_ForcedOC3Config                      0x08002a2d   Thumb Code    18  stm32f10x_tim.o(.text)
    TIM_ForcedOC4Config                      0x08002a3f   Thumb Code    26  stm32f10x_tim.o(.text)
    TIM_ARRPreloadConfig                     0x08002a59   Thumb Code    24  stm32f10x_tim.o(.text)
    TIM_SelectCOM                            0x08002a71   Thumb Code    24  stm32f10x_tim.o(.text)
    TIM_SelectCCDMA                          0x08002a89   Thumb Code    24  stm32f10x_tim.o(.text)
    TIM_CCPreloadControl                     0x08002aa1   Thumb Code    24  stm32f10x_tim.o(.text)
    TIM_OC1PreloadConfig                     0x08002ab9   Thumb Code    18  stm32f10x_tim.o(.text)
    TIM_OC2PreloadConfig                     0x08002acb   Thumb Code    26  stm32f10x_tim.o(.text)
    TIM_OC3PreloadConfig                     0x08002ae5   Thumb Code    18  stm32f10x_tim.o(.text)
    TIM_OC4PreloadConfig                     0x08002af7   Thumb Code    26  stm32f10x_tim.o(.text)
    TIM_OC1FastConfig                        0x08002b11   Thumb Code    18  stm32f10x_tim.o(.text)
    TIM_OC2FastConfig                        0x08002b23   Thumb Code    26  stm32f10x_tim.o(.text)
    TIM_OC3FastConfig                        0x08002b3d   Thumb Code    18  stm32f10x_tim.o(.text)
    TIM_OC4FastConfig                        0x08002b4f   Thumb Code    26  stm32f10x_tim.o(.text)
    TIM_ClearOC1Ref                          0x08002b69   Thumb Code    18  stm32f10x_tim.o(.text)
    TIM_ClearOC2Ref                          0x08002b7b   Thumb Code    24  stm32f10x_tim.o(.text)
    TIM_ClearOC3Ref                          0x08002b93   Thumb Code    18  stm32f10x_tim.o(.text)
    TIM_ClearOC4Ref                          0x08002ba5   Thumb Code    24  stm32f10x_tim.o(.text)
    TIM_OC1PolarityConfig                    0x08002bbd   Thumb Code    18  stm32f10x_tim.o(.text)
    TIM_OC1NPolarityConfig                   0x08002bcf   Thumb Code    18  stm32f10x_tim.o(.text)
    TIM_OC2PolarityConfig                    0x08002be1   Thumb Code    26  stm32f10x_tim.o(.text)
    TIM_OC2NPolarityConfig                   0x08002bfb   Thumb Code    26  stm32f10x_tim.o(.text)
    TIM_OC3PolarityConfig                    0x08002c15   Thumb Code    26  stm32f10x_tim.o(.text)
    TIM_OC3NPolarityConfig                   0x08002c2f   Thumb Code    26  stm32f10x_tim.o(.text)
    TIM_OC4PolarityConfig                    0x08002c49   Thumb Code    26  stm32f10x_tim.o(.text)
    TIM_CCxCmd                               0x08002c63   Thumb Code    30  stm32f10x_tim.o(.text)
    TIM_CCxNCmd                              0x08002c81   Thumb Code    30  stm32f10x_tim.o(.text)
    TIM_SelectOCxM                           0x08002c9f   Thumb Code    82  stm32f10x_tim.o(.text)
    TIM_UpdateDisableConfig                  0x08002cf1   Thumb Code    24  stm32f10x_tim.o(.text)
    TIM_UpdateRequestConfig                  0x08002d09   Thumb Code    24  stm32f10x_tim.o(.text)
    TIM_SelectHallSensor                     0x08002d21   Thumb Code    24  stm32f10x_tim.o(.text)
    TIM_SelectOnePulseMode                   0x08002d39   Thumb Code    18  stm32f10x_tim.o(.text)
    TIM_SelectOutputTrigger                  0x08002d4b   Thumb Code    18  stm32f10x_tim.o(.text)
    TIM_SelectSlaveMode                      0x08002d5d   Thumb Code    18  stm32f10x_tim.o(.text)
    TIM_SelectMasterSlaveMode                0x08002d6f   Thumb Code    18  stm32f10x_tim.o(.text)
    TIM_SetCounter                           0x08002d81   Thumb Code     4  stm32f10x_tim.o(.text)
    TIM_SetAutoreload                        0x08002d85   Thumb Code     4  stm32f10x_tim.o(.text)
    TIM_SetCompare1                          0x08002d89   Thumb Code     4  stm32f10x_tim.o(.text)
    TIM_SetCompare2                          0x08002d8d   Thumb Code     4  stm32f10x_tim.o(.text)
    TIM_SetCompare3                          0x08002d91   Thumb Code     4  stm32f10x_tim.o(.text)
    TIM_SetCompare4                          0x08002d95   Thumb Code     6  stm32f10x_tim.o(.text)
    TIM_SetClockDivision                     0x08002d9b   Thumb Code    18  stm32f10x_tim.o(.text)
    TIM_GetCapture1                          0x08002dad   Thumb Code     6  stm32f10x_tim.o(.text)
    TIM_GetCapture2                          0x08002db3   Thumb Code     6  stm32f10x_tim.o(.text)
    TIM_GetCapture3                          0x08002db9   Thumb Code     6  stm32f10x_tim.o(.text)
    TIM_GetCapture4                          0x08002dbf   Thumb Code     8  stm32f10x_tim.o(.text)
    TIM_GetCounter                           0x08002dc7   Thumb Code     6  stm32f10x_tim.o(.text)
    TIM_GetPrescaler                         0x08002dcd   Thumb Code     6  stm32f10x_tim.o(.text)
    TIM_GetFlagStatus                        0x08002dd3   Thumb Code    18  stm32f10x_tim.o(.text)
    TIM_ClearFlag                            0x08002de5   Thumb Code     6  stm32f10x_tim.o(.text)
    TIM_GetITStatus                          0x08002deb   Thumb Code    34  stm32f10x_tim.o(.text)
    TIM_ClearITPendingBit                    0x08002e0d   Thumb Code     6  stm32f10x_tim.o(.text)
    USART_DeInit                             0x08002e15   Thumb Code   134  stm32f10x_usart.o(.text)
    USART_Init                               0x08002e9b   Thumb Code   210  stm32f10x_usart.o(.text)
    USART_StructInit                         0x08002f6d   Thumb Code    24  stm32f10x_usart.o(.text)
    USART_ClockInit                          0x08002f85   Thumb Code    34  stm32f10x_usart.o(.text)
    USART_ClockStructInit                    0x08002fa7   Thumb Code    12  stm32f10x_usart.o(.text)
    USART_Cmd                                0x08002fb3   Thumb Code    24  stm32f10x_usart.o(.text)
    USART_ITConfig                           0x08002fcb   Thumb Code    74  stm32f10x_usart.o(.text)
    USART_DMACmd                             0x08003015   Thumb Code    18  stm32f10x_usart.o(.text)
    USART_SetAddress                         0x08003027   Thumb Code    18  stm32f10x_usart.o(.text)
    USART_WakeUpConfig                       0x08003039   Thumb Code    18  stm32f10x_usart.o(.text)
    USART_ReceiverWakeUpCmd                  0x0800304b   Thumb Code    24  stm32f10x_usart.o(.text)
    USART_LINBreakDetectLengthConfig         0x08003063   Thumb Code    18  stm32f10x_usart.o(.text)
    USART_LINCmd                             0x08003075   Thumb Code    24  stm32f10x_usart.o(.text)
    USART_SendData                           0x0800308d   Thumb Code     8  stm32f10x_usart.o(.text)
    USART_ReceiveData                        0x08003095   Thumb Code    10  stm32f10x_usart.o(.text)
    USART_SendBreak                          0x0800309f   Thumb Code    10  stm32f10x_usart.o(.text)
    USART_SetGuardTime                       0x080030a9   Thumb Code    16  stm32f10x_usart.o(.text)
    USART_SetPrescaler                       0x080030b9   Thumb Code    16  stm32f10x_usart.o(.text)
    USART_SmartCardCmd                       0x080030c9   Thumb Code    24  stm32f10x_usart.o(.text)
    USART_SmartCardNACKCmd                   0x080030e1   Thumb Code    24  stm32f10x_usart.o(.text)
    USART_HalfDuplexCmd                      0x080030f9   Thumb Code    24  stm32f10x_usart.o(.text)
    USART_OverSampling8Cmd                   0x08003111   Thumb Code    22  stm32f10x_usart.o(.text)
    USART_OneBitMethodCmd                    0x08003127   Thumb Code    24  stm32f10x_usart.o(.text)
    USART_IrDAConfig                         0x0800313f   Thumb Code    18  stm32f10x_usart.o(.text)
    USART_IrDACmd                            0x08003151   Thumb Code    24  stm32f10x_usart.o(.text)
    USART_GetFlagStatus                      0x08003169   Thumb Code    26  stm32f10x_usart.o(.text)
    USART_ClearFlag                          0x08003183   Thumb Code    18  stm32f10x_usart.o(.text)
    USART_GetITStatus                        0x08003195   Thumb Code    84  stm32f10x_usart.o(.text)
    USART_ClearITPendingBit                  0x080031e9   Thumb Code    52  stm32f10x_usart.o(.text)
    SystemInit                               0x080032fb   Thumb Code    78  system_stm32f10x.o(.text)
    SystemCoreClockUpdate                    0x08003349   Thumb Code   142  system_stm32f10x.o(.text)
    Reset_Handler                            0x080033fd   Thumb Code     8  startup_stm32f10x_hd.o(.text)
    ADC1_2_IRQHandler                        0x08003417   Thumb Code     0  startup_stm32f10x_hd.o(.text)
    ADC3_IRQHandler                          0x08003417   Thumb Code     0  startup_stm32f10x_hd.o(.text)
    CAN1_RX1_IRQHandler                      0x08003417   Thumb Code     0  startup_stm32f10x_hd.o(.text)
    CAN1_SCE_IRQHandler                      0x08003417   Thumb Code     0  startup_stm32f10x_hd.o(.text)
    DMA1_Channel1_IRQHandler                 0x08003417   Thumb Code     0  startup_stm32f10x_hd.o(.text)
    DMA1_Channel2_IRQHandler                 0x08003417   Thumb Code     0  startup_stm32f10x_hd.o(.text)
    DMA1_Channel3_IRQHandler                 0x08003417   Thumb Code     0  startup_stm32f10x_hd.o(.text)
    DMA1_Channel4_IRQHandler                 0x08003417   Thumb Code     0  startup_stm32f10x_hd.o(.text)
    DMA1_Channel5_IRQHandler                 0x08003417   Thumb Code     0  startup_stm32f10x_hd.o(.text)
    DMA1_Channel6_IRQHandler                 0x08003417   Thumb Code     0  startup_stm32f10x_hd.o(.text)
    DMA1_Channel7_IRQHandler                 0x08003417   Thumb Code     0  startup_stm32f10x_hd.o(.text)
    DMA2_Channel1_IRQHandler                 0x08003417   Thumb Code     0  startup_stm32f10x_hd.o(.text)
    DMA2_Channel2_IRQHandler                 0x08003417   Thumb Code     0  startup_stm32f10x_hd.o(.text)
    DMA2_Channel3_IRQHandler                 0x08003417   Thumb Code     0  startup_stm32f10x_hd.o(.text)
    DMA2_Channel4_5_IRQHandler               0x08003417   Thumb Code     0  startup_stm32f10x_hd.o(.text)
    EXTI0_IRQHandler                         0x08003417   Thumb Code     0  startup_stm32f10x_hd.o(.text)
    EXTI1_IRQHandler                         0x08003417   Thumb Code     0  startup_stm32f10x_hd.o(.text)
    EXTI2_IRQHandler                         0x08003417   Thumb Code     0  startup_stm32f10x_hd.o(.text)
    EXTI3_IRQHandler                         0x08003417   Thumb Code     0  startup_stm32f10x_hd.o(.text)
    EXTI4_IRQHandler                         0x08003417   Thumb Code     0  startup_stm32f10x_hd.o(.text)
    EXTI9_5_IRQHandler                       0x08003417   Thumb Code     0  startup_stm32f10x_hd.o(.text)
    FLASH_IRQHandler                         0x08003417   Thumb Code     0  startup_stm32f10x_hd.o(.text)
    FSMC_IRQHandler                          0x08003417   Thumb Code     0  startup_stm32f10x_hd.o(.text)
    I2C1_ER_IRQHandler                       0x08003417   Thumb Code     0  startup_stm32f10x_hd.o(.text)
    I2C1_EV_IRQHandler                       0x08003417   Thumb Code     0  startup_stm32f10x_hd.o(.text)
    I2C2_ER_IRQHandler                       0x08003417   Thumb Code     0  startup_stm32f10x_hd.o(.text)
    I2C2_EV_IRQHandler                       0x08003417   Thumb Code     0  startup_stm32f10x_hd.o(.text)
    PVD_IRQHandler                           0x08003417   Thumb Code     0  startup_stm32f10x_hd.o(.text)
    RCC_IRQHandler                           0x08003417   Thumb Code     0  startup_stm32f10x_hd.o(.text)
    RTCAlarm_IRQHandler                      0x08003417   Thumb Code     0  startup_stm32f10x_hd.o(.text)
    RTC_IRQHandler                           0x08003417   Thumb Code     0  startup_stm32f10x_hd.o(.text)
    SDIO_IRQHandler                          0x08003417   Thumb Code     0  startup_stm32f10x_hd.o(.text)
    SPI1_IRQHandler                          0x08003417   Thumb Code     0  startup_stm32f10x_hd.o(.text)
    SPI2_IRQHandler                          0x08003417   Thumb Code     0  startup_stm32f10x_hd.o(.text)
    SPI3_IRQHandler                          0x08003417   Thumb Code     0  startup_stm32f10x_hd.o(.text)
    TAMPER_IRQHandler                        0x08003417   Thumb Code     0  startup_stm32f10x_hd.o(.text)
    TIM1_BRK_IRQHandler                      0x08003417   Thumb Code     0  startup_stm32f10x_hd.o(.text)
    TIM1_CC_IRQHandler                       0x08003417   Thumb Code     0  startup_stm32f10x_hd.o(.text)
    TIM1_TRG_COM_IRQHandler                  0x08003417   Thumb Code     0  startup_stm32f10x_hd.o(.text)
    TIM1_UP_IRQHandler                       0x08003417   Thumb Code     0  startup_stm32f10x_hd.o(.text)
    TIM2_IRQHandler                          0x08003417   Thumb Code     0  startup_stm32f10x_hd.o(.text)
    TIM3_IRQHandler                          0x08003417   Thumb Code     0  startup_stm32f10x_hd.o(.text)
    TIM4_IRQHandler                          0x08003417   Thumb Code     0  startup_stm32f10x_hd.o(.text)
    TIM6_IRQHandler                          0x08003417   Thumb Code     0  startup_stm32f10x_hd.o(.text)
    TIM7_IRQHandler                          0x08003417   Thumb Code     0  startup_stm32f10x_hd.o(.text)
    TIM8_BRK_IRQHandler                      0x08003417   Thumb Code     0  startup_stm32f10x_hd.o(.text)
    TIM8_CC_IRQHandler                       0x08003417   Thumb Code     0  startup_stm32f10x_hd.o(.text)
    TIM8_TRG_COM_IRQHandler                  0x08003417   Thumb Code     0  startup_stm32f10x_hd.o(.text)
    TIM8_UP_IRQHandler                       0x08003417   Thumb Code     0  startup_stm32f10x_hd.o(.text)
    UART4_IRQHandler                         0x08003417   Thumb Code     0  startup_stm32f10x_hd.o(.text)
    UART5_IRQHandler                         0x08003417   Thumb Code     0  startup_stm32f10x_hd.o(.text)
    USART2_IRQHandler                        0x08003417   Thumb Code     0  startup_stm32f10x_hd.o(.text)
    USART3_IRQHandler                        0x08003417   Thumb Code     0  startup_stm32f10x_hd.o(.text)
    USBWakeUp_IRQHandler                     0x08003417   Thumb Code     0  startup_stm32f10x_hd.o(.text)
    USB_HP_CAN1_TX_IRQHandler                0x08003417   Thumb Code     0  startup_stm32f10x_hd.o(.text)
    USB_LP_CAN1_RX0_IRQHandler               0x08003417   Thumb Code     0  startup_stm32f10x_hd.o(.text)
    WWDG_IRQHandler                          0x08003417   Thumb Code     0  startup_stm32f10x_hd.o(.text)
    delay_init                               0x08003421   Thumb Code    56  delay.o(.text)
    delay_ms                                 0x08003459   Thumb Code    56  delay.o(.text)
    delay_us                                 0x08003491   Thumb Code    56  delay.o(.text)
    NVIC_ConfigurationUSART                  0x080034d1   Thumb Code    42  usart.o(.text)
    USART1_Configuration                     0x080034fb   Thumb Code   148  usart.o(.text)
    Usart_Init                               0x0800358f   Thumb Code    12  usart.o(.text)
    Usart1_PutChar                           0x0800359b   Thumb Code    34  usart.o(.text)
    USART1_IRQHandler                        0x080035bd   Thumb Code    26  usart.o(.text)
    delayl_init                              0x080035e1   Thumb Code    50  delayl.o(.text)
    delayl_us                                0x08003613   Thumb Code    72  delayl.o(.text)
    delayl_ms                                0x0800365b   Thumb Code    72  delayl.o(.text)
    OLED_WR_Byte                             0x080036b5   Thumb Code    66  oled.o(.text)
    OLED_Refresh_Gram                        0x080036f7   Thumb Code    70  oled.o(.text)
    OLED_Display_On                          0x0800373d   Thumb Code    28  oled.o(.text)
    OLED_Display_Off                         0x08003759   Thumb Code    28  oled.o(.text)
    OLED_Clear                               0x08003775   Thumb Code    42  oled.o(.text)
    OLED_DrawPoint                           0x0800379f   Thumb Code   100  oled.o(.text)
    OLED_Fill                                0x08003803   Thumb Code    58  oled.o(.text)
    OLED_ShowChar                            0x0800383d   Thumb Code   254  oled.o(.text)
    mypow                                    0x0800393b   Thumb Code    22  oled.o(.text)
    OLED_ShowNum                             0x08003951   Thumb Code   148  oled.o(.text)
    OLED_ShowString                          0x080039e5   Thumb Code    94  oled.o(.text)
    OLED_Init                                0x08003a43   Thumb Code   344  oled.o(.text)
    __aeabi_fadd                             0x08003b9b   Thumb Code   164  fadd.o(.text)
    __aeabi_fsub                             0x08003c3f   Thumb Code     6  fadd.o(.text)
    __aeabi_frsub                            0x08003c45   Thumb Code     6  fadd.o(.text)
    __aeabi_fmul                             0x08003c4b   Thumb Code   100  fmul.o(.text)
    __aeabi_fdiv                             0x08003caf   Thumb Code   124  fdiv.o(.text)
    __aeabi_dadd                             0x08003d2b   Thumb Code   322  dadd.o(.text)
    __aeabi_dsub                             0x08003e6d   Thumb Code     6  dadd.o(.text)
    __aeabi_drsub                            0x08003e73   Thumb Code     6  dadd.o(.text)
    __aeabi_dmul                             0x08003e79   Thumb Code   228  dmul.o(.text)
    __aeabi_ddiv                             0x08003f5d   Thumb Code   222  ddiv.o(.text)
    __aeabi_i2f                              0x0800403b   Thumb Code    18  fflti.o(.text)
    __aeabi_ui2f                             0x0800404d   Thumb Code    10  ffltui.o(.text)
    __aeabi_i2d                              0x08004057   Thumb Code    34  dflti.o(.text)
    __aeabi_ui2d                             0x08004079   Thumb Code    26  dfltui.o(.text)
    __aeabi_f2uiz                            0x08004093   Thumb Code    40  ffixui.o(.text)
    __aeabi_d2iz                             0x080040bb   Thumb Code    62  dfixi.o(.text)
    __aeabi_f2d                              0x080040f9   Thumb Code    38  f2d.o(.text)
    __aeabi_cdcmpeq                          0x08004121   Thumb Code     0  cdcmple.o(.text)
    __aeabi_cdcmple                          0x08004121   Thumb Code    48  cdcmple.o(.text)
    __aeabi_cdrcmple                         0x08004151   Thumb Code    48  cdrcmple.o(.text)
    __aeabi_d2f                              0x08004181   Thumb Code    56  d2f.o(.text)
    __aeabi_cfcmpeq                          0x080041b9   Thumb Code     0  cfcmple.o(.text)
    __aeabi_cfcmple                          0x080041b9   Thumb Code    20  cfcmple.o(.text)
    __aeabi_cfrcmple                         0x080041cd   Thumb Code    20  cfrcmple.o(.text)
    __aeabi_uidiv                            0x080041e1   Thumb Code     0  uidiv.o(.text)
    __aeabi_uidivmod                         0x080041e1   Thumb Code    44  uidiv.o(.text)
    __aeabi_uldivmod                         0x0800420d   Thumb Code    98  uldiv.o(.text)
    __aeabi_llsl                             0x0800426f   Thumb Code    30  llshl.o(.text)
    _ll_shift_l                              0x0800426f   Thumb Code     0  llshl.o(.text)
    __aeabi_llsr                             0x0800428d   Thumb Code    32  llushr.o(.text)
    _ll_ushift_r                             0x0800428d   Thumb Code     0  llushr.o(.text)
    __aeabi_lasr                             0x080042ad   Thumb Code    36  llsshr.o(.text)
    _ll_sshift_r                             0x080042ad   Thumb Code     0  llsshr.o(.text)
    __I$use$fp                               0x080042d1   Thumb Code     0  iusefp.o(.text)
    _float_round                             0x080042d1   Thumb Code    18  fepilogue.o(.text)
    _float_epilogue                          0x080042e3   Thumb Code    92  fepilogue.o(.text)
    _fsqrt                                   0x0800433f   Thumb Code    94  fsqrt.o(.text)
    _double_round                            0x0800439d   Thumb Code    30  depilogue.o(.text)
    _double_epilogue                         0x080043bb   Thumb Code   156  depilogue.o(.text)
    __aeabi_d2ulz                            0x08004457   Thumb Code    48  dfixul.o(.text)
    __scatterload                            0x08004489   Thumb Code    28  init.o(.text)
    __scatterload_rt2                        0x08004489   Thumb Code     0  init.o(.text)
    __0printf                                0x080044ad   Thumb Code    22  printfa.o(i.__0printf)
    __1printf                                0x080044ad   Thumb Code     0  printfa.o(i.__0printf)
    __2printf                                0x080044ad   Thumb Code     0  printfa.o(i.__0printf)
    __c89printf                              0x080044ad   Thumb Code     0  printfa.o(i.__0printf)
    printf                                   0x080044ad   Thumb Code     0  printfa.o(i.__0printf)
    __scatterload_copy                       0x080044cd   Thumb Code    14  handlers.o(i.__scatterload_copy)
    __scatterload_null                       0x080044db   Thumb Code     2  handlers.o(i.__scatterload_null)
    __scatterload_zeroinit                   0x080044dd   Thumb Code    14  handlers.o(i.__scatterload_zeroinit)
    __set_errno                              0x080044ed   Thumb Code     6  errno.o(i.__set_errno)
    sqrtf                                    0x08004d8b   Thumb Code    44  sqrtf.o(i.sqrtf)
    asc2_1206                                0x080050e0   Data        1140  oled.o(.constdata)
    asc2_1608                                0x08005554   Data        1520  oled.o(.constdata)
    asc2_2412                                0x08005b44   Data        3420  oled.o(.constdata)
    Region$$Table$$Base                      0x080068a0   Number         0  anon$$obj.o(Region$$Table)
    Region$$Table$$Limit                     0x080068c0   Number         0  anon$$obj.o(Region$$Table)
    Ultrasonic_UP                            0x20000000   Data           1  stm32f10x_it.o(.data)
    g_fft_index                              0x20000002   Data           2  main.o(.data)
    SystemCoreClock                          0x20000018   Data           4  system_stm32f10x.o(.data)
    AHBPrescTable                            0x2000001c   Data          16  system_stm32f10x.o(.data)
    Ultrasonic_Time                          0x20000030   Data           2  ultrasonic.o(.data)
    Ultrasonic_Number                        0x20000032   Data           2  ultrasonic.o(.data)
    __stdout                                 0x20000038   Data           4  stdout.o(.data)
    s1                                       0x20000040   Data        8320  main.o(.bss)
    s2                                       0x200020c0   Data        8320  main.o(.bss)
    OLED_GRAM                                0x20004140   Data        1024  oled.o(.bss)
    __initial_sp                             0x20004940   Data           0  startup_stm32f10x_hd.o(STACK)



==============================================================================

Memory Map of the image

  Image Entry point : 0x08000131

  Load Region LR_IROM1 (Base: 0x08000000, Size: 0x00006900, Max: 0x00020000, ABSOLUTE)

    Execution Region ER_IROM1 (Base: 0x08000000, Size: 0x000068c0, Max: 0x00020000, ABSOLUTE)

    Base Addr    Size         Type   Attr      Idx    E Section Name        Object

    0x08000000   0x00000130   Data   RO          479    RESET               startup_stm32f10x_hd.o
    0x08000130   0x00000000   Code   RO          595  * .ARM.Collect$$$$00000000  mc_w.l(entry.o)
    0x08000130   0x00000004   Code   RO          895    .ARM.Collect$$$$00000001  mc_w.l(entry2.o)
    0x08000134   0x00000004   Code   RO          898    .ARM.Collect$$$$00000004  mc_w.l(entry5.o)
    0x08000138   0x00000000   Code   RO          900    .ARM.Collect$$$$00000008  mc_w.l(entry7b.o)
    0x08000138   0x00000000   Code   RO          902    .ARM.Collect$$$$0000000A  mc_w.l(entry8b.o)
    0x08000138   0x00000008   Code   RO          903    .ARM.Collect$$$$0000000B  mc_w.l(entry9a.o)
    0x08000140   0x00000000   Code   RO          905    .ARM.Collect$$$$0000000D  mc_w.l(entry10a.o)
    0x08000140   0x00000000   Code   RO          907    .ARM.Collect$$$$0000000F  mc_w.l(entry11a.o)
    0x08000140   0x00000004   Code   RO          896    .ARM.Collect$$$$00002712  mc_w.l(entry2.o)
    0x08000144   0x000000cc   Code   RO            1    .text               stm32f10x_it.o
    0x08000210   0x00000ed4   Code   RO           73    .text               main.o
    0x080010e4   0x00000218   Code   RO          116    .text               bsp_i2c_gpio.o
    0x080012fc   0x000000dc   Code   RO          128    .text               misc.o
    0x080013d8   0x0000011c   Code   RO          260    .text               stm32f10x_exti.o
    0x080014f4   0x0000035c   Code   RO          299    .text               stm32f10x_gpio.o
    0x08001850   0x00000404   Code   RO          311    .text               stm32f10x_i2c.o
    0x08001c54   0x000003a4   Code   RO          353    .text               stm32f10x_rcc.o
    0x08001ff8   0x00000e1a   Code   RO          409    .text               stm32f10x_tim.o
    0x08002e12   0x00000002   PAD
    0x08002e14   0x00000408   Code   RO          421    .text               stm32f10x_usart.o
    0x0800321c   0x000001e0   Code   RO          459    .text               system_stm32f10x.o
    0x080033fc   0x00000024   Code   RO          480    .text               startup_stm32f10x_hd.o
    0x08003420   0x000000b0   Code   RO          484    .text               delay.o
    0x080034d0   0x00000110   Code   RO          498    .text               usart.o
    0x080035e0   0x000000d4   Code   RO          551    .text               delayl.o
    0x080036b4   0x000004e6   Code   RO          565    .text               oled.o
    0x08003b9a   0x000000b0   Code   RO          859    .text               mf_w.l(fadd.o)
    0x08003c4a   0x00000064   Code   RO          861    .text               mf_w.l(fmul.o)
    0x08003cae   0x0000007c   Code   RO          863    .text               mf_w.l(fdiv.o)
    0x08003d2a   0x0000014e   Code   RO          865    .text               mf_w.l(dadd.o)
    0x08003e78   0x000000e4   Code   RO          867    .text               mf_w.l(dmul.o)
    0x08003f5c   0x000000de   Code   RO          869    .text               mf_w.l(ddiv.o)
    0x0800403a   0x00000012   Code   RO          871    .text               mf_w.l(fflti.o)
    0x0800404c   0x0000000a   Code   RO          873    .text               mf_w.l(ffltui.o)
    0x08004056   0x00000022   Code   RO          875    .text               mf_w.l(dflti.o)
    0x08004078   0x0000001a   Code   RO          877    .text               mf_w.l(dfltui.o)
    0x08004092   0x00000028   Code   RO          879    .text               mf_w.l(ffixui.o)
    0x080040ba   0x0000003e   Code   RO          881    .text               mf_w.l(dfixi.o)
    0x080040f8   0x00000026   Code   RO          883    .text               mf_w.l(f2d.o)
    0x0800411e   0x00000002   PAD
    0x08004120   0x00000030   Code   RO          885    .text               mf_w.l(cdcmple.o)
    0x08004150   0x00000030   Code   RO          887    .text               mf_w.l(cdrcmple.o)
    0x08004180   0x00000038   Code   RO          889    .text               mf_w.l(d2f.o)
    0x080041b8   0x00000014   Code   RO          891    .text               mf_w.l(cfcmple.o)
    0x080041cc   0x00000014   Code   RO          893    .text               mf_w.l(cfrcmple.o)
    0x080041e0   0x0000002c   Code   RO          910    .text               mc_w.l(uidiv.o)
    0x0800420c   0x00000062   Code   RO          912    .text               mc_w.l(uldiv.o)
    0x0800426e   0x0000001e   Code   RO          914    .text               mc_w.l(llshl.o)
    0x0800428c   0x00000020   Code   RO          916    .text               mc_w.l(llushr.o)
    0x080042ac   0x00000024   Code   RO          918    .text               mc_w.l(llsshr.o)
    0x080042d0   0x00000000   Code   RO          927    .text               mc_w.l(iusefp.o)
    0x080042d0   0x0000006e   Code   RO          928    .text               mf_w.l(fepilogue.o)
    0x0800433e   0x0000005e   Code   RO          930    .text               mf_w.l(fsqrt.o)
    0x0800439c   0x000000ba   Code   RO          932    .text               mf_w.l(depilogue.o)
    0x08004456   0x00000030   Code   RO          934    .text               mf_w.l(dfixul.o)
    0x08004486   0x00000002   PAD
    0x08004488   0x00000024   Code   RO          936    .text               mc_w.l(init.o)
    0x080044ac   0x00000020   Code   RO          831    i.__0printf         mc_w.l(printfa.o)
    0x080044cc   0x0000000e   Code   RO          940    i.__scatterload_copy  mc_w.l(handlers.o)
    0x080044da   0x00000002   Code   RO          941    i.__scatterload_null  mc_w.l(handlers.o)
    0x080044dc   0x0000000e   Code   RO          942    i.__scatterload_zeroinit  mc_w.l(handlers.o)
    0x080044ea   0x00000002   PAD
    0x080044ec   0x0000000c   Code   RO          922    i.__set_errno       mc_w.l(errno.o)
    0x080044f8   0x00000164   Code   RO          838    i._fp_digits        mc_w.l(printfa.o)
    0x0800465c   0x000006dc   Code   RO          839    i._printf_core      mc_w.l(printfa.o)
    0x08004d38   0x00000024   Code   RO          840    i._printf_post_padding  mc_w.l(printfa.o)
    0x08004d5c   0x0000002e   Code   RO          841    i._printf_pre_padding  mc_w.l(printfa.o)
    0x08004d8a   0x0000002c   Code   RO          588    i.sqrtf             m_ws.l(sqrtf.o)
    0x08004db6   0x00000002   PAD
    0x08004db8   0x00000328   Data   RO           75    .constdata          main.o
    0x080050e0   0x000017c0   Data   RO          567    .constdata          oled.o
    0x080068a0   0x00000020   Data   RO          938    Region$$Table       anon$$obj.o


    Execution Region RW_IRAM1 (Base: 0x20000000, Size: 0x00004940, Max: 0x00005000, ABSOLUTE)

    Base Addr    Size         Type   Attr      Idx    E Section Name        Object

    0x20000000   0x00000001   Data   RW            2    .data               stm32f10x_it.o
    0x20000001   0x00000001   PAD
    0x20000002   0x00000002   Data   RW           76    .data               main.o
    0x20000004   0x00000014   Data   RW          354    .data               stm32f10x_rcc.o
    0x20000018   0x00000014   Data   RW          460    .data               system_stm32f10x.o
    0x2000002c   0x00000004   Data   RW          485    .data               delay.o
    0x20000030   0x00000004   Data   RW          518    .data               ultrasonic.o
    0x20000034   0x00000004   Data   RW          552    .data               delayl.o
    0x20000038   0x00000004   Data   RW          909    .data               mc_w.l(stdout.o)
    0x2000003c   0x00000004   Data   RW          923    .data               mc_w.l(errno.o)
    0x20000040   0x00004100   Zero   RW           74    .bss                main.o
    0x20004140   0x00000400   Zero   RW          566    .bss                oled.o
    0x20004540   0x00000400   Zero   RW          477    STACK               startup_stm32f10x_hd.o


==============================================================================

Image component sizes


      Code (inc. data)   RO Data    RW Data    ZI Data      Debug   Object Name

       536          6          0          0          0       2096   bsp_i2c_gpio.o
         0          0          0          0          0         32   core_cm3.o
       176          8          0          4          0       1075   delay.o
       212         18          0          4          0       1090   delayl.o
      3796        466        808          2      16640       8737   main.o
       220         22          0          0          0       1857   misc.o
      1254         36       6080          0       1024       5047   oled.o
        36          8        304          0       1024        856   startup_stm32f10x_hd.o
       284         10          0          0          0       2287   stm32f10x_exti.o
       860         38          0          0          0       5701   stm32f10x_gpio.o
      1028         16          0          0          0       9159   stm32f10x_i2c.o
       204         20          0          1          0     266359   stm32f10x_it.o
       932         36          0         20          0       8896   stm32f10x_rcc.o
      3610         88          0          0          0      22184   stm32f10x_tim.o
      1032         22          0          0          0       8424   stm32f10x_usart.o
       480         38          0         20          0       1931   system_stm32f10x.o
         0          0          0          4          0        332   ultrasonic.o
       272         10          0          0          0       1283   usart.o

    ----------------------------------------------------------------------
     14934        842       7224         56      18688     347346   Object Totals
         0          0         32          0          0          0   (incl. Generated)
         2          0          0          1          0          0   (incl. Padding)

    ----------------------------------------------------------------------

      Code (inc. data)   RO Data    RW Data    ZI Data      Debug   Library Member Name

        44          0          0          0          0         80   sqrtf.o
         0          0          0          0          0          0   entry.o
         0          0          0          0          0          0   entry10a.o
         0          0          0          0          0          0   entry11a.o
         8          4          0          0          0          0   entry2.o
         4          0          0          0          0          0   entry5.o
         0          0          0          0          0          0   entry7b.o
         0          0          0          0          0          0   entry8b.o
         8          4          0          0          0          0   entry9a.o
        12          6          0          4          0         68   errno.o
        30          0          0          0          0          0   handlers.o
        36          8          0          0          0         68   init.o
         0          0          0          0          0          0   iusefp.o
        30          0          0          0          0         68   llshl.o
        36          0          0          0          0         68   llsshr.o
        32          0          0          0          0         68   llushr.o
      2226         90          0          0          0        444   printfa.o
         0          0          0          4          0          0   stdout.o
        44          0          0          0          0         80   uidiv.o
        98          0          0          0          0         92   uldiv.o
        48          0          0          0          0         68   cdcmple.o
        48          0          0          0          0         68   cdrcmple.o
        20          0          0          0          0         68   cfcmple.o
        20          0          0          0          0         68   cfrcmple.o
        56          0          0          0          0         88   d2f.o
       334          0          0          0          0        148   dadd.o
       222          0          0          0          0        100   ddiv.o
       186          0          0          0          0        176   depilogue.o
        62          0          0          0          0         80   dfixi.o
        48          0          0          0          0         68   dfixul.o
        34          0          0          0          0         76   dflti.o
        26          0          0          0          0         76   dfltui.o
       228          0          0          0          0         96   dmul.o
        38          0          0          0          0         68   f2d.o
       176          0          0          0          0        140   fadd.o
       124          0          0          0          0         88   fdiv.o
       110          0          0          0          0        168   fepilogue.o
        40          0          0          0          0         68   ffixui.o
        18          0          0          0          0         68   fflti.o
        10          0          0          0          0         68   ffltui.o
       100          0          0          0          0         76   fmul.o
        94          0          0          0          0         96   fsqrt.o

    ----------------------------------------------------------------------
      4658        112          0          8          0       3056   Library Totals
         8          0          0          0          0          0   (incl. Padding)

    ----------------------------------------------------------------------

      Code (inc. data)   RO Data    RW Data    ZI Data      Debug   Library Name

        44          0          0          0          0         80   m_ws.l
      2564        112          0          8          0        956   mc_w.l
      2042          0          0          0          0       2020   mf_w.l

    ----------------------------------------------------------------------
      4658        112          0          8          0       3056   Library Totals

    ----------------------------------------------------------------------

==============================================================================


      Code (inc. data)   RO Data    RW Data    ZI Data      Debug   

     19592        954       7224         64      18688     347538   Grand Totals
     19592        954       7224         64      18688     347538   ELF Image Totals
     19592        954       7224         64          0          0   ROM Totals

==============================================================================

    Total RO  Size (Code + RO Data)                26816 (  26.19kB)
    Total RW  Size (RW Data + ZI Data)             18752 (  18.31kB)
    Total ROM Size (Code + RO Data + RW Data)      26880 (  26.25kB)

==============================================================================

