ARM Linker, 5.03 [Build 76] [MDK-ARM Standard]

==============================================================================

Section Cross References

    main.o(.text) refers to stm32f10x_rcc.o(.text) for RCC_DeInit
    main.o(.text) refers to stm32f10x_flash.o(.text) for FLASH_PrefetchBufferCmd
    main.o(.text) refers to stm32f10x_usart.o(.text) for USART_SendData
    main.o(.text) refers to usart.o(.text) for Usart_Init
    main.o(.text) refers to iosetup.o(.text) for GPIO_Configuration
    main.o(.text) refers to limit.o(.text) for Limit_Init
    main.o(.text) refers to stc15f104w.o(.text) for Coder_Init
    main.o(.text) refers to motos.o(.text) for Moto_init
    main.o(.text) refers to delay.o(.text) for delay_init
    main.o(.text) refers to ad1246.o(.text) for ADS1246_Init
    main.o(.text) refers to test.o(.text) for NoTest
    main.o(.text) refers to fflti.o(.text) for __aeabi_i2f
    main.o(.text) refers to f2d.o(.text) for __aeabi_f2d
    main.o(.text) refers to ddiv.o(.text) for __aeabi_ddiv
    main.o(.text) refers to d2f.o(.text) for __aeabi_d2f
    main.o(.text) refers to printfa.o(i.__0printf) for __2printf
    main.o(.text) refers to usartdata.o(.text) for CheckReceiveData
    main.o(.text) refers to usartdata.o(.bss) for Data
==============================================================================

Removing Unused input sections from the image.

    Removing stm32f10x_it.o(.data), (8 bytes).
    Removing stm32f10x_adc.o(.text), (1102 bytes).
    Removing stm32f10x_bkp.o(.text), (196 bytes).
    Removing stm32f10x_can.o(.text), (2212 bytes).
    Removing stm32f10x_cec.o(.text), (288 bytes).
    Removing stm32f10x_crc.o(.text), (72 bytes).
    Removing stm32f10x_dac.o(.text), (396 bytes).
    Removing stm32f10x_dbgmcu.o(.text), (48 bytes).
    Removing stm32f10x_dma.o(.text), (592 bytes).
    Removing stm32f10x_fsmc.o(.text), (1560 bytes).
    Removing stm32f10x_i2c.o(.text), (1000 bytes).
    Removing stm32f10x_iwdg.o(.text), (64 bytes).
    Removing stm32f10x_pwr.o(.text), (204 bytes).
    Removing stm32f10x_rtc.o(.text), (324 bytes).
    Removing stm32f10x_sdio.o(.text), (472 bytes).
    Removing stm32f10x_wwdg.o(.text), (136 bytes).
    Removing core_cm3.o(.emb_text), (32 bytes).
    Removing startup_stm32f10x_hd.o(HEAP), (512 bytes).
==============================================================================

Image Symbol Table

    Local Symbols

    Symbol Name                              Value     Ov Type        Size  Object(Section)

    ../clib/microlib/division.c              0x00000000   Number         0  uldiv.o ABSOLUTE
    ../clib/microlib/division.c              0x00000000   Number         0  uidiv.o ABSOLUTE
    ../clib/microlib/errno.c                 0x00000000   Number         0  errno.o ABSOLUTE
    ../clib/microlib/init/entry.s            0x00000000   Number         0  entry2.o ABSOLUTE
    ../clib/microlib/init/entry.s            0x00000000   Number         0  entry11a.o ABSOLUTE
    ../clib/microlib/init/entry.s            0x00000000   Number         0  entry.o ABSOLUTE
    ../clib/microlib/init/entry.s            0x00000000   Number         0  entry11b.o ABSOLUTE
    ../clib/microlib/init/entry.s            0x00000000   Number         0  entry5.o ABSOLUTE
    ../clib/microlib/init/entry.s            0x00000000   Number         0  entry7a.o ABSOLUTE
    ../clib/microlib/init/entry.s            0x00000000   Number         0  entry10b.o ABSOLUTE
    ../clib/microlib/init/entry.s            0x00000000   Number         0  entry7b.o ABSOLUTE
    ../clib/microlib/init/entry.s            0x00000000   Number         0  entry8a.o ABSOLUTE
    ../clib/microlib/init/entry.s            0x00000000   Number         0  entry8b.o ABSOLUTE
    ../clib/microlib/init/entry.s            0x00000000   Number         0  entry9a.o ABSOLUTE
    ../clib/microlib/init/entry.s            0x00000000   Number         0  entry9b.o ABSOLUTE
    ../clib/microlib/init/entry.s            0x00000000   Number         0  entry10a.o ABSOLUTE
    ../clib/microlib/longlong.c              0x00000000   Number         0  llushr.o ABSOLUTE
    ../clib/microlib/longlong.c              0x00000000   Number         0  llshl.o ABSOLUTE
    ../clib/microlib/longlong.c              0x00000000   Number         0  llsshr.o ABSOLUTE
    ../clib/microlib/printf/printf.c         0x00000000   Number         0  printf8.o ABSOLUTE
    ../clib/microlib/printf/printf.c         0x00000000   Number         0  printf2.o ABSOLUTE
    ../clib/microlib/printf/printf.c         0x00000000   Number         0  printfa.o ABSOLUTE
    ../clib/microlib/printf/printf.c         0x00000000   Number         0  printf5.o ABSOLUTE
    ../clib/microlib/printf/printf.c         0x00000000   Number         0  printf4.o ABSOLUTE
    ../clib/microlib/printf/printf.c         0x00000000   Number         0  printf7.o ABSOLUTE
    ../clib/microlib/printf/printf.c         0x00000000   Number         0  printfb.o ABSOLUTE
    ../clib/microlib/printf/printf.c         0x00000000   Number         0  printf0.o ABSOLUTE
    ../clib/microlib/printf/printf.c         0x00000000   Number         0  printf1.o ABSOLUTE
    ../clib/microlib/printf/printf.c         0x00000000   Number         0  printf3.o ABSOLUTE
    ../clib/microlib/printf/printf.c         0x00000000   Number         0  printf6.o ABSOLUTE
    ../clib/microlib/printf/stubs.s          0x00000000   Number         0  stubs.o ABSOLUTE
    ../clib/microlib/stdio/streams.c         0x00000000   Number         0  stdout.o ABSOLUTE
    ../clib/microlib/stubs.s                 0x00000000   Number         0  iusefp.o ABSOLUTE
    ../fplib/microlib/d2f.c                  0x00000000   Number         0  d2f.o ABSOLUTE
    ../fplib/microlib/f2d.c                  0x00000000   Number         0  f2d.o ABSOLUTE
    ../fplib/microlib/fpadd.c                0x00000000   Number         0  fadd.o ABSOLUTE
    ../fplib/microlib/fpadd.c                0x00000000   Number         0  dadd.o ABSOLUTE
    ../fplib/microlib/fpdiv.c                0x00000000   Number         0  ddiv.o ABSOLUTE
    ../fplib/microlib/fpdiv.c                0x00000000   Number         0  fdiv.o ABSOLUTE
    ../fplib/microlib/fpepilogue.c           0x00000000   Number         0  fepilogue.o ABSOLUTE
    ../fplib/microlib/fpepilogue.c           0x00000000   Number         0  depilogue.o ABSOLUTE
    ../fplib/microlib/fpfix.c                0x00000000   Number         0  dfixul.o ABSOLUTE
    ../fplib/microlib/fpfix.c                0x00000000   Number         0  dfixui.o ABSOLUTE
    ../fplib/microlib/fpfix.c                0x00000000   Number         0  ffixui.o ABSOLUTE
    ../fplib/microlib/fpfix.c                0x00000000   Number         0  ffixi.o ABSOLUTE
    ../fplib/microlib/fpflt.c                0x00000000   Number         0  dfltui.o ABSOLUTE
    ../fplib/microlib/fpflt.c                0x00000000   Number         0  ffltui.o ABSOLUTE
    ../fplib/microlib/fpflt.c                0x00000000   Number         0  fflti.o ABSOLUTE
    ../fplib/microlib/fpmul.c                0x00000000   Number         0  fmul.o ABSOLUTE
    ../fplib/microlib/fpmul.c                0x00000000   Number         0  dmul.o ABSOLUTE
    ../fplib/microlib/fpsqrt.c               0x00000000   Number         0  dsqrt.o ABSOLUTE
    ../mathlib/sqrt.c                        0x00000000   Number         0  sqrt.o ABSOLUTE
    ../mathlib/sqrt.c                        0x00000000   Number         0  sqrt_x.o ABSOLUTE
    ..\Libraries\CMSIS\CM3\CoreSupport\core_cm3.c 0x00000000   Number         0  core_cm3.o ABSOLUTE
    ..\Libraries\CMSIS\CM3\DeviceSupport\ST\STM32F10x\startup\arm\startup_stm32f10x_hd.s 0x00000000   Number         0  startup_stm32f10x_hd.o ABSOLUTE
    ..\Libraries\STM32F10x_StdPeriph_Driver\src\misc.c 0x00000000   Number         0  misc.o ABSOLUTE
    ..\Libraries\STM32F10x_StdPeriph_Driver\src\stm32f10x_adc.c 0x00000000   Number         0  stm32f10x_adc.o ABSOLUTE
    ..\Libraries\STM32F10x_StdPeriph_Driver\src\stm32f10x_bkp.c 0x00000000   Number         0  stm32f10x_bkp.o ABSOLUTE
    ..\Libraries\STM32F10x_StdPeriph_Driver\src\stm32f10x_can.c 0x00000000   Number         0  stm32f10x_can.o ABSOLUTE
    ..\Libraries\STM32F10x_StdPeriph_Driver\src\stm32f10x_cec.c 0x00000000   Number         0  stm32f10x_cec.o ABSOLUTE
    ..\Libraries\STM32F10x_StdPeriph_Driver\src\stm32f10x_crc.c 0x00000000   Number         0  stm32f10x_crc.o ABSOLUTE
    ..\Libraries\STM32F10x_StdPeriph_Driver\src\stm32f10x_dac.c 0x00000000   Number         0  stm32f10x_dac.o ABSOLUTE
    ..\Libraries\STM32F10x_StdPeriph_Driver\src\stm32f10x_dbgmcu.c 0x00000000   Number         0  stm32f10x_dbgmcu.o ABSOLUTE
    ..\Libraries\STM32F10x_StdPeriph_Driver\src\stm32f10x_dma.c 0x00000000   Number         0  stm32f10x_dma.o ABSOLUTE
    ..\Libraries\STM32F10x_StdPeriph_Driver\src\stm32f10x_exti.c 0x00000000   Number         0  stm32f10x_exti.o ABSOLUTE
    ..\Libraries\STM32F10x_StdPeriph_Driver\src\stm32f10x_flash.c 0x00000000   Number         0  stm32f10x_flash.o ABSOLUTE
    ..\Libraries\STM32F10x_StdPeriph_Driver\src\stm32f10x_fsmc.c 0x00000000   Number         0  stm32f10x_fsmc.o ABSOLUTE
    ..\Libraries\STM32F10x_StdPeriph_Driver\src\stm32f10x_gpio.c 0x00000000   Number         0  stm32f10x_gpio.o ABSOLUTE
    ..\Libraries\STM32F10x_StdPeriph_Driver\src\stm32f10x_i2c.c 0x00000000   Number         0  stm32f10x_i2c.o ABSOLUTE
    ..\Libraries\STM32F10x_StdPeriph_Driver\src\stm32f10x_iwdg.c 0x00000000   Number         0  stm32f10x_iwdg.o ABSOLUTE
    ..\Libraries\STM32F10x_StdPeriph_Driver\src\stm32f10x_pwr.c 0x00000000   Number         0  stm32f10x_pwr.o ABSOLUTE
    ..\Libraries\STM32F10x_StdPeriph_Driver\src\stm32f10x_rcc.c 0x00000000   Number         0  stm32f10x_rcc.o ABSOLUTE
    ..\Libraries\STM32F10x_StdPeriph_Driver\src\stm32f10x_rtc.c 0x00000000   Number         0  stm32f10x_rtc.o ABSOLUTE
    ..\Libraries\STM32F10x_StdPeriph_Driver\src\stm32f10x_sdio.c 0x00000000   Number         0  stm32f10x_sdio.o ABSOLUTE
    ..\Libraries\STM32F10x_StdPeriph_Driver\src\stm32f10x_spi.c 0x00000000   Number         0  stm32f10x_spi.o ABSOLUTE
    ..\Libraries\STM32F10x_StdPeriph_Driver\src\stm32f10x_tim.c 0x00000000   Number         0  stm32f10x_tim.o ABSOLUTE
    ..\Libraries\STM32F10x_StdPeriph_Driver\src\stm32f10x_usart.c 0x00000000   Number         0  stm32f10x_usart.o ABSOLUTE
    ..\Libraries\STM32F10x_StdPeriph_Driver\src\stm32f10x_wwdg.c 0x00000000   Number         0  stm32f10x_wwdg.o ABSOLUTE
    ..\USER\SetUp\IOSetUp.c                  0x00000000   Number         0  iosetup.o ABSOLUTE
    ..\USER\SetUp\Limit.c                    0x00000000   Number         0  limit.o ABSOLUTE
    ..\USER\SetUp\STC15F104W.c               0x00000000   Number         0  stc15f104w.o ABSOLUTE
    ..\USER\SetUp\Test.c                     0x00000000   Number         0  test.o ABSOLUTE
    ..\USER\SetUp\USART.c                    0x00000000   Number         0  usart.o ABSOLUTE
    ..\USER\SetUp\USARTData.c                0x00000000   Number         0  usartdata.o ABSOLUTE
    ..\USER\SetUp\motoS.c                    0x00000000   Number         0  motos.o ABSOLUTE
    ..\USER\ad1246.c                         0x00000000   Number         0  ad1246.o ABSOLUTE
    ..\USER\main.c                           0x00000000   Number         0  main.o ABSOLUTE
    ..\USER\spi.c                            0x00000000   Number         0  spi.o ABSOLUTE
    ..\USER\stm32f10x_it.c                   0x00000000   Number         0  stm32f10x_it.o ABSOLUTE
    ..\USER\system_stm32f10x.c               0x00000000   Number         0  system_stm32f10x.o ABSOLUTE
    ..\\Libraries\\CMSIS\\CM3\\CoreSupport\\core_cm3.c 0x00000000   Number         0  core_cm3.o ABSOLUTE
    ..\delay\delay.c                         0x00000000   Number         0  delay.o ABSOLUTE
    cdcmple.s                                0x00000000   Number         0  cdcmple.o ABSOLUTE
    cdrcmple.s                               0x00000000   Number         0  cdrcmple.o ABSOLUTE
    cfcmple.s                                0x00000000   Number         0  cfcmple.o ABSOLUTE
    cfrcmple.s                               0x00000000   Number         0  cfrcmple.o ABSOLUTE
    dc.s                                     0x00000000   Number         0  dc.o ABSOLUTE
    handlers.s                               0x00000000   Number         0  handlers.o ABSOLUTE
    init.s                                   0x00000000   Number         0  init.o ABSOLUTE
    RESET                                    0x08000000   Section      304  startup_stm32f10x_hd.o(RESET)
    .ARM.Collect$$$$00000000                 0x08000130   Section        0  entry.o(.ARM.Collect$$$$00000000)
    .ARM.Collect$$$$00000001                 0x08000130   Section        4  entry2.o(.ARM.Collect$$$$00000001)
    .ARM.Collect$$$$00000004                 0x08000134   Section        4  entry5.o(.ARM.Collect$$$$00000004)
    .ARM.Collect$$$$00000008                 0x08000138   Section        0  entry7b.o(.ARM.Collect$$$$00000008)
    .ARM.Collect$$$$0000000A                 0x08000138   Section        0  entry8b.o(.ARM.Collect$$$$0000000A)
    .ARM.Collect$$$$0000000B                 0x08000138   Section        8  entry9a.o(.ARM.Collect$$$$0000000B)
    .ARM.Collect$$$$0000000D                 0x08000140   Section        0  entry10a.o(.ARM.Collect$$$$0000000D)
    .ARM.Collect$$$$0000000F                 0x08000140   Section        0  entry11a.o(.ARM.Collect$$$$0000000F)
    .ARM.Collect$$$$00002712                 0x08000140   Section        4  entry2.o(.ARM.Collect$$$$00002712)
    __lit__00000000                          0x08000140   Data           4  entry2.o(.ARM.Collect$$$$00002712)
    .text                                    0x08000144   Section        0  main.o(.text)
    .text                                    0x080002c4   Section        0  stm32f10x_it.o(.text)
    .text                                    0x08000408   Section        0  iosetup.o(.text)
    .text                                    0x08000444   Section        0  misc.o(.text)
    .text                                    0x08000520   Section        0  stm32f10x_exti.o(.text)
    .text                                    0x0800063c   Section        0  stm32f10x_flash.o(.text)
    .text                                    0x08000bf8   Section        0  stm32f10x_gpio.o(.text)
    .text                                    0x08000f50   Section        0  stm32f10x_rcc.o(.text)
    .text                                    0x080012f4   Section        0  stm32f10x_spi.o(.text)
    .text                                    0x08001600   Section        0  stm32f10x_tim.o(.text)
    TI4_Config                               0x08001aa7   Thumb Code   130  stm32f10x_tim.o(.text)
    TI3_Config                               0x08001b3b   Thumb Code   122  stm32f10x_tim.o(.text)
    TI2_Config                               0x08001bcf   Thumb Code   130  stm32f10x_tim.o(.text)
    TI1_Config                               0x08001c63   Thumb Code   108  stm32f10x_tim.o(.text)
    .text                                    0x0800241c   Section        0  stm32f10x_usart.o(.text)
    .text                                    0x08002824   Section        0  system_stm32f10x.o(.text)
    SetSysClockTo72                          0x08002825   Thumb Code   212  system_stm32f10x.o(.text)
    SetSysClock                              0x080028f9   Thumb Code     8  system_stm32f10x.o(.text)
    .text                                    0x08002a00   Section       36  startup_stm32f10x_hd.o(.text)
    .text                                    0x08002a24   Section        0  delay.o(.text)
    .text                                    0x08002ad0   Section        0  ad1246.o(.text)
    ADS1246_GPIO_Init                        0x08002ad1   Thumb Code   148  ad1246.o(.text)
    .text                                    0x08002ff8   Section        0  spi.o(.text)
    .text                                    0x0800309c   Section        0  usart.o(.text)
    .text                                    0x08003538   Section        0  usartdata.o(.text)
    .text                                    0x08004730   Section        0  limit.o(.text)
    .text                                    0x0800484c   Section        0  stc15f104w.o(.text)
    .text                                    0x080048c8   Section        0  motos.o(.text)
    NVIC_PULSE_TIM_Configuration             0x080048c9   Thumb Code    42  motos.o(.text)
    NVIC_PULSE_CHANGE_TIM_Configuration      0x0800496d   Thumb Code    40  motos.o(.text)
    .text                                    0x0800512c   Section        0  test.o(.text)
    .text                                    0x08005556   Section        0  fadd.o(.text)
    .text                                    0x08005606   Section        0  fmul.o(.text)
    .text                                    0x08005672   Section        0  fdiv.o(.text)
    .text                                    0x080056f2   Section        0  dadd.o(.text)
    .text                                    0x08005840   Section        0  dmul.o(.text)
    .text                                    0x08005924   Section        0  ddiv.o(.text)
    .text                                    0x08005a02   Section        0  fflti.o(.text)
    .text                                    0x08005a14   Section        0  ffltui.o(.text)
    .text                                    0x08005a1e   Section        0  dfltui.o(.text)
    .text                                    0x08005a38   Section        0  ffixi.o(.text)
    .text                                    0x08005a6a   Section        0  ffixui.o(.text)
    .text                                    0x08005a92   Section        0  dfixui.o(.text)
    .text                                    0x08005ac4   Section        0  f2d.o(.text)
    .text                                    0x08005aea   Section        0  d2f.o(.text)
    .text                                    0x08005b24   Section       20  cfcmple.o(.text)
    .text                                    0x08005b38   Section       20  cfrcmple.o(.text)
    .text                                    0x08005b4c   Section        0  uidiv.o(.text)
    .text                                    0x08005b78   Section        0  uldiv.o(.text)
    .text                                    0x08005bda   Section        0  llshl.o(.text)
    .text                                    0x08005bf8   Section        0  llushr.o(.text)
    .text                                    0x08005c18   Section        0  llsshr.o(.text)
    .text                                    0x08005c3c   Section        0  fepilogue.o(.text)
    .text                                    0x08005c3c   Section        0  iusefp.o(.text)
    .text                                    0x08005ca8   Section        0  depilogue.o(.text)
    .text                                    0x08005d66   Section        0  dsqrt.o(.text)
    .text                                    0x08005e08   Section        0  dfixul.o(.text)
    .text                                    0x08005e38   Section       40  cdrcmple.o(.text)
    .text                                    0x08005e60   Section       36  init.o(.text)
    i.__0printf                              0x08005e84   Section        0  printfa.o(i.__0printf)
    i.__scatterload_copy                     0x08005ea4   Section       14  handlers.o(i.__scatterload_copy)
    i.__scatterload_null                     0x08005eb2   Section        2  handlers.o(i.__scatterload_null)
    i.__scatterload_zeroinit                 0x08005eb4   Section       14  handlers.o(i.__scatterload_zeroinit)
    i.__set_errno                            0x08005ec4   Section        0  errno.o(i.__set_errno)
    i._fp_digits                             0x08005ed0   Section        0  printfa.o(i._fp_digits)
    _fp_digits                               0x08005ed1   Thumb Code   326  printfa.o(i._fp_digits)
    i._printf_core                           0x0800602c   Section        0  printfa.o(i._printf_core)
    _printf_core                             0x0800602d   Thumb Code  1762  printfa.o(i._printf_core)
    i._printf_post_padding                   0x0800671c   Section        0  printfa.o(i._printf_post_padding)
    _printf_post_padding                     0x0800671d   Thumb Code    38  printfa.o(i._printf_post_padding)
    i._printf_pre_padding                    0x08006742   Section        0  printfa.o(i._printf_pre_padding)
    _printf_pre_padding                      0x08006743   Thumb Code    48  printfa.o(i._printf_pre_padding)
    i.sqrt                                   0x08006772   Section        0  sqrt.o(i.sqrt)
    .data                                    0x20000000   Section       20  stm32f10x_rcc.o(.data)
    APBAHBPrescTable                         0x20000000   Data          16  stm32f10x_rcc.o(.data)
    ADCPrescTable                            0x20000010   Data           4  stm32f10x_rcc.o(.data)
    .data                                    0x20000014   Section       20  system_stm32f10x.o(.data)
    .data                                    0x20000028   Section        4  delay.o(.data)
    fac_us                                   0x20000028   Data           1  delay.o(.data)
    fac_ms                                   0x2000002a   Data           2  delay.o(.data)
    .data                                    0x2000002c   Section        9  ad1246.o(.data)
    .data                                    0x20000035   Section       10  usart.o(.data)
    .data                                    0x2000003f   Section        6  usartdata.o(.data)
    .data                                    0x20000048   Section        8  stc15f104w.o(.data)
    .data                                    0x20000050   Section       16  motos.o(.data)
    .data                                    0x20000060   Section        4  stdout.o(.data)
    .data                                    0x20000064   Section        4  errno.o(.data)
    _errno                                   0x20000064   Data           4  errno.o(.data)
    .bss                                     0x20000068   Section      120  ad1246.o(.bss)
    .bss                                     0x200000e0   Section       39  usart.o(.bss)
    .bss                                     0x20000108   Section       24  usartdata.o(.bss)
    .bss                                     0x20000120   Section     1032  motos.o(.bss)
    .bss                                     0x20000528   Section       16  test.o(.bss)
    STACK                                    0x20000538   Section     1024  startup_stm32f10x_hd.o(STACK)

    Global Symbols

    Symbol Name                              Value     Ov Type        Size  Object(Section)

    BuildAttributes$$THM_ISAv4$P$D$K$B$S$PE$A:L22UL41UL21$X:L11$S22US41US21$IEEE1$IW$USESV6$~STKCKD$USESV7$~SHL$OTIME$ROPI$IEEEJ$EBA8$MICROLIB$REQ8$PRES8$EABIv2 0x00000000   Number         0  anon$$obj.o ABSOLUTE
    __ARM_use_no_argv                        0x00000000   Number         0  main.o ABSOLUTE
    _printf_a                                0x00000000   Number         0  stubs.o ABSOLUTE
    _printf_c                                0x00000000   Number         0  stubs.o ABSOLUTE
    _printf_charcount                        0x00000000   Number         0  stubs.o ABSOLUTE
    _printf_d                                0x00000000   Number         0  stubs.o ABSOLUTE
    _printf_e                                0x00000000   Number         0  stubs.o ABSOLUTE
    _printf_f                                0x00000000   Number         0  stubs.o ABSOLUTE
    _printf_flags                            0x00000000   Number         0  stubs.o ABSOLUTE
    _printf_fp_dec                           0x00000000   Number         0  stubs.o ABSOLUTE
    _printf_fp_hex                           0x00000000   Number         0  stubs.o ABSOLUTE
    _printf_g                                0x00000000   Number         0  stubs.o ABSOLUTE
    _printf_i                                0x00000000   Number         0  stubs.o ABSOLUTE
    _printf_int_dec                          0x00000000   Number         0  stubs.o ABSOLUTE
    _printf_l                                0x00000000   Number         0  stubs.o ABSOLUTE
    _printf_lc                               0x00000000   Number         0  stubs.o ABSOLUTE
    _printf_ll                               0x00000000   Number         0  stubs.o ABSOLUTE
    _printf_lld                              0x00000000   Number         0  stubs.o ABSOLUTE
    _printf_lli                              0x00000000   Number         0  stubs.o ABSOLUTE
    _printf_llo                              0x00000000   Number         0  stubs.o ABSOLUTE
    _printf_llu                              0x00000000   Number         0  stubs.o ABSOLUTE
    _printf_llx                              0x00000000   Number         0  stubs.o ABSOLUTE
    _printf_longlong_dec                     0x00000000   Number         0  stubs.o ABSOLUTE
    _printf_longlong_hex                     0x00000000   Number         0  stubs.o ABSOLUTE
    _printf_longlong_oct                     0x00000000   Number         0  stubs.o ABSOLUTE
    _printf_ls                               0x00000000   Number         0  stubs.o ABSOLUTE
    _printf_mbtowc                           0x00000000   Number         0  stubs.o ABSOLUTE
    _printf_n                                0x00000000   Number         0  stubs.o ABSOLUTE
    _printf_o                                0x00000000   Number         0  stubs.o ABSOLUTE
    _printf_p                                0x00000000   Number         0  stubs.o ABSOLUTE
    _printf_percent                          0x00000000   Number         0  stubs.o ABSOLUTE
    _printf_pre_padding                      0x00000000   Number         0  stubs.o ABSOLUTE
    _printf_return_value                     0x00000000   Number         0  stubs.o ABSOLUTE
    _printf_s                                0x00000000   Number         0  stubs.o ABSOLUTE
    _printf_sizespec                         0x00000000   Number         0  stubs.o ABSOLUTE
    _printf_str                              0x00000000   Number         0  stubs.o ABSOLUTE
    _printf_truncate_signed                  0x00000000   Number         0  stubs.o ABSOLUTE
    _printf_truncate_unsigned                0x00000000   Number         0  stubs.o ABSOLUTE
    _printf_u                                0x00000000   Number         0  stubs.o ABSOLUTE
    _printf_wc                               0x00000000   Number         0  stubs.o ABSOLUTE
    _printf_wctomb                           0x00000000   Number         0  stubs.o ABSOLUTE
    _printf_widthprec                        0x00000000   Number         0  stubs.o ABSOLUTE
    _printf_x                                0x00000000   Number         0  stubs.o ABSOLUTE
    __cpp_initialize__aeabi_                  - Undefined Weak Reference
    __cxa_finalize                            - Undefined Weak Reference
    __decompress                              - Undefined Weak Reference
    _clock_init                               - Undefined Weak Reference
    _microlib_exit                            - Undefined Weak Reference
    __Vectors_Size                           0x00000130   Number         0  startup_stm32f10x_hd.o ABSOLUTE
    __Vectors                                0x08000000   Data           4  startup_stm32f10x_hd.o(RESET)
    __Vectors_End                            0x08000130   Data           0  startup_stm32f10x_hd.o(RESET)
    __main                                   0x08000131   Thumb Code     0  entry.o(.ARM.Collect$$$$00000000)
    _main_stk                                0x08000131   Thumb Code     0  entry2.o(.ARM.Collect$$$$00000001)
    _main_scatterload                        0x08000135   Thumb Code     0  entry5.o(.ARM.Collect$$$$00000004)
    __main_after_scatterload                 0x08000139   Thumb Code     0  entry5.o(.ARM.Collect$$$$00000004)
    _main_clock                              0x08000139   Thumb Code     0  entry7b.o(.ARM.Collect$$$$00000008)
    _main_cpp_init                           0x08000139   Thumb Code     0  entry8b.o(.ARM.Collect$$$$0000000A)
    _main_init                               0x08000139   Thumb Code     0  entry9a.o(.ARM.Collect$$$$0000000B)
    __rt_final_cpp                           0x08000141   Thumb Code     0  entry10a.o(.ARM.Collect$$$$0000000D)
    __rt_final_exit                          0x08000141   Thumb Code     0  entry11a.o(.ARM.Collect$$$$0000000F)
    RCC_Configuration                        0x08000145   Thumb Code   108  main.o(.text)
    fputc                                    0x080001b1   Thumb Code    30  main.o(.text)
    GetKey                                   0x080001cf   Thumb Code    24  main.o(.text)
    main_init                                0x080001e7   Thumb Code    34  main.o(.text)
    main                                     0x08000209   Thumb Code   130  main.o(.text)
    NMI_Handler                              0x080002c5   Thumb Code     2  stm32f10x_it.o(.text)
    HardFault_Handler                        0x080002c7   Thumb Code     4  stm32f10x_it.o(.text)
    MemManage_Handler                        0x080002cb   Thumb Code     4  stm32f10x_it.o(.text)
    BusFault_Handler                         0x080002cf   Thumb Code     4  stm32f10x_it.o(.text)
    UsageFault_Handler                       0x080002d3   Thumb Code     4  stm32f10x_it.o(.text)
    SVC_Handler                              0x080002d7   Thumb Code     2  stm32f10x_it.o(.text)
    DebugMon_Handler                         0x080002d9   Thumb Code     2  stm32f10x_it.o(.text)
    PendSV_Handler                           0x080002db   Thumb Code     2  stm32f10x_it.o(.text)
    SysTick_Handler                          0x080002dd   Thumb Code     2  stm32f10x_it.o(.text)
    EXTI0_IRQHandler                         0x080002df   Thumb Code    28  stm32f10x_it.o(.text)
    EXTI1_IRQHandler                         0x080002fb   Thumb Code    24  stm32f10x_it.o(.text)
    EXTI4_IRQHandler                         0x08000313   Thumb Code    24  stm32f10x_it.o(.text)
    EXTI9_5_IRQHandler                       0x0800032b   Thumb Code   150  stm32f10x_it.o(.text)
    TIM3_IRQHandler                          0x080003c1   Thumb Code    26  stm32f10x_it.o(.text)
    TIM4_IRQHandler                          0x080003db   Thumb Code    26  stm32f10x_it.o(.text)
    GPIO_Configuration                       0x08000409   Thumb Code    54  iosetup.o(.text)
    NVIC_PriorityGroupConfig                 0x08000445   Thumb Code    10  misc.o(.text)
    NVIC_Init                                0x0800044f   Thumb Code   102  misc.o(.text)
    NVIC_SetVectorTable                      0x080004b5   Thumb Code    14  misc.o(.text)
    NVIC_SystemLPConfig                      0x080004c3   Thumb Code    34  misc.o(.text)
    SysTick_CLKSourceConfig                  0x080004e5   Thumb Code    40  misc.o(.text)
    EXTI_DeInit                              0x08000521   Thumb Code    28  stm32f10x_exti.o(.text)
    EXTI_Init                                0x0800053d   Thumb Code   142  stm32f10x_exti.o(.text)
    EXTI_StructInit                          0x080005cb   Thumb Code    16  stm32f10x_exti.o(.text)
    EXTI_GenerateSWInterrupt                 0x080005db   Thumb Code    16  stm32f10x_exti.o(.text)
    EXTI_GetFlagStatus                       0x080005eb   Thumb Code    22  stm32f10x_exti.o(.text)
    EXTI_ClearFlag                           0x08000601   Thumb Code     8  stm32f10x_exti.o(.text)
    EXTI_GetITStatus                         0x08000609   Thumb Code    34  stm32f10x_exti.o(.text)
    EXTI_ClearITPendingBit                   0x0800062b   Thumb Code     8  stm32f10x_exti.o(.text)
    FLASH_SetLatency                         0x0800063d   Thumb Code    18  stm32f10x_flash.o(.text)
    FLASH_HalfCycleAccessCmd                 0x0800064f   Thumb Code    22  stm32f10x_flash.o(.text)
    FLASH_PrefetchBufferCmd                  0x08000665   Thumb Code    22  stm32f10x_flash.o(.text)
    FLASH_Unlock                             0x0800067b   Thumb Code    12  stm32f10x_flash.o(.text)
    FLASH_UnlockBank1                        0x08000687   Thumb Code    12  stm32f10x_flash.o(.text)
    FLASH_Lock                               0x08000693   Thumb Code    14  stm32f10x_flash.o(.text)
    FLASH_LockBank1                          0x080006a1   Thumb Code    14  stm32f10x_flash.o(.text)
    FLASH_GetBank1Status                     0x080006af   Thumb Code    48  stm32f10x_flash.o(.text)
    FLASH_WaitForLastOperation               0x080006df   Thumb Code    38  stm32f10x_flash.o(.text)
    FLASH_ErasePage                          0x08000705   Thumb Code    72  stm32f10x_flash.o(.text)
    FLASH_EraseAllPages                      0x0800074d   Thumb Code    68  stm32f10x_flash.o(.text)
    FLASH_WaitForLastBank1Operation          0x08000791   Thumb Code    38  stm32f10x_flash.o(.text)
    FLASH_EraseAllBank1Pages                 0x080007b7   Thumb Code    68  stm32f10x_flash.o(.text)
    FLASH_GetReadOutProtectionStatus         0x080007fb   Thumb Code    20  stm32f10x_flash.o(.text)
    FLASH_EraseOptionBytes                   0x0800080f   Thumb Code   150  stm32f10x_flash.o(.text)
    FLASH_ProgramWord                        0x080008a5   Thumb Code   102  stm32f10x_flash.o(.text)
    FLASH_ProgramHalfWord                    0x0800090b   Thumb Code    60  stm32f10x_flash.o(.text)
    FLASH_ProgramOptionByteData              0x08000947   Thumb Code    72  stm32f10x_flash.o(.text)
    FLASH_EnableWriteProtection              0x0800098f   Thumb Code   200  stm32f10x_flash.o(.text)
    FLASH_ReadOutProtection                  0x08000a57   Thumb Code   156  stm32f10x_flash.o(.text)
    FLASH_UserOptionByteConfig               0x08000af3   Thumb Code    88  stm32f10x_flash.o(.text)
    FLASH_GetUserOptionByte                  0x08000b4b   Thumb Code     8  stm32f10x_flash.o(.text)
    FLASH_GetWriteProtectionOptionByte       0x08000b53   Thumb Code     6  stm32f10x_flash.o(.text)
    FLASH_GetPrefetchBufferStatus            0x08000b59   Thumb Code    20  stm32f10x_flash.o(.text)
    FLASH_ITConfig                           0x08000b6d   Thumb Code    26  stm32f10x_flash.o(.text)
    FLASH_GetFlagStatus                      0x08000b87   Thumb Code    42  stm32f10x_flash.o(.text)
    FLASH_ClearFlag                          0x08000bb1   Thumb Code     6  stm32f10x_flash.o(.text)
    FLASH_GetStatus                          0x08000bb7   Thumb Code    48  stm32f10x_flash.o(.text)
    GPIO_DeInit                              0x08000bf9   Thumb Code   172  stm32f10x_gpio.o(.text)
    GPIO_AFIODeInit                          0x08000ca5   Thumb Code    20  stm32f10x_gpio.o(.text)
    GPIO_Init                                0x08000cb9   Thumb Code   274  stm32f10x_gpio.o(.text)
    GPIO_StructInit                          0x08000dcb   Thumb Code    16  stm32f10x_gpio.o(.text)
    GPIO_ReadInputDataBit                    0x08000ddb   Thumb Code    18  stm32f10x_gpio.o(.text)
    GPIO_ReadInputData                       0x08000ded   Thumb Code     8  stm32f10x_gpio.o(.text)
    GPIO_ReadOutputDataBit                   0x08000df5   Thumb Code    18  stm32f10x_gpio.o(.text)
    GPIO_ReadOutputData                      0x08000e07   Thumb Code     8  stm32f10x_gpio.o(.text)
    GPIO_SetBits                             0x08000e0f   Thumb Code     4  stm32f10x_gpio.o(.text)
    GPIO_ResetBits                           0x08000e13   Thumb Code     4  stm32f10x_gpio.o(.text)
    GPIO_WriteBit                            0x08000e17   Thumb Code    10  stm32f10x_gpio.o(.text)
    GPIO_Write                               0x08000e21   Thumb Code     4  stm32f10x_gpio.o(.text)
    GPIO_PinLockConfig                       0x08000e25   Thumb Code    18  stm32f10x_gpio.o(.text)
    GPIO_EventOutputConfig                   0x08000e37   Thumb Code    26  stm32f10x_gpio.o(.text)
    GPIO_EventOutputCmd                      0x08000e51   Thumb Code     6  stm32f10x_gpio.o(.text)
    GPIO_PinRemapConfig                      0x08000e57   Thumb Code   138  stm32f10x_gpio.o(.text)
    GPIO_EXTILineConfig                      0x08000ee1   Thumb Code    66  stm32f10x_gpio.o(.text)
    GPIO_ETH_MediaInterfaceConfig            0x08000f23   Thumb Code     6  stm32f10x_gpio.o(.text)
    RCC_DeInit                               0x08000f51   Thumb Code    64  stm32f10x_rcc.o(.text)
    RCC_HSEConfig                            0x08000f91   Thumb Code    70  stm32f10x_rcc.o(.text)
    RCC_GetFlagStatus                        0x08000fd7   Thumb Code    56  stm32f10x_rcc.o(.text)
    RCC_WaitForHSEStartUp                    0x0800100f   Thumb Code    56  stm32f10x_rcc.o(.text)
    RCC_AdjustHSICalibrationValue            0x08001047   Thumb Code    20  stm32f10x_rcc.o(.text)
    RCC_HSICmd                               0x0800105b   Thumb Code     6  stm32f10x_rcc.o(.text)
    RCC_PLLConfig                            0x08001061   Thumb Code    24  stm32f10x_rcc.o(.text)
    RCC_PLLCmd                               0x08001079   Thumb Code     6  stm32f10x_rcc.o(.text)
    RCC_SYSCLKConfig                         0x0800107f   Thumb Code    18  stm32f10x_rcc.o(.text)
    RCC_GetSYSCLKSource                      0x08001091   Thumb Code    10  stm32f10x_rcc.o(.text)
    RCC_HCLKConfig                           0x0800109b   Thumb Code    18  stm32f10x_rcc.o(.text)
    RCC_PCLK1Config                          0x080010ad   Thumb Code    18  stm32f10x_rcc.o(.text)
    RCC_PCLK2Config                          0x080010bf   Thumb Code    20  stm32f10x_rcc.o(.text)
    RCC_ITConfig                             0x080010d3   Thumb Code    26  stm32f10x_rcc.o(.text)
    RCC_USBCLKConfig                         0x080010ed   Thumb Code     6  stm32f10x_rcc.o(.text)
    RCC_ADCCLKConfig                         0x080010f3   Thumb Code    18  stm32f10x_rcc.o(.text)
    RCC_LSEConfig                            0x08001105   Thumb Code    44  stm32f10x_rcc.o(.text)
    RCC_LSICmd                               0x08001131   Thumb Code     6  stm32f10x_rcc.o(.text)
    RCC_RTCCLKConfig                         0x08001137   Thumb Code    12  stm32f10x_rcc.o(.text)
    RCC_RTCCLKCmd                            0x08001143   Thumb Code     8  stm32f10x_rcc.o(.text)
    RCC_GetClocksFreq                        0x0800114b   Thumb Code   192  stm32f10x_rcc.o(.text)
    RCC_AHBPeriphClockCmd                    0x0800120b   Thumb Code    26  stm32f10x_rcc.o(.text)
    RCC_APB2PeriphClockCmd                   0x08001225   Thumb Code    26  stm32f10x_rcc.o(.text)
    RCC_APB1PeriphClockCmd                   0x0800123f   Thumb Code    26  stm32f10x_rcc.o(.text)
    RCC_APB2PeriphResetCmd                   0x08001259   Thumb Code    26  stm32f10x_rcc.o(.text)
    RCC_APB1PeriphResetCmd                   0x08001273   Thumb Code    26  stm32f10x_rcc.o(.text)
    RCC_BackupResetCmd                       0x0800128d   Thumb Code     8  stm32f10x_rcc.o(.text)
    RCC_ClockSecuritySystemCmd               0x08001295   Thumb Code     6  stm32f10x_rcc.o(.text)
    RCC_MCOConfig                            0x0800129b   Thumb Code     6  stm32f10x_rcc.o(.text)
    RCC_ClearFlag                            0x080012a1   Thumb Code    14  stm32f10x_rcc.o(.text)
    RCC_GetITStatus                          0x080012af   Thumb Code    20  stm32f10x_rcc.o(.text)
    RCC_ClearITPendingBit                    0x080012c3   Thumb Code     6  stm32f10x_rcc.o(.text)
    SPI_I2S_DeInit                           0x080012f5   Thumb Code    76  stm32f10x_spi.o(.text)
    SPI_Init                                 0x08001341   Thumb Code    60  stm32f10x_spi.o(.text)
    I2S_Init                                 0x0800137d   Thumb Code   226  stm32f10x_spi.o(.text)
    SPI_StructInit                           0x0800145f   Thumb Code    24  stm32f10x_spi.o(.text)
    I2S_StructInit                           0x08001477   Thumb Code    20  stm32f10x_spi.o(.text)
    SPI_Cmd                                  0x0800148b   Thumb Code    24  stm32f10x_spi.o(.text)
    I2S_Cmd                                  0x080014a3   Thumb Code    24  stm32f10x_spi.o(.text)
    SPI_I2S_ITConfig                         0x080014bb   Thumb Code    32  stm32f10x_spi.o(.text)
    SPI_I2S_DMACmd                           0x080014db   Thumb Code    18  stm32f10x_spi.o(.text)
    SPI_I2S_SendData                         0x080014ed   Thumb Code     4  stm32f10x_spi.o(.text)
    SPI_I2S_ReceiveData                      0x080014f1   Thumb Code     6  stm32f10x_spi.o(.text)
    SPI_NSSInternalSoftwareConfig            0x080014f7   Thumb Code    30  stm32f10x_spi.o(.text)
    SPI_SSOutputCmd                          0x08001515   Thumb Code    24  stm32f10x_spi.o(.text)
    SPI_DataSizeConfig                       0x0800152d   Thumb Code    18  stm32f10x_spi.o(.text)
    SPI_TransmitCRC                          0x0800153f   Thumb Code    10  stm32f10x_spi.o(.text)
    SPI_CalculateCRC                         0x08001549   Thumb Code    24  stm32f10x_spi.o(.text)
    SPI_GetCRC                               0x08001561   Thumb Code    16  stm32f10x_spi.o(.text)
    SPI_GetCRCPolynomial                     0x08001571   Thumb Code     6  stm32f10x_spi.o(.text)
    SPI_BiDirectionalLineConfig              0x08001577   Thumb Code    28  stm32f10x_spi.o(.text)
    SPI_I2S_GetFlagStatus                    0x08001593   Thumb Code    18  stm32f10x_spi.o(.text)
    SPI_I2S_ClearFlag                        0x080015a5   Thumb Code     6  stm32f10x_spi.o(.text)
    SPI_I2S_GetITStatus                      0x080015ab   Thumb Code    52  stm32f10x_spi.o(.text)
    SPI_I2S_ClearITPendingBit                0x080015df   Thumb Code    20  stm32f10x_spi.o(.text)
    TIM_DeInit                               0x08001601   Thumb Code   424  stm32f10x_tim.o(.text)
    TIM_TimeBaseInit                         0x080017a9   Thumb Code   122  stm32f10x_tim.o(.text)
    TIM_OC1Init                              0x08001823   Thumb Code   132  stm32f10x_tim.o(.text)
    TIM_OC2Init                              0x080018a7   Thumb Code   154  stm32f10x_tim.o(.text)
    TIM_OC3Init                              0x08001941   Thumb Code   150  stm32f10x_tim.o(.text)
    TIM_OC4Init                              0x080019d7   Thumb Code   182  stm32f10x_tim.o(.text)
    TIM_SetIC4Prescaler                      0x08001a8d   Thumb Code    26  stm32f10x_tim.o(.text)
    TIM_SetIC3Prescaler                      0x08001b29   Thumb Code    18  stm32f10x_tim.o(.text)
    TIM_SetIC2Prescaler                      0x08001bb5   Thumb Code    26  stm32f10x_tim.o(.text)
    TIM_SetIC1Prescaler                      0x08001c51   Thumb Code    18  stm32f10x_tim.o(.text)
    TIM_ICInit                               0x08001ccf   Thumb Code   150  stm32f10x_tim.o(.text)
    TIM_PWMIConfig                           0x08001d65   Thumb Code   124  stm32f10x_tim.o(.text)
    TIM_BDTRConfig                           0x08001de1   Thumb Code    32  stm32f10x_tim.o(.text)
    TIM_TimeBaseStructInit                   0x08001e01   Thumb Code    18  stm32f10x_tim.o(.text)
    TIM_OCStructInit                         0x08001e13   Thumb Code    20  stm32f10x_tim.o(.text)
    TIM_ICStructInit                         0x08001e27   Thumb Code    18  stm32f10x_tim.o(.text)
    TIM_BDTRStructInit                       0x08001e39   Thumb Code    40  stm32f10x_tim.o(.text)
    TIM_Cmd                                  0x08001e61   Thumb Code    24  stm32f10x_tim.o(.text)
    TIM_CtrlPWMOutputs                       0x08001e79   Thumb Code    30  stm32f10x_tim.o(.text)
    TIM_ITConfig                             0x08001e97   Thumb Code    18  stm32f10x_tim.o(.text)
    TIM_GenerateEvent                        0x08001ea9   Thumb Code     4  stm32f10x_tim.o(.text)
    TIM_DMAConfig                            0x08001ead   Thumb Code    10  stm32f10x_tim.o(.text)
    TIM_DMACmd                               0x08001eb7   Thumb Code    18  stm32f10x_tim.o(.text)
    TIM_InternalClockConfig                  0x08001ec9   Thumb Code    12  stm32f10x_tim.o(.text)
    TIM_SelectInputTrigger                   0x08001ed5   Thumb Code    18  stm32f10x_tim.o(.text)
    TIM_ITRxExternalClockConfig              0x08001ee7   Thumb Code    24  stm32f10x_tim.o(.text)
    TIM_TIxExternalClockConfig               0x08001eff   Thumb Code    62  stm32f10x_tim.o(.text)
    TIM_ETRConfig                            0x08001f3d   Thumb Code    28  stm32f10x_tim.o(.text)
    TIM_ETRClockMode1Config                  0x08001f59   Thumb Code    54  stm32f10x_tim.o(.text)
    TIM_ETRClockMode2Config                  0x08001f8f   Thumb Code    32  stm32f10x_tim.o(.text)
    TIM_PrescalerConfig                      0x08001faf   Thumb Code     6  stm32f10x_tim.o(.text)
    TIM_CounterModeConfig                    0x08001fb5   Thumb Code    18  stm32f10x_tim.o(.text)
    TIM_EncoderInterfaceConfig               0x08001fc7   Thumb Code    66  stm32f10x_tim.o(.text)
    TIM_ForcedOC1Config                      0x08002009   Thumb Code    18  stm32f10x_tim.o(.text)
    TIM_ForcedOC2Config                      0x0800201b   Thumb Code    26  stm32f10x_tim.o(.text)
    TIM_ForcedOC3Config                      0x08002035   Thumb Code    18  stm32f10x_tim.o(.text)
    TIM_ForcedOC4Config                      0x08002047   Thumb Code    26  stm32f10x_tim.o(.text)
    TIM_ARRPreloadConfig                     0x08002061   Thumb Code    24  stm32f10x_tim.o(.text)
    TIM_SelectCOM                            0x08002079   Thumb Code    24  stm32f10x_tim.o(.text)
    TIM_SelectCCDMA                          0x08002091   Thumb Code    24  stm32f10x_tim.o(.text)
    TIM_CCPreloadControl                     0x080020a9   Thumb Code    24  stm32f10x_tim.o(.text)
    TIM_OC1PreloadConfig                     0x080020c1   Thumb Code    18  stm32f10x_tim.o(.text)
    TIM_OC2PreloadConfig                     0x080020d3   Thumb Code    26  stm32f10x_tim.o(.text)
    TIM_OC3PreloadConfig                     0x080020ed   Thumb Code    18  stm32f10x_tim.o(.text)
    TIM_OC4PreloadConfig                     0x080020ff   Thumb Code    26  stm32f10x_tim.o(.text)
    TIM_OC1FastConfig                        0x08002119   Thumb Code    18  stm32f10x_tim.o(.text)
    TIM_OC2FastConfig                        0x0800212b   Thumb Code    26  stm32f10x_tim.o(.text)
    TIM_OC3FastConfig                        0x08002145   Thumb Code    18  stm32f10x_tim.o(.text)
    TIM_OC4FastConfig                        0x08002157   Thumb Code    26  stm32f10x_tim.o(.text)
    TIM_ClearOC1Ref                          0x08002171   Thumb Code    18  stm32f10x_tim.o(.text)
    TIM_ClearOC2Ref                          0x08002183   Thumb Code    24  stm32f10x_tim.o(.text)
    TIM_ClearOC3Ref                          0x0800219b   Thumb Code    18  stm32f10x_tim.o(.text)
    TIM_ClearOC4Ref                          0x080021ad   Thumb Code    24  stm32f10x_tim.o(.text)
    TIM_OC1PolarityConfig                    0x080021c5   Thumb Code    18  stm32f10x_tim.o(.text)
    TIM_OC1NPolarityConfig                   0x080021d7   Thumb Code    18  stm32f10x_tim.o(.text)
    TIM_OC2PolarityConfig                    0x080021e9   Thumb Code    26  stm32f10x_tim.o(.text)
    TIM_OC2NPolarityConfig                   0x08002203   Thumb Code    26  stm32f10x_tim.o(.text)
    TIM_OC3PolarityConfig                    0x0800221d   Thumb Code    26  stm32f10x_tim.o(.text)
    TIM_OC3NPolarityConfig                   0x08002237   Thumb Code    26  stm32f10x_tim.o(.text)
    TIM_OC4PolarityConfig                    0x08002251   Thumb Code    26  stm32f10x_tim.o(.text)
    TIM_CCxCmd                               0x0800226b   Thumb Code    30  stm32f10x_tim.o(.text)
    TIM_CCxNCmd                              0x08002289   Thumb Code    30  stm32f10x_tim.o(.text)
    TIM_SelectOCxM                           0x080022a7   Thumb Code    82  stm32f10x_tim.o(.text)
    TIM_UpdateDisableConfig                  0x080022f9   Thumb Code    24  stm32f10x_tim.o(.text)
    TIM_UpdateRequestConfig                  0x08002311   Thumb Code    24  stm32f10x_tim.o(.text)
    TIM_SelectHallSensor                     0x08002329   Thumb Code    24  stm32f10x_tim.o(.text)
    TIM_SelectOnePulseMode                   0x08002341   Thumb Code    18  stm32f10x_tim.o(.text)
    TIM_SelectOutputTrigger                  0x08002353   Thumb Code    18  stm32f10x_tim.o(.text)
    TIM_SelectSlaveMode                      0x08002365   Thumb Code    18  stm32f10x_tim.o(.text)
    TIM_SelectMasterSlaveMode                0x08002377   Thumb Code    18  stm32f10x_tim.o(.text)
    TIM_SetCounter                           0x08002389   Thumb Code     4  stm32f10x_tim.o(.text)
    TIM_SetAutoreload                        0x0800238d   Thumb Code     4  stm32f10x_tim.o(.text)
    TIM_SetCompare1                          0x08002391   Thumb Code     4  stm32f10x_tim.o(.text)
    TIM_SetCompare2                          0x08002395   Thumb Code     4  stm32f10x_tim.o(.text)
    TIM_SetCompare3                          0x08002399   Thumb Code     4  stm32f10x_tim.o(.text)
    TIM_SetCompare4                          0x0800239d   Thumb Code     6  stm32f10x_tim.o(.text)
    TIM_SetClockDivision                     0x080023a3   Thumb Code    18  stm32f10x_tim.o(.text)
    TIM_GetCapture1                          0x080023b5   Thumb Code     6  stm32f10x_tim.o(.text)
    TIM_GetCapture2                          0x080023bb   Thumb Code     6  stm32f10x_tim.o(.text)
    TIM_GetCapture3                          0x080023c1   Thumb Code     6  stm32f10x_tim.o(.text)
    TIM_GetCapture4                          0x080023c7   Thumb Code     8  stm32f10x_tim.o(.text)
    TIM_GetCounter                           0x080023cf   Thumb Code     6  stm32f10x_tim.o(.text)
    TIM_GetPrescaler                         0x080023d5   Thumb Code     6  stm32f10x_tim.o(.text)
    TIM_GetFlagStatus                        0x080023db   Thumb Code    18  stm32f10x_tim.o(.text)
    TIM_ClearFlag                            0x080023ed   Thumb Code     6  stm32f10x_tim.o(.text)
    TIM_GetITStatus                          0x080023f3   Thumb Code    34  stm32f10x_tim.o(.text)
    TIM_ClearITPendingBit                    0x08002415   Thumb Code     6  stm32f10x_tim.o(.text)
    USART_DeInit                             0x0800241d   Thumb Code   134  stm32f10x_usart.o(.text)
    USART_Init                               0x080024a3   Thumb Code   210  stm32f10x_usart.o(.text)
    USART_StructInit                         0x08002575   Thumb Code    24  stm32f10x_usart.o(.text)
    USART_ClockInit                          0x0800258d   Thumb Code    34  stm32f10x_usart.o(.text)
    USART_ClockStructInit                    0x080025af   Thumb Code    12  stm32f10x_usart.o(.text)
    USART_Cmd                                0x080025bb   Thumb Code    24  stm32f10x_usart.o(.text)
    USART_ITConfig                           0x080025d3   Thumb Code    74  stm32f10x_usart.o(.text)
    USART_DMACmd                             0x0800261d   Thumb Code    18  stm32f10x_usart.o(.text)
    USART_SetAddress                         0x0800262f   Thumb Code    18  stm32f10x_usart.o(.text)
    USART_WakeUpConfig                       0x08002641   Thumb Code    18  stm32f10x_usart.o(.text)
    USART_ReceiverWakeUpCmd                  0x08002653   Thumb Code    24  stm32f10x_usart.o(.text)
    USART_LINBreakDetectLengthConfig         0x0800266b   Thumb Code    18  stm32f10x_usart.o(.text)
    USART_LINCmd                             0x0800267d   Thumb Code    24  stm32f10x_usart.o(.text)
    USART_SendData                           0x08002695   Thumb Code     8  stm32f10x_usart.o(.text)
    USART_ReceiveData                        0x0800269d   Thumb Code    10  stm32f10x_usart.o(.text)
    USART_SendBreak                          0x080026a7   Thumb Code    10  stm32f10x_usart.o(.text)
    USART_SetGuardTime                       0x080026b1   Thumb Code    16  stm32f10x_usart.o(.text)
    USART_SetPrescaler                       0x080026c1   Thumb Code    16  stm32f10x_usart.o(.text)
    USART_SmartCardCmd                       0x080026d1   Thumb Code    24  stm32f10x_usart.o(.text)
    USART_SmartCardNACKCmd                   0x080026e9   Thumb Code    24  stm32f10x_usart.o(.text)
    USART_HalfDuplexCmd                      0x08002701   Thumb Code    24  stm32f10x_usart.o(.text)
    USART_OverSampling8Cmd                   0x08002719   Thumb Code    22  stm32f10x_usart.o(.text)
    USART_OneBitMethodCmd                    0x0800272f   Thumb Code    24  stm32f10x_usart.o(.text)
    USART_IrDAConfig                         0x08002747   Thumb Code    18  stm32f10x_usart.o(.text)
    USART_IrDACmd                            0x08002759   Thumb Code    24  stm32f10x_usart.o(.text)
    USART_GetFlagStatus                      0x08002771   Thumb Code    26  stm32f10x_usart.o(.text)
    USART_ClearFlag                          0x0800278b   Thumb Code    18  stm32f10x_usart.o(.text)
    USART_GetITStatus                        0x0800279d   Thumb Code    84  stm32f10x_usart.o(.text)
    USART_ClearITPendingBit                  0x080027f1   Thumb Code    52  stm32f10x_usart.o(.text)
    SystemInit                               0x08002901   Thumb Code    78  system_stm32f10x.o(.text)
    SystemCoreClockUpdate                    0x0800294f   Thumb Code   142  system_stm32f10x.o(.text)
    Reset_Handler                            0x08002a01   Thumb Code     8  startup_stm32f10x_hd.o(.text)
    ADC1_2_IRQHandler                        0x08002a1b   Thumb Code     0  startup_stm32f10x_hd.o(.text)
    ADC3_IRQHandler                          0x08002a1b   Thumb Code     0  startup_stm32f10x_hd.o(.text)
    CAN1_RX1_IRQHandler                      0x08002a1b   Thumb Code     0  startup_stm32f10x_hd.o(.text)
    CAN1_SCE_IRQHandler                      0x08002a1b   Thumb Code     0  startup_stm32f10x_hd.o(.text)
    DMA1_Channel1_IRQHandler                 0x08002a1b   Thumb Code     0  startup_stm32f10x_hd.o(.text)
    DMA1_Channel2_IRQHandler                 0x08002a1b   Thumb Code     0  startup_stm32f10x_hd.o(.text)
    DMA1_Channel3_IRQHandler                 0x08002a1b   Thumb Code     0  startup_stm32f10x_hd.o(.text)
    DMA1_Channel4_IRQHandler                 0x08002a1b   Thumb Code     0  startup_stm32f10x_hd.o(.text)
    DMA1_Channel5_IRQHandler                 0x08002a1b   Thumb Code     0  startup_stm32f10x_hd.o(.text)
    DMA1_Channel6_IRQHandler                 0x08002a1b   Thumb Code     0  startup_stm32f10x_hd.o(.text)
    DMA1_Channel7_IRQHandler                 0x08002a1b   Thumb Code     0  startup_stm32f10x_hd.o(.text)
    DMA2_Channel1_IRQHandler                 0x08002a1b   Thumb Code     0  startup_stm32f10x_hd.o(.text)
    DMA2_Channel2_IRQHandler                 0x08002a1b   Thumb Code     0  startup_stm32f10x_hd.o(.text)
    DMA2_Channel3_IRQHandler                 0x08002a1b   Thumb Code     0  startup_stm32f10x_hd.o(.text)
    DMA2_Channel4_5_IRQHandler               0x08002a1b   Thumb Code     0  startup_stm32f10x_hd.o(.text)
    EXTI15_10_IRQHandler                     0x08002a1b   Thumb Code     0  startup_stm32f10x_hd.o(.text)
    EXTI2_IRQHandler                         0x08002a1b   Thumb Code     0  startup_stm32f10x_hd.o(.text)
    EXTI3_IRQHandler                         0x08002a1b   Thumb Code     0  startup_stm32f10x_hd.o(.text)
    FLASH_IRQHandler                         0x08002a1b   Thumb Code     0  startup_stm32f10x_hd.o(.text)
    FSMC_IRQHandler                          0x08002a1b   Thumb Code     0  startup_stm32f10x_hd.o(.text)
    I2C1_ER_IRQHandler                       0x08002a1b   Thumb Code     0  startup_stm32f10x_hd.o(.text)
    I2C1_EV_IRQHandler                       0x08002a1b   Thumb Code     0  startup_stm32f10x_hd.o(.text)
    I2C2_ER_IRQHandler                       0x08002a1b   Thumb Code     0  startup_stm32f10x_hd.o(.text)
    I2C2_EV_IRQHandler                       0x08002a1b   Thumb Code     0  startup_stm32f10x_hd.o(.text)
    PVD_IRQHandler                           0x08002a1b   Thumb Code     0  startup_stm32f10x_hd.o(.text)
    RCC_IRQHandler                           0x08002a1b   Thumb Code     0  startup_stm32f10x_hd.o(.text)
    RTCAlarm_IRQHandler                      0x08002a1b   Thumb Code     0  startup_stm32f10x_hd.o(.text)
    RTC_IRQHandler                           0x08002a1b   Thumb Code     0  startup_stm32f10x_hd.o(.text)
    SDIO_IRQHandler                          0x08002a1b   Thumb Code     0  startup_stm32f10x_hd.o(.text)
    SPI1_IRQHandler                          0x08002a1b   Thumb Code     0  startup_stm32f10x_hd.o(.text)
    SPI2_IRQHandler                          0x08002a1b   Thumb Code     0  startup_stm32f10x_hd.o(.text)
    SPI3_IRQHandler                          0x08002a1b   Thumb Code     0  startup_stm32f10x_hd.o(.text)
    TAMPER_IRQHandler                        0x08002a1b   Thumb Code     0  startup_stm32f10x_hd.o(.text)
    TIM1_BRK_IRQHandler                      0x08002a1b   Thumb Code     0  startup_stm32f10x_hd.o(.text)
    TIM1_CC_IRQHandler                       0x08002a1b   Thumb Code     0  startup_stm32f10x_hd.o(.text)
    TIM1_TRG_COM_IRQHandler                  0x08002a1b   Thumb Code     0  startup_stm32f10x_hd.o(.text)
    TIM1_UP_IRQHandler                       0x08002a1b   Thumb Code     0  startup_stm32f10x_hd.o(.text)
    TIM2_IRQHandler                          0x08002a1b   Thumb Code     0  startup_stm32f10x_hd.o(.text)
    TIM5_IRQHandler                          0x08002a1b   Thumb Code     0  startup_stm32f10x_hd.o(.text)
    TIM6_IRQHandler                          0x08002a1b   Thumb Code     0  startup_stm32f10x_hd.o(.text)
    TIM7_IRQHandler                          0x08002a1b   Thumb Code     0  startup_stm32f10x_hd.o(.text)
    TIM8_BRK_IRQHandler                      0x08002a1b   Thumb Code     0  startup_stm32f10x_hd.o(.text)
    TIM8_CC_IRQHandler                       0x08002a1b   Thumb Code     0  startup_stm32f10x_hd.o(.text)
    TIM8_TRG_COM_IRQHandler                  0x08002a1b   Thumb Code     0  startup_stm32f10x_hd.o(.text)
    TIM8_UP_IRQHandler                       0x08002a1b   Thumb Code     0  startup_stm32f10x_hd.o(.text)
    UART4_IRQHandler                         0x08002a1b   Thumb Code     0  startup_stm32f10x_hd.o(.text)
    UART5_IRQHandler                         0x08002a1b   Thumb Code     0  startup_stm32f10x_hd.o(.text)
    USBWakeUp_IRQHandler                     0x08002a1b   Thumb Code     0  startup_stm32f10x_hd.o(.text)
    USB_HP_CAN1_TX_IRQHandler                0x08002a1b   Thumb Code     0  startup_stm32f10x_hd.o(.text)
    USB_LP_CAN1_RX0_IRQHandler               0x08002a1b   Thumb Code     0  startup_stm32f10x_hd.o(.text)
    WWDG_IRQHandler                          0x08002a1b   Thumb Code     0  startup_stm32f10x_hd.o(.text)
    delay_init                               0x08002a25   Thumb Code    56  delay.o(.text)
    delay_ms                                 0x08002a5d   Thumb Code    54  delay.o(.text)
    delay_us                                 0x08002a93   Thumb Code    54  delay.o(.text)
    ADS1246_ReadReg                          0x08002b65   Thumb Code   170  ad1246.o(.text)
    ADS1246_WriteReg                         0x08002c0f   Thumb Code   162  ad1246.o(.text)
    ADS1246_WriteCmd                         0x08002cb1   Thumb Code    50  ad1246.o(.text)
    ADS1246_Calibrate                        0x08002ce3   Thumb Code   148  ad1246.o(.text)
    ADS1246_Init                             0x08002d77   Thumb Code   172  ad1246.o(.text)
    ADS1246_SingleCov                        0x08002e23   Thumb Code    20  ad1246.o(.text)
    ADS1246_ReadCovData                      0x08002e37   Thumb Code   226  ad1246.o(.text)
    ADS1246_Filte                            0x08002f19   Thumb Code   118  ad1246.o(.text)
    ADS1246_ISR                              0x08002f8f   Thumb Code    86  ad1246.o(.text)
    SPI_GPIO_Init                            0x08002ff9   Thumb Code    58  spi.o(.text)
    SPI1_Init                                0x08003033   Thumb Code    96  spi.o(.text)
    NVIC_ConfigurationUSART1                 0x0800309d   Thumb Code    38  usart.o(.text)
    NVIC_ConfigurationUSART2                 0x080030c3   Thumb Code    36  usart.o(.text)
    NVIC_ConfigurationUSART3                 0x080030e7   Thumb Code    36  usart.o(.text)
    USART1_Configuration                     0x0800310b   Thumb Code   148  usart.o(.text)
    USART2_Configuration                     0x0800319f   Thumb Code   144  usart.o(.text)
    USART3_Configuration                     0x0800322f   Thumb Code   148  usart.o(.text)
    Usart_Init                               0x080032c3   Thumb Code    28  usart.o(.text)
    Usart1_PutChar                           0x080032df   Thumb Code    34  usart.o(.text)
    Usart2_PutChar                           0x08003301   Thumb Code    34  usart.o(.text)
    Usart3_PutChar                           0x08003323   Thumb Code    28  usart.o(.text)
    USART1_IRQHandler                        0x0800333f   Thumb Code   152  usart.o(.text)
    USART2_IRQHandler                        0x080033d7   Thumb Code   152  usart.o(.text)
    USART3_IRQHandler                        0x0800346f   Thumb Code   152  usart.o(.text)
    PositionVerification                     0x08003539   Thumb Code   312  usartdata.o(.text)
    CheckReceiveData                         0x08003671   Thumb Code  4278  usartdata.o(.text)
    EXTI_LimitPB_Configuration               0x08004731   Thumb Code   132  limit.o(.text)
    NVIC_ConfigurationLimit                  0x080047b5   Thumb Code    96  limit.o(.text)
    Limit_Init                               0x08004815   Thumb Code    12  limit.o(.text)
    Limit_Stop                               0x08004821   Thumb Code    32  limit.o(.text)
    EXTI_CoderPB_Configuration               0x0800484d   Thumb Code    64  stc15f104w.o(.text)
    NVIC_ConfigurationCoder                  0x0800488d   Thumb Code    42  stc15f104w.o(.text)
    Coder_Init                               0x080048b7   Thumb Code    12  stc15f104w.o(.text)
    PULSE_TIM_Mode_Config                    0x080048f3   Thumb Code   122  motos.o(.text)
    PULSE_CHANGE_TIM_Mode_Config             0x08004995   Thumb Code    82  motos.o(.text)
    Moto_GPIO_Config                         0x080049e7   Thumb Code    40  motos.o(.text)
    Moto_Curve_Create                        0x08004a0f   Thumb Code   628  motos.o(.text)
    Start_Moto_Pulse                         0x08004c83   Thumb Code   178  motos.o(.text)
    ACC_Moto_Pulse                           0x08004d35   Thumb Code   218  motos.o(.text)
    RED_Moto_Pulse                           0x08004e0f   Thumb Code   136  motos.o(.text)
    Stop_Moto                                0x08004e97   Thumb Code    48  motos.o(.text)
    Right_Stop_Moto                          0x08004ec7   Thumb Code    22  motos.o(.text)
    Work_Moto_Pulse                          0x08004edd   Thumb Code    70  motos.o(.text)
    Work_Moto_Speed                          0x08004f23   Thumb Code    42  motos.o(.text)
    Moto_init                                0x08004f4d   Thumb Code    34  motos.o(.text)
    Moto_Pulse_Create                        0x08004f6f   Thumb Code    56  motos.o(.text)
    Moto_Pulse_Change                        0x08004fa7   Thumb Code   342  motos.o(.text)
    NoTest                                   0x0800512d   Thumb Code   340  test.o(.text)
    StartTest                                0x08005281   Thumb Code   726  test.o(.text)
    __aeabi_fadd                             0x08005557   Thumb Code   164  fadd.o(.text)
    __aeabi_fsub                             0x080055fb   Thumb Code     6  fadd.o(.text)
    __aeabi_frsub                            0x08005601   Thumb Code     6  fadd.o(.text)
    __aeabi_fmul                             0x08005607   Thumb Code   108  fmul.o(.text)
    __aeabi_fdiv                             0x08005673   Thumb Code   128  fdiv.o(.text)
    __aeabi_dadd                             0x080056f3   Thumb Code   322  dadd.o(.text)
    __aeabi_dsub                             0x08005835   Thumb Code     6  dadd.o(.text)
    __aeabi_drsub                            0x0800583b   Thumb Code     6  dadd.o(.text)
    __aeabi_dmul                             0x08005841   Thumb Code   228  dmul.o(.text)
    __aeabi_ddiv                             0x08005925   Thumb Code   222  ddiv.o(.text)
    __aeabi_i2f                              0x08005a03   Thumb Code    18  fflti.o(.text)
    __aeabi_ui2f                             0x08005a15   Thumb Code    10  ffltui.o(.text)
    __aeabi_ui2d                             0x08005a1f   Thumb Code    26  dfltui.o(.text)
    __aeabi_f2iz                             0x08005a39   Thumb Code    50  ffixi.o(.text)
    __aeabi_f2uiz                            0x08005a6b   Thumb Code    40  ffixui.o(.text)
    __aeabi_d2uiz                            0x08005a93   Thumb Code    50  dfixui.o(.text)
    __aeabi_f2d                              0x08005ac5   Thumb Code    38  f2d.o(.text)
    __aeabi_d2f                              0x08005aeb   Thumb Code    56  d2f.o(.text)
    __aeabi_cfcmpeq                          0x08005b25   Thumb Code     0  cfcmple.o(.text)
    __aeabi_cfcmple                          0x08005b25   Thumb Code    20  cfcmple.o(.text)
    __aeabi_cfrcmple                         0x08005b39   Thumb Code    20  cfrcmple.o(.text)
    __aeabi_uidiv                            0x08005b4d   Thumb Code     0  uidiv.o(.text)
    __aeabi_uidivmod                         0x08005b4d   Thumb Code    44  uidiv.o(.text)
    __aeabi_uldivmod                         0x08005b79   Thumb Code    98  uldiv.o(.text)
    __aeabi_llsl                             0x08005bdb   Thumb Code    30  llshl.o(.text)
    _ll_shift_l                              0x08005bdb   Thumb Code     0  llshl.o(.text)
    __aeabi_llsr                             0x08005bf9   Thumb Code    32  llushr.o(.text)
    _ll_ushift_r                             0x08005bf9   Thumb Code     0  llushr.o(.text)
    __aeabi_lasr                             0x08005c19   Thumb Code    36  llsshr.o(.text)
    _ll_sshift_r                             0x08005c19   Thumb Code     0  llsshr.o(.text)
    __I$use$fp                               0x08005c3d   Thumb Code     0  iusefp.o(.text)
    _float_round                             0x08005c3d   Thumb Code    18  fepilogue.o(.text)
    _float_epilogue                          0x08005c4f   Thumb Code    90  fepilogue.o(.text)
    _double_round                            0x08005ca9   Thumb Code    26  depilogue.o(.text)
    _double_epilogue                         0x08005cc3   Thumb Code   164  depilogue.o(.text)
    _dsqrt                                   0x08005d67   Thumb Code   162  dsqrt.o(.text)
    __aeabi_d2ulz                            0x08005e09   Thumb Code    48  dfixul.o(.text)
    __aeabi_cdrcmple                         0x08005e39   Thumb Code    38  cdrcmple.o(.text)
    __scatterload                            0x08005e61   Thumb Code    28  init.o(.text)
    __scatterload_rt2                        0x08005e61   Thumb Code     0  init.o(.text)
    __0printf                                0x08005e85   Thumb Code    22  printfa.o(i.__0printf)
    __1printf                                0x08005e85   Thumb Code     0  printfa.o(i.__0printf)
    __2printf                                0x08005e85   Thumb Code     0  printfa.o(i.__0printf)
    __c89printf                              0x08005e85   Thumb Code     0  printfa.o(i.__0printf)
    printf                                   0x08005e85   Thumb Code     0  printfa.o(i.__0printf)
    __scatterload_copy                       0x08005ea5   Thumb Code    14  handlers.o(i.__scatterload_copy)
    __scatterload_null                       0x08005eb3   Thumb Code     2  handlers.o(i.__scatterload_null)
    __scatterload_zeroinit                   0x08005eb5   Thumb Code    14  handlers.o(i.__scatterload_zeroinit)
    __set_errno                              0x08005ec5   Thumb Code     6  errno.o(i.__set_errno)
    sqrt                                     0x08006773   Thumb Code    76  sqrt.o(i.sqrt)
    Region$$Table$$Base                      0x080067c0   Number         0  anon$$obj.o(Region$$Table)
    Region$$Table$$Limit                     0x080067e0   Number         0  anon$$obj.o(Region$$Table)
    SystemCoreClock                          0x20000014   Data           4  system_stm32f10x.o(.data)
    AHBPrescTable                            0x20000018   Data          16  system_stm32f10x.o(.data)
    ADS1246_Ready                            0x2000002c   Data           1  ad1246.o(.data)
    AD_Mean                                  0x20000030   Data           4  ad1246.o(.data)
    AD_Count                                 0x20000034   Data           1  ad1246.o(.data)
    USART1_i                                 0x20000035   Data           1  usart.o(.data)
    USART2_i                                 0x20000036   Data           1  usart.o(.data)
    USART3_i                                 0x20000037   Data           1  usart.o(.data)
    UsartBit                                 0x20000038   Data           7  usart.o(.data)
    Bit                                      0x2000003f   Data           6  usartdata.o(.data)
    PCoder                                   0x20000048   Data           8  stc15f104w.o(.data)
    Frq_Change_Count                         0x20000050   Data           2  motos.o(.data)
    Change_Frq_Flag                          0x20000052   Data           1  motos.o(.data)
    Pulse_Count                              0x20000054   Data           4  motos.o(.data)
    Moto_Stat                                0x20000058   Data           1  motos.o(.data)
    pMotoS_Tab                               0x2000005c   Data           4  motos.o(.data)
    __stdout                                 0x20000060   Data           4  stdout.o(.data)
    AD_DataBuf                               0x20000068   Data         120  ad1246.o(.bss)
    USART1_Data                              0x200000e0   Data          13  usart.o(.bss)
    USART2_Data                              0x200000ed   Data          13  usart.o(.bss)
    USART3_Data                              0x200000fa   Data          13  usart.o(.bss)
    Data                                     0x20000108   Data          24  usartdata.o(.bss)
    Moto                                     0x20000120   Data          32  motos.o(.bss)
    MotoS_Tab                                0x20000140   Data        1000  motos.o(.bss)
    Test                                     0x20000528   Data          16  test.o(.bss)
    __initial_sp                             0x20000938   Data           0  startup_stm32f10x_hd.o(STACK)



==============================================================================

Memory Map of the image

  Image Entry point : 0x08000131

  Load Region LR_IROM1 (Base: 0x08000000, Size: 0x00006848, Max: 0x00080000, ABSOLUTE)

    Execution Region ER_IROM1 (Base: 0x08000000, Size: 0x000067e0, Max: 0x00080000, ABSOLUTE)

    Base Addr    Size         Type   Attr      Idx    E Section Name        Object

    0x08000000   0x00000130   Data   RO          485    RESET               startup_stm32f10x_hd.o
    0x08000130   0x00000000   Code   RO          694  * .ARM.Collect$$$$00000000  mc_w.l(entry.o)
    0x08000130   0x00000004   Code   RO          990    .ARM.Collect$$$$00000001  mc_w.l(entry2.o)
    0x08000134   0x00000004   Code   RO          993    .ARM.Collect$$$$00000004  mc_w.l(entry5.o)
    0x08000138   0x00000000   Code   RO          995    .ARM.Collect$$$$00000008  mc_w.l(entry7b.o)
    0x08000138   0x00000000   Code   RO          997    .ARM.Collect$$$$0000000A  mc_w.l(entry8b.o)
    0x08000138   0x00000008   Code   RO          998    .ARM.Collect$$$$0000000B  mc_w.l(entry9a.o)
    0x08000140   0x00000000   Code   RO         1000    .ARM.Collect$$$$0000000D  mc_w.l(entry10a.o)
    0x08000140   0x00000000   Code   RO         1002    .ARM.Collect$$$$0000000F  mc_w.l(entry11a.o)
    0x08000140   0x00000004   Code   RO          991    .ARM.Collect$$$$00002712  mc_w.l(entry2.o)
    0x08000144   0x00000180   Code   RO            1    .text               main.o
    0x080002c4   0x00000144   Code   RO           97    .text               stm32f10x_it.o
    0x08000408   0x0000003c   Code   RO          119    .text               iosetup.o
    0x08000444   0x000000dc   Code   RO          131    .text               misc.o
    0x08000520   0x0000011c   Code   RO          263    .text               stm32f10x_exti.o
    0x0800063c   0x000005bc   Code   RO          275    .text               stm32f10x_flash.o
    0x08000bf8   0x00000358   Code   RO          302    .text               stm32f10x_gpio.o
    0x08000f50   0x000003a4   Code   RO          359    .text               stm32f10x_rcc.o
    0x080012f4   0x0000030c   Code   RO          403    .text               stm32f10x_spi.o
    0x08001600   0x00000e1a   Code   RO          415    .text               stm32f10x_tim.o
    0x0800241a   0x00000002   PAD
    0x0800241c   0x00000408   Code   RO          427    .text               stm32f10x_usart.o
    0x08002824   0x000001dc   Code   RO          465    .text               system_stm32f10x.o
    0x08002a00   0x00000024   Code   RO          486    .text               startup_stm32f10x_hd.o
    0x08002a24   0x000000ac   Code   RO          490    .text               delay.o
    0x08002ad0   0x00000528   Code   RO          504    .text               ad1246.o
    0x08002ff8   0x000000a4   Code   RO          526    .text               spi.o
    0x0800309c   0x0000049c   Code   RO          538    .text               usart.o
    0x08003538   0x000011f8   Code   RO          565    .text               usartdata.o
    0x08004730   0x0000011c   Code   RO          595    .text               limit.o
    0x0800484c   0x0000007c   Code   RO          622    .text               stc15f104w.o
    0x080048c8   0x00000864   Code   RO          640    .text               motos.o
    0x0800512c   0x0000042a   Code   RO          660    .text               test.o
    0x08005556   0x000000b0   Code   RO          958    .text               mf_w.l(fadd.o)
    0x08005606   0x0000006c   Code   RO          960    .text               mf_w.l(fmul.o)
    0x08005672   0x00000080   Code   RO          962    .text               mf_w.l(fdiv.o)
    0x080056f2   0x0000014e   Code   RO          964    .text               mf_w.l(dadd.o)
    0x08005840   0x000000e4   Code   RO          966    .text               mf_w.l(dmul.o)
    0x08005924   0x000000de   Code   RO          968    .text               mf_w.l(ddiv.o)
    0x08005a02   0x00000012   Code   RO          970    .text               mf_w.l(fflti.o)
    0x08005a14   0x0000000a   Code   RO          972    .text               mf_w.l(ffltui.o)
    0x08005a1e   0x0000001a   Code   RO          974    .text               mf_w.l(dfltui.o)
    0x08005a38   0x00000032   Code   RO          976    .text               mf_w.l(ffixi.o)
    0x08005a6a   0x00000028   Code   RO          978    .text               mf_w.l(ffixui.o)
    0x08005a92   0x00000032   Code   RO          980    .text               mf_w.l(dfixui.o)
    0x08005ac4   0x00000026   Code   RO          982    .text               mf_w.l(f2d.o)
    0x08005aea   0x00000038   Code   RO          984    .text               mf_w.l(d2f.o)
    0x08005b22   0x00000002   PAD
    0x08005b24   0x00000014   Code   RO          986    .text               mf_w.l(cfcmple.o)
    0x08005b38   0x00000014   Code   RO          988    .text               mf_w.l(cfrcmple.o)
    0x08005b4c   0x0000002c   Code   RO         1005    .text               mc_w.l(uidiv.o)
    0x08005b78   0x00000062   Code   RO         1007    .text               mc_w.l(uldiv.o)
    0x08005bda   0x0000001e   Code   RO         1009    .text               mc_w.l(llshl.o)
    0x08005bf8   0x00000020   Code   RO         1011    .text               mc_w.l(llushr.o)
    0x08005c18   0x00000024   Code   RO         1013    .text               mc_w.l(llsshr.o)
    0x08005c3c   0x00000000   Code   RO         1022    .text               mc_w.l(iusefp.o)
    0x08005c3c   0x0000006c   Code   RO         1023    .text               mf_w.l(fepilogue.o)
    0x08005ca8   0x000000be   Code   RO         1025    .text               mf_w.l(depilogue.o)
    0x08005d66   0x000000a2   Code   RO         1027    .text               mf_w.l(dsqrt.o)
    0x08005e08   0x00000030   Code   RO         1029    .text               mf_w.l(dfixul.o)
    0x08005e38   0x00000028   Code   RO         1033    .text               mf_w.l(cdrcmple.o)
    0x08005e60   0x00000024   Code   RO         1035    .text               mc_w.l(init.o)
    0x08005e84   0x00000020   Code   RO          930    i.__0printf         mc_w.l(printfa.o)
    0x08005ea4   0x0000000e   Code   RO         1039    i.__scatterload_copy  mc_w.l(handlers.o)
    0x08005eb2   0x00000002   Code   RO         1040    i.__scatterload_null  mc_w.l(handlers.o)
    0x08005eb4   0x0000000e   Code   RO         1041    i.__scatterload_zeroinit  mc_w.l(handlers.o)
    0x08005ec2   0x00000002   PAD
    0x08005ec4   0x0000000c   Code   RO         1017    i.__set_errno       mc_w.l(errno.o)
    0x08005ed0   0x0000015c   Code   RO          937    i._fp_digits        mc_w.l(printfa.o)
    0x0800602c   0x000006f0   Code   RO          938    i._printf_core      mc_w.l(printfa.o)
    0x0800671c   0x00000026   Code   RO          939    i._printf_post_padding  mc_w.l(printfa.o)
    0x08006742   0x00000030   Code   RO          940    i._printf_pre_padding  mc_w.l(printfa.o)
    0x08006772   0x0000004c   Code   RO          687    i.sqrt              m_ws.l(sqrt.o)
    0x080067be   0x00000002   PAD
    0x080067c0   0x00000020   Data   RO         1037    Region$$Table       anon$$obj.o


    Execution Region RW_IRAM1 (Base: 0x20000000, Size: 0x00000938, Max: 0x00010000, ABSOLUTE)

    Base Addr    Size         Type   Attr      Idx    E Section Name        Object

    0x20000000   0x00000014   Data   RW          360    .data               stm32f10x_rcc.o
    0x20000014   0x00000014   Data   RW          466    .data               system_stm32f10x.o
    0x20000028   0x00000004   Data   RW          491    .data               delay.o
    0x2000002c   0x00000009   Data   RW          506    .data               ad1246.o
    0x20000035   0x0000000a   Data   RW          540    .data               usart.o
    0x2000003f   0x00000006   Data   RW          567    .data               usartdata.o
    0x20000045   0x00000003   PAD
    0x20000048   0x00000008   Data   RW          623    .data               stc15f104w.o
    0x20000050   0x00000010   Data   RW          642    .data               motos.o
    0x20000060   0x00000004   Data   RW         1004    .data               mc_w.l(stdout.o)
    0x20000064   0x00000004   Data   RW         1018    .data               mc_w.l(errno.o)
    0x20000068   0x00000078   Zero   RW          505    .bss                ad1246.o
    0x200000e0   0x00000027   Zero   RW          539    .bss                usart.o
    0x20000107   0x00000001   PAD
    0x20000108   0x00000018   Zero   RW          566    .bss                usartdata.o
    0x20000120   0x00000408   Zero   RW          641    .bss                motos.o
    0x20000528   0x00000010   Zero   RW          661    .bss                test.o
    0x20000538   0x00000400   Zero   RW          483    STACK               startup_stm32f10x_hd.o


==============================================================================

Image component sizes


      Code (inc. data)   RO Data    RW Data    ZI Data      Debug   Object Name

      1320         42          0          9        120       3963   ad1246.o
         0          0          0          0          0         32   core_cm3.o
       172          8          0          4          0        955   delay.o
        60          6          0          0          0        493   iosetup.o
       284         12          0          0          0       1067   limit.o
       384         58          0          0          0     269672   main.o
       220         20          0          0          0       1861   misc.o
      2148        104          0         16       1032       6903   motos.o
       164         10          0          0          0        694   spi.o
        36          8        304          0       1024        864   startup_stm32f10x_hd.o
       124          6          0          8          0       1425   stc15f104w.o
       284         10          0          0          0       2299   stm32f10x_exti.o
      1468         34          0          0          0       8090   stm32f10x_flash.o
       856         40          0          0          0       5705   stm32f10x_gpio.o
       324         20          0          0          0       2144   stm32f10x_it.o
       932         44          0         20          0       8876   stm32f10x_rcc.o
       780         14          0          0          0       6590   stm32f10x_spi.o
      3610         88          0          0          0      22196   stm32f10x_tim.o
      1032         22          0          0          0       8432   stm32f10x_usart.o
       476         36          0         20          0       1755   system_stm32f10x.o
      1066         30          0          0         16       1698   test.o
      1180         50          0         10         39       4736   usart.o
      4600        180          0          6         24       4827   usartdata.o

    ----------------------------------------------------------------------
     21522        842        336         96       2256     365277   Object Totals
         0          0         32          0          0          0   (incl. Generated)
         2          0          0          3          1          0   (incl. Padding)

    ----------------------------------------------------------------------

      Code (inc. data)   RO Data    RW Data    ZI Data      Debug   Library Member Name

        76          0          0          0          0         84   sqrt.o
         0          0          0          0          0          0   entry.o
         0          0          0          0          0          0   entry10a.o
         0          0          0          0          0          0   entry11a.o
         8          4          0          0          0          0   entry2.o
         4          0          0          0          0          0   entry5.o
         0          0          0          0          0          0   entry7b.o
         0          0          0          0          0          0   entry8b.o
         8          4          0          0          0          0   entry9a.o
        12          6          0          4          0         68   errno.o
        30          0          0          0          0          0   handlers.o
        36          8          0          0          0         68   init.o
         0          0          0          0          0          0   iusefp.o
        30          0          0          0          0         68   llshl.o
        36          0          0          0          0         68   llsshr.o
        32          0          0          0          0         68   llushr.o
      2242         90          0          0          0        444   printfa.o
         0          0          0          4          0          0   stdout.o
        44          0          0          0          0         80   uidiv.o
        98          0          0          0          0         92   uldiv.o
        40          2          0          0          0         68   cdrcmple.o
        20          0          0          0          0         68   cfcmple.o
        20          0          0          0          0         68   cfrcmple.o
        56          0          0          0          0         88   d2f.o
       334          0          0          0          0        148   dadd.o
       222          0          0          0          0        100   ddiv.o
       190          0          0          0          0        176   depilogue.o
        50          0          0          0          0         76   dfixui.o
        48          0          0          0          0         68   dfixul.o
        26          0          0          0          0         76   dfltui.o
       228          0          0          0          0         96   dmul.o
       162          0          0          0          0        100   dsqrt.o
        38          0          0          0          0         68   f2d.o
       176          0          0          0          0        140   fadd.o
       128          0          0          0          0         88   fdiv.o
       108          0          0          0          0        168   fepilogue.o
        50          0          0          0          0         68   ffixi.o
        40          0          0          0          0         68   ffixui.o
        18          0          0          0          0         68   fflti.o
        10          0          0          0          0         68   ffltui.o
       108          0          0          0          0         76   fmul.o

    ----------------------------------------------------------------------
      4734        114          0          8          0       2984   Library Totals
         6          0          0          0          0          0   (incl. Padding)

    ----------------------------------------------------------------------

      Code (inc. data)   RO Data    RW Data    ZI Data      Debug   Library Name

        76          0          0          0          0         84   m_ws.l
      2580        112          0          8          0        956   mc_w.l
      2072          2          0          0          0       1944   mf_w.l

    ----------------------------------------------------------------------
      4734        114          0          8          0       2984   Library Totals

    ----------------------------------------------------------------------

==============================================================================


      Code (inc. data)   RO Data    RW Data    ZI Data      Debug   

     26256        956        336        104       2256     364725   Grand Totals
     26256        956        336        104       2256     364725   ELF Image Totals
     26256        956        336        104          0          0   ROM Totals

==============================================================================

    Total RO  Size (Code + RO Data)                26592 (  25.97kB)
    Total RW  Size (RW Data + ZI Data)              2360 (   2.30kB)
    Total ROM Size (Code + RO Data + RW Data)      26696 (  26.07kB)

==============================================================================

