:020000040800F2
:1000000040490020FD330008450100084701000871
:100010004B0100084F0100085301000800000000D8
:100020000000000000000000000000005701000870
:1000300059010008000000005B0100085D01000894
:100040001734000817340008173400081734000864
:100050001734000817340008173400081734000854
:100060001734000817340008173400081734000844
:100070001734000817340008173400081734000834
:100080001734000817340008173400081734000824
:100090001734000817340008173400081734000814
:1000A0001734000817340008173400081734000804
:1000B00017340008173400081734000817340008F4
:1000C00017340008173400081734000817340008E4
:1000D00017340008BD35000817340008173400082D
:1000E0005F010008173400081734000817340008AF
:1000F00017340008173400081734000817340008B4
:100100001734000817340008E70100081734000806
:100110001734000817340008173400081734000893
:100120001734000817340008173400081734000883
:10013000DFF80CD004F0A8F900480047BD0F000814
:1001400040490020704700BFFEE700BFFEE700BF48
:10015000FEE700BFFEE7704770477047704710B575
:100160004FF4006001F0ACF900283BD04FF400617F
:10017000224801F0B2FAA0B92148007801280CD138
:1001800000201F4908701F4802F01DFE1E4908800C
:1001900000211C4802F060FB03E00021194802F036
:1001A0005BFB4FF40061154801F097FA90B1012014
:1001B0001349087000201449088014480088401C26
:1001C0001249088000210F4802F0DAFD01210D4894
:1001D00002F042FB4FF4006001F06EF94FF4006052
:1001E00001F07FF910BD10B50121064802F0FDFDB8
:1001F00018B10121034802F009FE10BD00080140BA
:1002000000000020000C00403000002032000020E0
:1002100070B504460D46E1B2FA4802F037FF00BF60
:10022000F848008800F080000028F9D0204670BD12
:1002300000B585B00121480501F087FE01210820A5
:1002400001F076FEC020ADF8000003208DF802001A
:100250001C208DF803006946EB4801F0ABF9EB4830
:1002600001F0F6FA0020ADF808004BF6FF70ADF88B
:100270000A003020ADF80C004FF48060ADF80E009D
:100280000001ADF81000E24801900121DF4801F0C3
:1002900076FB01A9DD4801F0F4FA0121DB4801F009
:1002A000AAFBDCA004F002F905B000BD00B585B0E2
:1002B0000121880501F049FE0121082001F038FEE6
:1002C0004FF44060ADF8000003208DF802001C20C0
:1002D0008DF803006946CC4801F06CF9D44801F070
:1002E000B7FA0020ADF808004BF6FF70ADF80A0031
:1002F0003020ADF80C004FF48060ADF80E00000126
:10030000ADF81000C24801900121C94801F037FB47
:1003100001A9C74801F0B5FA0121C54801F06BFBFE
:10032000C4A004F0C3F805B000BD08B50121082041
:1003300001F0FEFD0121480501F007FEC020ADF8E7
:10034000000003208DF8020018208DF80300694694
:10035000AD4801F02FF908BD1FB50020ADF804002D
:100360004BF6FF70ADF806003020ADF808004FF4F2
:100370008060ADF80A000001ADF80C0044F6206082
:1003800000900121A14801F0FAFA69469F4801F066
:1003900078FA1FBD08B50121082001F0C9FD01212F
:1003A000880501F0D2FD4FF44060ADF80000032055
:1003B0008DF8020018208DF803006946924801F07C
:1003C000F9F808BD1FB50020ADF804004BF6FF702A
:1003D000ADF806003020ADF808004FF48060ADF8AD
:1003E0000A000001ADF80C008948009001219048F6
:1003F00001F0C5FA69468E4801F043FA1FBD10B5F9
:1004000003F0C5F800F087FE482003F009F810BD9E
:100410002DE9FC4704464FF0000903F0E1F803F032
:1004200010FB8B49086803F067FE05460E468949B4
:10043000086803F061FE07463A460B4686A0CDE900
:10044000005604F033F8824951F8340003F054FEAA
:1004500005460E467F4951F8340003F04DFE07462D
:100460003A460B4683A0CDE9005604F01FF8794ABE
:100470001168774A52F8340003F0E7FB0546744AE6
:100480001168744A52F8340003F0DFFB064629462F
:1004900003F09CFE7ED26E4A11686E4A52F8340018
:1004A00003F0D3FB05466B4A1168694A52F83400E1
:1004B00003F0CBFB0646294603F0F9FB814672495F
:1004C000484603F0C2FB074603F016FE05462A46DF
:1004D0000B466EA003F0EAFF49464FF07E5003F052
:1004E000AEFB8246684903F0B0FB80466C4903F0DE
:1004F00054FB054603F000FE064632460B4669A053
:1005000003F0D4FF10236CA20021084603F06AFA1E
:1005100049464FF07E5003F092FB07465A4903F0DC
:1005200094FB06465E4903F038FB0546644903F038
:100530004DFE06D2102363A20021282003F052FAB8
:1005400018E049464FF07E5003F079FB80464E4953
:1005500003F07BFB0746524903F01FFB064603F0FE
:1005600098FD0546102004232A46002100902820EB
:1005700003F0EEF9102354A20021502003F032FAC8
:100580000C2352A21E21002003F02CFA03F0B3F832
:1005900017E0FFE750A003F089FF102346A20021D7
:1005A000084603F01FFA10234FA20021282003F071
:1005B00019FA0C2345A21E21002003F013FA03F0C0
:1005C0009AF8BDE8FC872DE9F04105460F460A245C
:1005D000264655F8348000BF0AE055F834104046EE
:1005E00003F0EAFD02D255F834802646601C84B23E
:1005F000BC42F2DB31463EA003F058FF3046BDE876
:10060000F081000000380140000C0140005400401F
:10061000A0860100493243315F436F6E666967759A
:10062000726174696F6E2D2D2D2D0A0D0000000072
:1006300000580040493243325F436F6E6669677508
:10064000726174696F6E2D2D2D2D0A0D0000000052
:10065000C0200020400000200D0A207A68696C69E3
:10066000752073313D25662C73323D2566200D0AB9
:10067000000000000D0A2073313D25662C73323DC9
:100680002566200D0A0000000000C8420D0A7370A4
:1006900030325F6E756D20203A2025660D0A00000D
:1006A000000048420D0AD1AAD1F5BAACC1BFCEAA0A
:1006B0003A2025660D0A000053704F323A000000C0
:1006C0000000C6423939000025000000486561720B
:1006D0007420526174653A000D0A20D1CFD6D8C873
:1006E000B1D1F521200D0A00414E4F58494121005A
:1006F0006D61785F6E756D5F696E6465783D2564C8
:100700000D0A00000FB47CB504460A99089803F05E
:100710009CFA05460999079803F097FA0646294678
:1007200003F08DFA0090DDE9080103F08EFA05462A
:100730000A99079803F089FA0646294603F02DFA2C
:100740000190DDE90001C4E900017CBC5DF814FB07
:100750002DE9FC4104460D46CDE90045019800F025
:10076000004080B12046294603F0A7FC804603F0F4
:1007700064FC07464FF07E5103F061FA064603F031
:10078000BBFCBDE8FC812046294603F096FC0746E9
:1007900003F053FC064603F0AFFCF2E72DE9FC5FE3
:1007A00006460F4614461D4600221346204629469B
:1007B00003F0B6FC03D100200146BDE8FC9F2246B1
:1007C0002B463046394603F0C9FB8246FFF7C0FF8F
:1007D000CDE9000122462B46DDE9000103F04CFB88
:1007E000824632463B4603F044FB8046894600225F
:1007F00013463046394603F093FC02D24FF0010A0B
:1008000001E04FF0000A002213462046294603F07B
:1008100087FC01D2012000E00020824507D022465B
:100820002B464046494603F021FB80468946404618
:100830004946C2E72DE9F04F93B004460D464FF00C
:10084000000B002213462046294603F069FC03D220
:100850004FF0010B85F00045F64AF74B204629463C
:10086000FFF79CFF04460D46F24AF44B204629460A
:1008700003F06EFC0ED2BBF1000F01D1012000E0AD
:1008800000208346EB4AED4B2046294603F0EEFA62
:1008900004460D46E74AEA4B2046294603F058FC39
:1008A00007D2E44AE54B2046294603F0E2FA044623
:1008B0000D46E44AE44B2046294603F04FFBCDE9C0
:1008C0000E0103F0FAFB8246504603F0C4FBDD4AFA
:1008D000DD4BCDE90C0103F0CFFA22462B46CDE9E2
:1008E0000E0103F0C6FA06460F46D64AD74B3046ED
:1008F000394603F02DFC09D20AF1010AD14AD24B44
:100900003046394603F0B2FA06460F46D04800EBAF
:10091000CA00D0E90089CAF16400CD4901EBC000EA
:1009200003C8CDE9100132463B463046394603F054
:10093000A3FA32463B46CDE9040103F09DFA324664
:100940003B46CDE9060103F097FA42464B46CDE916
:10095000080103F091FA0022BE4BCDE90A0103F031
:10096000FDFA32463B46CDE90E013046394603F0EA
:1009700083FA32463B46CDE9020103F07DFACDE928
:100980000401DDE9102303F077FA0022B24BCDE930
:10099000060103F0E3FA32463B46CDE90A01304650
:1009A000394603F069FA42464B46CDE9000103F0AF
:1009B00063FA00224FF08043CDE9020103F0CEFA42
:1009C000CDE9060130463946DDE9102303F054FA3B
:1009D00042464B46CDE9020103F0A7F9CDE90401F7
:1009E000DDE9062303F042FACDE90801DDE90A2337
:1009F00003F03CFACDE90C01DDE90E2303F095F993
:100A000004460D46BBF1000F05D0204685F000419D
:100A100013B0BDE8F08F20462946F9E72DE9F041F3
:100A200004460D46834A864B2046294603F07DF94D
:100A30000646FFF7FFFEBDE8F0812DE9F04F91B0CB
:100A4000044600264FF400700E9040F2FF300D90E7
:100A500000251CE0B5420FDA04EBC60103C9CDE95D
:100A6000060104EBC60004EBC50206CA06C004EB8F
:100A7000C500DDE9061206C00E9F04E0F61B3846ED
:100A800007EBD0714F10B742F8DD3E446D1C0D9856
:100A90008542DFDB4FF480600F9001200C9002E074
:100AA0000C98401C0C900F9800EBD07149100F91DE
:100AB0000129F5D188467BE0A8F10100022101FA65
:100AC00000F9484609EBD0714FEA610A4FF07E50B9
:100AD0000A9000200B90504603F0BDFA02460B46E8
:100AE000CDE900015348554903F038FACDE9020138
:100AF000FFF794FFCDE9040103F042FB0890504654
:100B000003F0A9FA02460B46CDE9000149484B49DA
:100B100003F024FACDE90201FFF78CFE81F00041D9
:100B2000CDE9040103F02CFB099000263AE035469C
:100B30002CE005EB0A0B0B9804EBCB0C00900A9B06
:100B400006A8DCE90012FFF7DDFD54F83500069930
:100B500003F075F844F83B0004EBC50207995068B0
:100B600003F06DF804EBCB01486054F835000699AA
:100B700003F013F844F8350004EBC50207995068F8
:100B800003F00BF804EBC50148604D44B5F5806FE8
:100B9000CFDB099800900AA8089BDDE90A12FFF74D
:100BA000B1FD761CAAF10100B042C0DA08F10108DB
:100BB0000C98804580DD11B0BDE8F08F2DE9F0473D
:100BC00082460C46174600253E4600F0C4FAAE2089
:100BD00000F0D8FA00F023FB00B14FE0504600F0DF
:100BE000D1FA00F01CFB00B148E000F0B4FAAF20ED
:100BF00000F0C8FA00F013FB00B13FE039E000F06C
:100C0000EDFA804600F02BFB00F0E8FA814600F098
:100C100026FB49EA082024F8250000F0DFFA804688
:100C200000F01DFB00F0DAFA8146012E16D100F02B
:100C300030FB15E0182D4454FB211940FB210940DD
:100C4000FB21F93F1A271792BF15903FBF15803F30
:100C5000B84D0008000038400000184000F0FFFACE
:100C600049EA082004EB85014880701EC6B2681C62
:100C7000C5B2002EC3D100F03CFA00BF00F039FA33
:100C8000BDE8F08770B5044600F065FAAE2000F0CC
:100C900079FA00F0C4FA00B118E0204600F072FAC8
:100CA00000F0BDFA00B111E000F055FAAF2000F0FD
:100CB00069FA00F0B4FA00B108E000F08FFA0546D6
:100CC00000F0E7FA00F015FA284670BD00F011FABE
:100CD0000020FAE798B04FF0000B00BFD946CA4693
:100CE00002F07EFC02F0ADFE23E10020FFF7CAFF18
:100CF00083460BF080000028F6D00F2208A90520BB
:100D0000FFF75CFF002400BF2DE0CC480088B0F561
:100D1000806F26DA08A931F8240003F097F9C84952
:100D2000C64A128841F832000021C548C34A1288D9
:100D300000EBC200416008A901EB8401488803F080
:100D400085F9C049BD4A128841F832000020BB4AEB
:100D5000128801EBC2014860B8480088401CB749BE
:100D60000880601C84B20F2CCFDBB4480088B0F53B
:100D7000806F7CDB002000BF01E0411C88B2282886
:100D8000FBDBAF48FFF759FEAE48FFF756FE0024E5
:100D900039E0AB4A02EBC4025168A94A02EBC40233
:100DA000506802F052FF0746A54A52F8341052F834
:100DB000340002F04AFF8046394602F0EEFE054656
:100DC00003F0E3FF9E4941F834009E4A02EBC4025F
:100DD00051689C4A02EBC402506802F036FF074695
:100DE000984A52F8341052F8340002F02EFF804630
:100DF000394602F0D2FE054603F0C7FF914941F89B
:100E00003400601C84B2B4F5806FC2DB0A2538E080
:100E10008B4951F8350003F06FF90746884628469C
:100E200003F02AF90022884BCDE9040103F024F8ED
:100E300002460B46CDE902780095CDE9060183A074
:100E400003F034FB7F4951F8350003F055F9CDE943
:100E50000601284603F010F9074600227A4B03F0FA
:100E60000BF8CDE90401DDE90601009500E05FE043
:100E7000CDE902017CA0DDE9042303F017FB681C27
:100E800085B23C2DC4DB3C216D48FFF79CFB8146BD
:100E90003C216C48FFF797FB8246D1452DD109EBE9
:100EA0000A0101EBD172521040F6B83302FB03F095
:100EB000C21700EB9252C2F38F26314671A003F0A5
:100EC000F5FA4846FFF7A4FA1023AFF61402002102
:100ED000084602F087FD0C236EA21E21002002F0BE
:100EE00081FD1020A6F10A0204231E210090462055
:100EF00002F02EFD02F0FFFB17E069A003F0D6FA26
:100F00001023AFF64C020021084602F06BFD0C23C3
:100F100060A21E21002002F065FD102369A21E219F
:100F2000462002F05FFD02F0E6FB00204349088006
:100F300000BFDAE670B505460C4600F00CF9AE20AD
:100F400000F020F900F06BF900B111E0284600F044
:100F500019F900F064F900B10AE0204600F012F936
:100F600000F05DF900B103E000F0C3F8012070BDAE
:100F700000F0BFF80020FAE710B50B210620FFF7BC
:100F8000D9FFF0210120FFF7D5FF00210846FFF728
:100F9000D1FF33210920FFF7CDFF43210720FFF7C1
:100FA000C9FF00210220FFF7C5FF00210320FFF742
:100FB000C1FF0F210420FFF7BDFF10BD00BFFFF7E9
:100FC0001EFAFFF7D9FF41A003F070FA02F008FB08
:100FD00002F037FD1023AFF620120021084602F080
:100FE00001FD1023AFF61C121E21002002F0FAFCB6
:100FF00002F081FB01E0FFF76DFEFCE7002001E05D
:10100000411CC8B21E28FBDB704730B502460023E6
:101010000021002400250DE04900980000EB9273A8
:101020009200012000EB41049C4201D81B1B491C8B
:10103000681C85B2102DEFDB88B230BD02000020A5
:1010400040000020C02000200000A93F663D25335D
:101050002E336620485A2C73315B2533645D203D66
:10106000202566200D0A0000663D25332E336620BC
:10107000485A2C73325B2533645D203D2025662061
:101080000D0A00000D0AD0C4C2CACEAA3A202564B7
:101090000D0A000048656172745F526174653A0020
:1010A0000D0A20B2E2C1BFCAA7B0DCA3AC2020C7A2
:1010B000EBD1B9BAC3D6D8D0C2B2E2C1BF210D0AB2
:1010C000000000004552524F520000000D0A2073EC
:1010D000746D333220696E69742072756E696E6743
:1010E000200D0A00002001E0411CC8B21E28FBDBD5
:1010F000704710B54FF400607F4908604010091F29
:101100000860FFF7EFFF4FF400607B49091F08609C
:10111000FFF7E8FF10BD08B50121082000F008FF27
:1011200003208DF8020014208DF803004FF4806036
:10113000ADF8000069467048143800F03BFA4FF4EF
:101140000060ADF8000069466B48143800F032FAD0
:10115000FFF7CFFF08BD10B54FF400606649091FC7
:10116000086040100860FFF7BDFF4FF4006062495F
:101170000860FFF7B7FF4FF480605F490860FFF732
:10118000B1FF10BD70B50446002524E004F08000D6
:1011900028B14FF400605849091F086003E04FF47C
:1011A000006055490860FFF79DFF4FF48060524989
:1011B000091F0860FFF796FF4FF480604E490860F2
:1011C000072D02D14000091F08606006040EFFF7DA
:1011D00089FF681CC5B2082DD8DB70BD70B500242E
:1011E000002518E06006040E4FF480604249091F94
:1011F0000860FFF777FF40480C38006800F4006093
:1012000008B1601CC4B24FF480603B490860FFF72E
:1012100069FF681CC5B2082DE4DB204670BD10B51F
:101220004FF400603449091F0860FFF75BFF4FF47B
:1012300080603149091F0860FFF754FF2E480C38C1
:10124000006800F4006008B1012400E000244FF4BD
:10125000806029490860FFF745FF204610BD10B5A2
:101260004FF4006024490860FFF73CFF4FF48060B2
:101270002149091F0860FFF735FF4FF480601E49C0
:101280000860FFF72FFF4FF400601B49091F08603B
:1012900010BD10B54FF400601749091F0860FFF733
:1012A00021FF4FF480601449091F0860FFF71AFFFF
:1012B0004FF4806010490860FFF714FF10BD70B54F
:1012C00004460D480C38006800F4006088B10A48F4
:1012D0000C38006800F4806058B1FFF73CFF2046EE
:1012E000FFF750FFFFF79BFF0546FFF702FF284679
:1012F00070BD0120FCE70000140C0140314901439E
:10130000314A1160704770B5002100230F22C47864
:1013100004B32D4C246804F4E064C4F5E064210AAD
:10132000C1F10403CA40447804FA03F184781440FC
:1013300021430901254C0678A155047804F01F05C6
:101340000124AC4005786D11AD0005F1E025C5F82C
:10135000004109E0047804F01F050124AC401C4D55
:101360000678761145F8264070BD1A4A0A400243B5
:10137000154B1B1F1A60704739B1134A121D1268B2
:101380000243114B1B1D1A6006E00F4A121D126822
:1013900082430D4B1B1D1A607047042808D14FF083
:1013A000E021096941F004014FF0E022116107E0FA
:1013B0004FF0E021096921F004014FF0E0221161B2
:1013C000704700000000FA050CED00E000E400E0CA
:1013D00080E100E080FFFF1F002044490860091DF4
:1013E0000860091D0860091D086041483F49143123
:1013F0000860704700213D498279002A3AD00A46A8
:10140000126803689A430B461A600A1D1268036843
:101410009A430B1D1A60027911440A6803681A4343
:101420000A60324A0832126803689A432F4B083325
:101430001A601A1D126803689A432C4B0C331A6009
:101440004279102A0ED11A1F126803681A43274BDB
:1014500008331A601A1D126803681A43234B0C33B1
:101460001A600DE02149427911440A6803681A4361
:101470000A6005E0027911440A6803689A430A6029
:1014800070470021016001710C21417100218171BF
:1014900070471649103109680143144A103211602F
:1014A000704701460020114A143212680A400AB1FE
:1014B000012000E0002070470C491431086070479B
:1014C000014600200022094B1B6803EA0102074B7A
:1014D00014331B680B4013B10AB1012000E0002057
:1014E0007047024914310860704700000004014051
:1014F000FFFF0F0010B50446CC48844208D10121FB
:10150000042000F02FFD0021042000F02BFD46E018
:10151000C748844208D10121082000F023FD0021A2
:10152000082000F01FFD3AE0C248844208D10121A2
:10153000102000F017FD0021102000F013FD2EE018
:10154000BD48844208D10121202000F00BFD00217C
:10155000202000F007FD22E0B848844208D1012194
:10156000402000F0FFFC0021402000F0FBFC16E0D2
:10157000B348844208D10121802000F0F3FC00210F
:10158000802000F0EFFC0AE0AE48844207D1012140
:10159000801500F0E7FC0021A01500F0E3FC10BD71
:1015A00010B50121084600F0DDFC0021012000F00B
:1015B000D9FC10BD2DE9F04102460025002600208F
:1015C00000230024002791F803C00CF00F0591F8C8
:1015D00003C00CF0100CBCF1000F03D091F802C056
:1015E0004CEA050591F800C0BCF1000F31D0146839
:1015F00000202BE04FF0010C0CFA00F3B1F800C012
:101600000CEA03069E4220D183004FF00F0C0CFA27
:1016100003F7BC4305FA03FC4CEA040491F803C049
:10162000BCF1280F06D14FF0010C0CFA00FCC2F8F7
:1016300014C00AE091F803C0BCF1480F05D14FF087
:10164000010C0CFA00FCC2F810C0401C0828D1D3D1
:101650001460B1F800C0BCF1FF0F34DD5468002005
:101660002EE000F1080C4FF0010808FA0CF3B1F875
:1016700000C00CEA03069E4221D183004FF00F0CFC
:101680000CFA03F7BC4305FA03FC4CEA040491F896
:1016900003C0BCF1280F05D100F1080C08FA0CF8C2
:1016A000C2F8148091F803C0BCF1480F07D100F1D3
:1016B000080C4FF0010808FA0CF8C2F81080401C22
:1016C0000828CED35460BDE8F0814FF6FF71018049
:1016D000022181700421C170704702460020936886
:1016E0000B400BB1012000E00020704701468868E4
:1016F00080B2704702460020D3680B400BB1012036
:1017000000E0002070470146C86880B27047016160
:101710007047416170470AB1016100E04161704763
:10172000C16070474FF480320A43826181618261F7
:1017300082698269704702460020434B18684FF661
:101740008073184040EA021008433F4B186070470E
:101750003E49C8617047F0B50A46002300240021C5
:10176000002500F00046B6F1004F02D1364EF16977
:1017700001E0354E7168C0F3034583B200F44016B2
:10178000B6F5401F08D121F070612F4E766826F023
:1017900070662D4F7E6012E000F48016B6F5801F53
:1017A00006D1032606FA05F4A14341F0706106E074
:1017B000460D360103FA06F6B14341F0706122B1DD
:1017C000460D360103FA06F6314300F00046B6F145
:1017D000004F02D11C4EF16101E01B4E7160F0BD63
:1017E00030B500228B071C0F0F2303FA04F2164BAF
:1017F00008338C1053F824309343134C08348D1065
:1018000044F8253023468C1053F824308C07240FDD
:1018100000FA04F423430C4C08348D1044F82530AE
:1018200030BD0A49DC310860704700000008014003
:10183000000C01400010014000140140001801405C
:10184000001C014000200140000001400000204237
:1018500010B50446F748844209D10121480500F03B
:101860008EFB00214FF4001000F089FB08E00121FD
:10187000880500F084FB00214FF4800000F07FFB1E
:1018800010BD2DE9F04385B004460D460026B14653
:101890000427DFF8A483A6884FF6C0700640684688
:1018A00000F0D9FADDF80880E448B8FBF0F01FFA40
:1018B00080F946EA0906A68020884FF6FE710840A6
:1018C00020800026DE49286888420CD8286840001D
:1018D000B8FBF0F087B2042F00DA04273E4309F189
:1018E0000100208427E0E8884BF6FF71884206D18A
:1018F000286800EB4000B8FBF0F087B209E02868E8
:1019000000EBC00101EB0010B8FBF0F087B247F428
:101910008047C7F30B0008B947F0010747F40040C0
:1019200006434FF4967009FB00F04FF47A7190FB78
:10193000F1F0401C2084A683208840F00100208024
:1019400026884FF6F5300640A88869890843064383
:101950002680A88929890843208105B0BDE8F08345
:1019600041F288310160002181804BF6FF71C18016
:101970000021018141814FF480418181704721B173
:10198000028842F00102028004E002884FF6FE73F2
:101990001A400280704721B1828842F4006282803E
:1019A00004E082884FF2FF731A408280704721B1B1
:1019B000828842F48052828004E082884EF6FF736F
:1019C0001A408280704721B1028842F480720280FE
:1019D00004E002884FF6FF631A400280704721B18D
:1019E000028842F40072028004E002884FF6FF533E
:1019F0001A400280704721B1028842F4806202805E
:101A000004E002884FF6FF331A40028070470A460E
:101A1000002181894FF60173194002F0FE0319433A
:101A20008181704721B1828942F00102828104E004
:101A300082894FF6FE731A408281704721B1028875
:101A400042F04002028004E002884FF6BF731A4061
:101A5000028070471AB183880B43838002E0838839
:101A60008B4383807047018270470146088AC0B269
:101A7000704712B141F0010102E04FF6FE731940C8
:101A80000182704708B5024600200090009200983D
:101A9000084400900098008808BD21B1028842F4F3
:101AA0000042028003E00288C2F30E020280704707
:101AB000B1F5006F04D1028842F40062028004E0B4
:101AC00002884FF2FF731A4002807047B1F5005F41
:101AD00004D1028842F40052028004E002884DF6EC
:101AE000FF731A400280704721B1028842F480528D
:101AF000028004E002884EF6FF731A4002807047AD
:101B0000B1F5006F04D1028842F40062028004E063
:101B100002884FF2FF731A400280704721B1028899
:101B200042F02002028004E002884FF6DF731A4080
:101B3000028070470146088B0012704721B102886D
:101B400042F01002028004E002884FF6EF731A4060
:101B50000280704721B9028842F08002028004E0CE
:101B600002884FF67F731A4002807047B1F5804FAC
:101B700005D0828B4BF6FF731A40828303E0828B81
:101B800042F480428283704770B5024600240025EB
:101B900000230020958A138B1B0445EA030626F0D8
:101BA0007F4404EA01068E4201D1012000E00020BA
:101BB00070BD10B501460020002300228B8A0A8BDD
:101BC000120443EA020424F07F4010BD0CB5024623
:101BD000002000230193009300920B0F019321F04A
:101BE0007F41019B1BB1009B1433009303E0090C60
:101BF000009B18330093009B1B680B400BB1012026
:101C000000E000200CBD002221F07F42D3438382FC
:101C1000704730B5024600200023948801F0E0654B
:101C200004EA154321F07F41948A0C4054B14BB132
:101C3000012008E00054004000127A0040420F00EA
:101C4000A0860100002030BD002221F07F42D34356
:101C500083827047DF48006840F00100DD4908607A
:101C600008464068DC490840DA4948600846006890
:101C7000DA490840D74908600846006820F4802007
:101C800008600846406820F4FE0048604FF41F00DA
:101C900088607047CF49096821F48031CD4A1160CE
:101CA0001146096821F480211160B0F5803F03D00E
:101CB000B0F5802F0ED106E0C649096841F48031A5
:101CC000C44A116007E0C349096841F4A021C14A30
:101CD000116000E000BF00BF704710B50146002250
:101CE000002300204A11012A02D1BA4C236806E0E1
:101CF000022A02D1B74C236A01E0B64C636A01F0B4
:101D00001F02012494401C400CB1012000E000207F
:101D100010BD38B5002000900024002500BF312000
:101D2000FFF7DBFF05460098401C00900098B0F5D7
:101D3000A06F01D0002DF2D03120FFF7CEFF08B107
:101D4000012400E00024204638BD01460020A14ABD
:101D5000106820F0F80040EAC10010607047A04908
:101D600008607047024600209A4B586820F47C10A7
:101D700042EA01031843974B586070479849086638
:101D8000704701460020934A506820F00300084342
:101D9000506070478F48406800F00C007047014663
:101DA00000208C4A506820F0F000084350607047D3
:101DB00001460020874A506820F4E06008435060E4
:101DC000704701460020834A506820F4605040EA82
:101DD000C1005060704729B17E4A527A02437D4B60
:101DE0005A7204E07B4A527A82437A4B5A727047A5
:101DF0007B49D8310860704701460020754A506819
:101E000020F440400843506070470021714A20325E
:101E10001170704A82F82010012802D004280AD1DB
:101E200004E001216B4A2032117005E00521694A66
:101E30002032117000E000BF00BF704769490860A0
:101E400070476449096A0143624A116270476549F3
:101E500044390860704730B5002100220024002377
:101E60005C4D6D6805F00C0121B1042905D00829ED
:101E700023D105E05C4D056022E05B4D05601FE06D
:101E8000544D6D6805F47012524D6D6805F4803440
:101E9000022505EB92421CB9544D554305600BE0F9
:101EA0004C4D6D6805F400351DB1504D554305602E
:101EB00002E04D4D5543056002E04B4D056000BF0B
:101EC00000BF444D6D6805F0F0010909484D6B5C99
:101ED0000568DD4045603F4D6D6805F4E061090A25
:101EE000434D6B5C4568DD4085603A4D6D6805F497
:101EF0006051C90A3E4D6B5C4568DD40C560354D9B
:101F00006D6805F44041890B3A4D6B5CC568B5FBC3
:101F1000F3F5056130BD29B12E4A526902432D4BBC
:101F20005A6104E02B4A526982432A4B5A61704736
:101F300029B1284A92690243264B9A6104E0254A56
:101F400092698243234B9A61704729B1214AD26931
:101F50000243204BDA6104E01E4AD26982431D4BE2
:101F6000DA61704729B11B4AD2680243194BDA6023
:101F700004E0184AD2688243164BDA60704729B1F0
:101F8000144A12690243134B1A6104E0114A1269A0
:101F90008243104B1A6170471249403908607047FC
:101FA0000F49C86470470B49C87170470948406AB7
:101FB00040F0807007494862704701460020054A9A
:101FC00092680A400AB1012000E0002070470149F0
:101FD00088727047001002400000FFF8FFFFF6FE15
:101FE000000042428004424200127A0000093D0093
:101FF000040000201400002010B50446FE4884426E
:1020000008D10121C014FFF7ADFF0021E014FFF754
:10201000A9FFC4E0B4F1804F08D101210846FFF7C1
:10202000AEFF00210120FFF7AAFFB8E0F348844289
:1020300008D101210220FFF7A2FF00210220FFF7B3
:102040009EFFACE0EE48844208D101210420FFF756
:1020500096FF00210420FFF792FFA0E0E9488442A8
:1020600008D101210820FFF78AFF00210820FFF78F
:1020700086FF94E0E448844208D101211020FFF754
:102080007EFF00211020FFF77AFF88E0DF488442BE
:1020900008D101212020FFF772FF00212020FFF747
:1020A0006EFF7CE0DA48844208D101214014FFF73A
:1020B00059FF00216014FFF755FF70E0D5488442B6
:1020C00009D10121C804FFF74DFF00214FF4002082
:1020D000FFF748FF63E0D048844209D10121080599
:1020E000FFF740FF00214FF48010FFF73BFF56E061
:1020F000CA48844209D101214805FFF733FF002176
:102100004FF40010FFF72EFF49E0C548844208D184
:1021100001214020FFF733FF00214020FFF72FFF70
:102120003DE0C048844208D101218020FFF727FF0D
:1021300000218020FFF723FF31E0BB48844208D113
:1021400001218015FFF71BFF0021A015FFF717FFE6
:1021500025E0B648844209D101210804FFF702FFB7
:1021600000214FF48030FFF7FDFE18E0B0488442B4
:1021700009D101214804FFF7F5FE00214FF400309A
:10218000FFF7F0FE0BE0AB48844208D10121880440
:10219000FFF7E8FE00214FF48020FFF7E3FE10BDBB
:1021A00000220288944B98420ED0994B98420BD053
:1021B000B0F1804F08D0914B984205D0904B984297
:1021C00002D0904B984204D14FF68F731A404B883F
:1021D0001A438D4B984207D08C4B984204D04FF64F
:1021E000FF431A40CB881A4302808B8883850B8873
:1021F0000385814B98420BD0854B984208D08B4B7E
:10220000984205D08A4B984202D08A4B984201D11D
:102210000B7A038601238382704770B50024002265
:102220000023058C4FF6FE7635400584028C8388AA
:10223000048B4FF68F752C40B51E2C400D882C4317
:10224000751E2A400D892A434D882A436A4DA842AB
:102250000BD06F4DA84208D0744DA84205D0744DE4
:10226000A84202D0734DA84213D14FF6F7752A4009
:102270004D892A434FF6FB752A408D882A434FF635
:10228000FF652B404FF6FF552B408D892B43CD89A1
:102290002B4383800483CD888586028470BD70B50E
:1022A000002400220023058C4FF6EF76354005848C
:1022B000028C8388048B48F6FF752C404FF6FF454F
:1022C0002C400D884FF6FF7606EA05252C434FF685
:1022D000DF752A400D8906EA05152A434D8806EA6E
:1022E00005152A43444DA84202D0494DA8421DD1AC
:1022F0004FF67F752A404D894FF6FF7606EA0515A1
:102300002A434FF6BF752A408D8806EA05152A43F1
:102310004FF6FF352B404FF2FF752B408D8906EAB3
:1023200085052B43CD8906EA85052B4383800483ED
:10233000CD880587028470BD70B50024002200237B
:10234000058C4FF6FF6635400584028C8388848BAC
:102350004FF68F752C404FF6FC752C400D882C43A2
:102360004FF6FF552A400D894FF6FF7606EA052500
:102370002A434D8806EA05252A431F4DA84202D06C
:10238000234DA8421DD14FF2FF752A404D894FF6CB
:10239000FF7606EA05252A434FF6FF352A408D8849
:1023A00006EA05252A434EF6FF752B404DF6FF75CC
:1023B0002B408D8906EA05152B43CD8906EA0515C4
:1023C0002B4383808483CD888587028470BD70B55C
:1023D000002200230024058C4EF6FF76354005844C
:1023E000038C8488828B48F6FF752A404FF6FF45A0
:1023F0002A400D8820E00000002C0140000400402D
:1024000000080040000C0040001000400014004094
:1024100000340140004C0140005001400054014094
:1024200000180040001C0040002000400040014017
:1024300000440140004801404FF6FF7606EA0525BA
:102440002A434DF6FF752B400D8906EA05352B43CF
:102450004D8806EA05352B43FA4DA84202D0FA4DC5
:10246000A84208D14BF6FF752C408D894FF6FF76B8
:1024700006EA85152C4384808283CD88A0F84050DD
:10248000038470BD828B4FF2FF331A408283828BAC
:102490004FF6FF7303EA01231A4382837047F0B5B6
:1024A0000C461546002200210026078C4EF6FF7CC4
:1024B00007EA0C070784828B018C4FF6FF7707EA47
:1024C000043640F6FF473A404FF6FF7707EA052704
:1024D0003A434FF6FF7707EA03373A43D94FB842FA
:1024E0000ED0D94FB8420BD0B0F1804F08D0D74FA3
:1024F000B84205D0D64FB84202D0D64FB84206D126
:102500004DF6FF77394046F48057394305E047F6EA
:10251000FF57394044F48057394382830184F0BD2A
:10252000828B4FF6F3731A408283828B0A43828335
:102530007047F0B50C461546002200210026078C96
:102540004FF6FF6C07EA0C070784828B018C4FF66D
:10255000FF7707EA04264FF60C773A404FF6FF77ED
:1025600007EA03172F433A43B64FB8420ED0B64F8F
:10257000B8420BD0B0F1804F08D0B44FB84205D06C
:10258000B34FB84202D0B34FB84206D14FF6FF570F
:10259000394046F48077394305E04FF2FF57394020
:1025A00044F48077394382830184F0BD028B4FF27B
:1025B000FF331A400283028B4FF6FF7303EA0123B5
:1025C0001A4302837047F0B50C46154600220021DD
:1025D0000026078C4FF6EF7C07EA0C070784028B76
:1025E000018C4FF6FF7707EA041640F6FF473A40A2
:1025F0004FF6FF7707EA03373A434FF6FF7707EACC
:1026000005273A438F4FB8420ED08F4FB8420BD0B8
:10261000B0F1804F08D08D4FB84205D08C4FB842F2
:1026200002D08C4FB84206D14FF6DF77394046F0E2
:102630001007394305E04FF65F77394044F0100743
:10264000394302830184F0BD028B4FF6F3731A40C5
:102650000283028B0A4302837047F0B50C4615468D
:1026600000220021068C4FF6FE773E400684028B46
:10267000018C4FF60C7632407E1C06EA03162E4380
:102680003243704EB0420ED06F4EB0420BD0B0F11C
:10269000804F08D06D4EB04205D06D4EB04202D092
:1026A0006C4EB04206D14FF6FD76314044F0010643
:1026B000314305E04FF6F576314044F001063143F1
:1026C00002830184F0BD70B505460C465D48854225
:1026D0000ED05D4885420BD0B5F1804F08D05B48E5
:1026E000854205D05A48854202D05A48854200D1D9
:1026F00000E000BF208850B92389A288618828465D
:10270000FFF7ABFFE1882846FFF79EFF25E0208812
:1027100004280AD12389A28861882846FFF753FF3D
:10272000E1882846FFF742FF17E0208808280AD1F1
:102730002389A28861882846FFF7FBFEE1882846A6
:10274000FFF7EEFE09E02389A28861882846FFF79B
:10275000A6FEE1882846FFF795FE70BD2DE9F04101
:1027600005460C4600260127608808B9022600E0CD
:102770000026A088012801D1022700E00127208837
:10278000A0B92389A28861882846FFF766FFE188FF
:102790002846FFF759FF23893A4631462846FFF776
:1027A00012FFE1882846FFF701FF13E02389A28882
:1027B00061882846FFF707FFE1882846FFF7F6FE05
:1027C00023893A4631462846FFF747FFE1882846E5
:1027D000FFF73AFFBDE8F0810A884B881A438B88DF
:1027E0001A43CB881A430B891A434B891A438B89A6
:1027F0001A43A0F8442070474FF6FF7181800021F2
:102800000180C180418001727047002101804180B8
:102810008180C180018141818181C1817047002116
:1028200001804180012181800021C18001817047A8
:102830000021018041808180C180018141818181AD
:1028400070470000002C01400034014000040040AB
:1028500000080040000C004021B1028842F0010253
:10286000028004E002884FF6FE731A40028070472F
:1028700031B1B0F8442042F40042A0F8442005E011
:10288000B0F84420C2F30E02A0F8442070471AB1F9
:1028900083890B43838102E083898B438381704763
:1028A0008182704741EA0203A0F8483070471AB1AC
:1028B00083890B43838102E083898B438381704743
:1028C00001894FF6F8721140018170470A460021D4
:1028D00001894FF68F73194011430181704730B55C
:1028E00004460D4629462046FFF7F0FF208940F0B8
:1028F0000700208130BD2DE9F04104460D46164603
:102900001F46602D06D13B46012231462046FFF787
:102910005AFE05E03B46012231462046FFF79DFE68
:1029200029462046FFF7D2FF208940F0070020818A
:10293000BDE8F08130B50C4600210189C9B24FF6DF
:10294000FF7505EA0325154325432943018130BD61
:102950002DE9F04105460E461746984600244346A9
:102960003A4631462846FFF7E5FF2C894FF6F870C6
:10297000044044F007044FF68F70044044F07004A4
:102980002C81BDE8F081F0B504460D4616461F4681
:102990003B46324629462046FFF7CCFF208940F4CB
:1029A00080402081F0BD0185828270470A46002167
:1029B00001884FF68F731940114301807047F0B5BD
:1029C0000C4615461E460021002200230189028B79
:1029D000038C4FF6F877394021434FF6FC473A40D5
:1029E00040F201173A434FF6DD773B404FF6FF7751
:1029F00007EA06172F433B43018102830384F0BD9E
:102A00000A460021018B4FF68F7319401143018351
:102A100070470A460021018B48F6FF7319404FF6B4
:102A2000FF7303EA02231943018370470A4600211A
:102A3000818B4FF68F7319401143818370470A468B
:102A40000021818B48F6FF7319404FF6FF7303EAAC
:102A5000022319438183704721B1028842F080022A
:102A6000028004E002884FF67F731A4002807047AC
:102A700021B1828842F00402828004E082884FF60D
:102A8000FB731A408280704721B1828842F00802AD
:102A9000828004E082884FF6F7731A408280704784
:102AA00021B1828842F00102828004E082884FF6E0
:102AB000FE731A40828070470A460021018B4FF650
:102AC000F77319401143018370470A460021018BB7
:102AD0004FF2FF7319404FF6FF7303EA02231943C5
:102AE000018370470A460021818B4FF6F773194026
:102AF0001143818370470A460021818B4FF2FF7397
:102B000019404FF6FF7303EA02231943818370478C
:102B10000A460021018B4FF6FB73194011430183D4
:102B200070470A460021018B4FF6FF3319404FF6DC
:102B3000FF7303EA02231943018370470A46002109
:102B4000818B4FF6FB7319401143818370470A460E
:102B50000021818B4FF6FF3319404FF6FF7303EAD4
:102B600002231943818370470A460021018B4FF6E7
:102B70007F7319401143018370470A460021018B7E
:102B8000C1F30E014FF6FF7303EA022319430183D9
:102B900070470A460021818B4FF67F73194011431D
:102BA000818370470A460021818BC1F30E014FF6E5
:102BB000FF7303EA02231943818370470A46002109
:102BC000018C4FF6FD7319401143018470470A468A
:102BD0000021018C4FF6F7731940114301847047AF
:102BE0000A460021018C4FF6DF7319404FF6FF7340
:102BF00003EA02131943018470470A460021018C3D
:102C00004FF67F7319404FF6FF7303EA021319431F
:102C1000018470470A460021018C4FF6FF5319408A
:102C20004FF6FF7303EA02231943018470470A46F3
:102C30000021018C4FF2FF7319404FF6FF7303EA36
:102C400002231943018470470A460021018C4DF686
:102C5000FF7319404FF6FF7303EA023319430184EF
:102C6000704730B5002301248C40A3B2048C9C43F0
:102C70000484048C02FA01F5ADB22C43048430BD07
:102C800030B5002304248C40A3B2048C9C430484FC
:102C9000048C02FA01F5ADB22C43048430BD70B54A
:102CA0000346002000241846183001258D40ACB2A0
:102CB0001D8CA5431D8409B1082909D100EB6100D1
:102CC000056825F0700505600568154305600EE090
:102CD0000D1FC5F34E052844056825F4E045056041
:102CE00005684FF6FF7606EA02263543056070BD9B
:102CF00021B1028842F00202028004E002884FF60D
:102D0000FD731A400280704721B1028842F004022C
:102D1000028004E002884FF6FB731A40028070477D
:102D200021B1828842F08002828004E082884FF6DE
:102D30007F731A408280704702884FF6F7731A40FB
:102D4000028002880A430280704782884FF68F73A0
:102D50001A40828082880A438280704702894FF637
:102D6000F8731A40028102890A430281704702897E
:102D70004FF67F731A40028102890A43028170472D
:102D800081847047818570478186704701877047CD
:102D900081877047A0F84010704702884FF6FF43C4
:102DA0001A40028002880A43028070470146888EDA
:102DB00070470146088F70470146888F704701466B
:102DC000B1F8400070470146888C70470146088D75
:102DD000704702460020138A0B400BB1012000E02F
:102DE00000207047CA430282704730B50246002077
:102DF00000230024158A05EA0103958905EA0104E8
:102E000013B10CB1012000E0002030BDCA430282A2
:102E10007047000010B50446FB48844209D10121E7
:102E20008803FFF79FF800214FF48040FFF79AF8DE
:102E300032E0F648844209D101214804FFF79FF8A7
:102E400000214FF40030FFF79AF825E0F048844263
:102E500009D101218804FFF792F800214FF4802066
:102E6000FFF78DF818E0EB48844209D10121C8042E
:102E7000FFF785F800214FF40020FFF780F80BE002
:102E8000E548844208D101210805FFF778F80021C0
:102E90004FF48010FFF773F810BD2DE9F04786B0AE
:102EA00005460E460024A24600BFA1460027B08971
:102EB00000B100BF2F462C8A4CF6FF700440F0880A
:102EC00004432C82AC894EF6F3100440B08831895B
:102ED0000843718908430443AC81AC8A4FF6FF4034
:102EE0000440B0890443AC8201A8FEF7B4FFC64891
:102EF000874202D1DDF810A001E0DDF80CA0A8891E
:102F000000F4004040B10AEBCA0000EB0A1031683F
:102F10004900B0FBF1F807E00AEBCA0000EB0A1029
:102F200031688900B0FBF1F86420B8FBF0F00401CF
:102F30002009642101FB1089A88900F4004040B1F8
:102F4000322000EBC900B0FBF1F000F007000443B1
:102F500008E0322000EB09106421B0FBF1F000F032
:102F60000F0004432C8106B0BDE8F0874FF41651E2
:102F7000016000218180C18001810C2141810021FB
:102F80008181704710B502460020108A4FF2FF037E
:102F900018400B884C8823438C882343CC882343D8
:102FA0001843108210BD0021018041808180C180C2
:102FB000704721B1828942F40052828104E0828903
:102FC0004DF6FF731A4082817047F0B50346002426
:102FD00000260025002040F66A17B94200D100BF44
:102FE0001846C1F3421401F01F06012707FA06F53F
:102FF000012C01D10C3004E0022C01D1103000E092
:1030000014301AB107682F43076002E00768AF4326
:103010000760F0BD1AB1838A0B43838202E0838A82
:103020008B4383827047028A4FF6F0731A40028204
:10303000028A0A430282704782894FF2FF731A4064
:10304000828182890A438281704721B1828942F05C
:103050000202828104E082894FF6FD731A40828168
:103060007047028A4FF6DF731A400282028A0A43CF
:103070000282704721B1028A42F48042028204E057
:10308000028A4BF6FF731A4002827047C1F30802AE
:103090008280704701468888C0F3080070478189A4
:1030A00041F0010181817047028BD2B20283028B11
:1030B00042EA012202837047028B02F47F420283BC
:1030C000028B0A430283704721B1828A42F02002B8
:1030D000828204E0828A4FF6DF731A408282704750
:1030E00021B1828A42F01002828204E0828A4FF685
:1030F000EF731A408282704721B1828A42F008023F
:10310000828204E0828A4FF6F7731A408282704707
:1031100021B1828942F40042828103E08289C2F3B4
:103120000E028281704721B1828A42F4006282825B
:1031300004E0828A4FF2FF731A4082827047828ACB
:103140004FF6FB731A408282828A0A43828270475A
:1031500021B1828A42F00202828204E0828A4FF622
:10316000FD731A408282704702460020B1F5007F4D
:1031700000D100BF13880B400BB1012000E00020FC
:10318000704701F40072B2F5007F00D100BFCA435E
:103190000280704770B502460024002300250020FD
:1031A00040F66A16B14200D100BFC1F3421501F0EA
:1031B0001F03012606FA03F3012D02D1968933403D
:1031C00006E0022D02D1168A334001E0968A334090
:1031D0000C12012606FA04F41688344013B10CB11F
:1031E000012000E0002070BD10B50022002340F651
:1031F0006A14A14200D100BF0A1201249440A3B274
:10320000DC43048010BD0000003801400044004051
:1032100000480040004C0040005000400CB5002029
:10322000019000906C48006840F480306A49086062
:1032300000BF6948006800F4003000900198401C0D
:103240000190009818B90198B0F5A06FF1D16248CB
:10325000006800F4003010B10120009001E000206F
:1032600000900098012843D15C48006840F01000AD
:103270005A4908600846006820F0030008600846C4
:10328000006840F0020008605348406852494860B6
:103290000846406848600846406840F480604860DE
:1032A0000846406820F47C1048600846406840F4B6
:1032B000E81048600846006840F08070086000BF71
:1032C0004548006800F000700028F9D04248406886
:1032D00020F00300404948600846406840F0020082
:1032E000486000BF3C48406800F00C000828F9D155
:1032F0000CBD10B5FFF792FF10BD10B53648006841
:1033000040F00100344908600846406834490840EC
:103310003149486008460068324908402E49086033
:103320000846006820F4802008600846406820F4C1
:10333000FE0048604FF41F008860FFF7DAFF4FF08F
:1033400000602949086010BD10B50021002000224E
:10335000214B5B6803F00C0121B1042906D0082938
:1033600028D107E0214B224C236027E01F4B204C43
:10337000236023E0184B5B6803F47010164B5B6806
:1033800003F48032022303EB904022B9194B4343EC
:10339000174C23600DE0104B5B6803F4003323B13E
:1033A000144B4343124C236003E0104B4343104C37
:1033B000236003E00D4B0E4C236000BF00BF064BA3
:1033C0005B68C3F303130C4CE15C094B1B68CB40F7
:1033D000074C236010BD0000001002400020024096
:1033E0000000FFF8FFFFF6FE08ED00E000127A0093
:1033F0001800002000093D001C00002006488047FE
:1034000006480047FEE7FEE7FEE7FEE7FEE7FEE7C9
:10341000FEE7FEE7FEE7FEE7FB32000831010008A9
:103420004FF0E021096921F004014FF0E022116121
:10343000C21700EB5272C2F3C702234B1A7019462F
:10344000097801EB4102C2EBC1114FF6FF7202EAAB
:10345000C1011E4A1180704701461C4A12884A4326
:103460004FF0E0235A6100229A6101221A6100BFE5
:103470004FF0E022106900F001021AB100F480322E
:10348000002AF5D000224FF0E0231A619A617047BC
:1034900001460D4A12784A434FF0E0235A61002258
:1034A0009A6101221A6100BF4FF0E022106900F01A
:1034B00001021AB100F48032002AF5D000224FF048
:1034C000E0231A619A6170472C0000202E00002032
:1034D00008B54FF4C060FDF711FF25208DF80000FE
:1034E00000208DF8010007208DF8020001208DF8E2
:1034F00003006846FDF707FF08BD00B585B0012150
:103500000520FEF715FD01218803FEF711FD4FF49C
:103510000070ADF8100018208DF8130003208DF80E
:10352000120004A92C48FEF745F84FF48060ADF86E
:10353000100004208DF8130004A92748FEF73AF87C
:1035400004A92548FEF736F84FF4E130009000203A
:10355000ADF80400ADF80600ADF80800ADF80C00B9
:103560000C20ADF80A0069461C48FFF796FC0122C2
:1035700040F225511948FFF728FD01211748FFF7B0
:1035800018FD40211548FFF7FCFD05B000BD10B542
:10359000FFF79EFFFFF7B1FF10BD10B5044600BF57
:1035A00080210E48FFF7E0FD0028F9D021460B48A6
:1035B000FFF76CFD6420FFF76BFF10BD10B540F204
:1035C00025510648FFF7E6FD20B140F2255103489A
:1035D000FFF70AFE10BD000000080140003801405E
:1035E00010B56FF00400FDF7D8FE2E4800682E4994
:1035F000B0FBF1F02D4908700846007800EB40015F
:10360000C1EBC0104FF6FF7101EAC00028490880E5
:1036100010BD0146254A12784A434FF0E0235A6113
:1036200000229A611A46126942F001021A6100BF33
:103630004FF0E022106900F001021AB100F480326C
:10364000002AF5D04FF0E022126922F001024FF07B
:10365000E0231A6100229A6170470146144A1288D9
:103660004A434FF0E0235A6100229A611A461269D8
:1036700042F001021A6100BF4FF0E022106900F031
:1036800001021AB100F48032002AF5D04FF0E02296
:10369000126922F001024FF0E0231A6100229A61C0
:1036A000704700001800002000127A00340000204B
:1036B0003600002070B504460D46FE48FEF723F89C
:1036C00000F47F40E1B240EA01063146F948FEF7D6
:1036D00027F8F94805600020F849C1F8A401F64927
:1036E000091F086001200860F349091D0860F349BB
:1036F000C1F8A00170BD70B500241CE004F1B00158
:10370000C8B20021FFF7D6FF00210846FFF7D2FF1D
:1037100000211020FFF7CEFF002508E0E84901EB6B
:10372000C501085D0121FFF7C5FF681CC5B2802DEA
:10373000F4DB601CC4B2082CE0DB70BD10B50021C6
:103740008D20FFF7B7FF00211420FFF7B3FF002102
:10375000AF20FFF7AFFF10BD10B500218D20FFF7A0
:10376000A9FF00211020FFF7A5FF0021AE20FFF7E1
:10377000A1FF10BD70B500240CE0002506E000207C
:10378000CF4901EBC5010855681CC5B2802DF6DB99
:10379000601CC4B2082CF0DBFFF7ADFF70BDF0B5C4
:1037A000144600267F2801DC3F2900DDF0BD0B46D2
:1037B000CF1701EB5777FF10C7F10707FAB2CF1702
:1037C00001EB5777FF10A1EBC707FDB2C5F1070763
:1037D0000123BB40DEB24CB1B94B03EBC0039B5C91
:1037E0003343B74F07EBC007BB5408E0B44B03EBC0
:1037F000C0039B5CB343B24F07EBC007BB5400BF91
:10380000D4E72DE9F04706460F4690469946DDF885
:1038100020A034460CE03D4606E0524629462046AC
:10382000FFF7BDFF681CC5B24D45F6DD601CC4B294
:103830004445F0DDFFF75FFFBDE8F0872DE9F84F65
:1038400080460F4616461C46BA462046E31704EB50
:103850005373DB1021464FEAE47C04EB5C7C4FEAB7
:10386000EC0CA4EBCC0CBCF1000F02D04FF0010C1F
:1038700001E04FF0000C6344224604EBD27C4FEA97
:103880006C0C03FB0CF303F0FF0BA6F12000C6B297
:1038900000254EE00C2C07D106EB4600894901EBD0
:1038A0008000405D009013E0102C05D1864800EBAD
:1038B0000610405D00900BE0182C07D106EBC60007
:1038C000824901EB8000405D009001E0BDE8F88F87
:1038D0004FF0000927E0009800F0800028B1394639
:1038E00040460A9AFFF75BFF09E00A9808B90120F1
:1038F00000E00020024639464046FFF750FF00989E
:103900004006000E0090781CC7B2A7EB0A00A04248
:1039100005D1574608F1010000F0FF0806E009F163
:10392000010000F0FF09B9F1080FD4DB00BF681CEB
:10393000C5B25D45AEDB00BFC8E710B50246012049
:1039400000E050430B00A1F10104E1B2F9D110BD38
:103950002DE9FF4F81B0074691461E460E9D4FF060
:10396000000A002439E0301B401EC1B20A20FFF7D4
:10397000E4FFB9FBF0F00A21B0FBF1F201FB120801
:10398000BAF1000F16D1701EA04213DDB8F1000F7E
:103990000ED10120AB4605EBDB71491001FB047130
:1039A0000090C8B22B4620220299FFF747FF12E091
:1039B0004FF0010A0120AB4605EBDB71491001FB1A
:1039C00004710090C8B208F13001CAB22B460299C6
:1039D000FFF734FF00BF601CC4B2B442C3DB05B0C4
:1039E000BDE8F08FF8B506460F4615461C4621E0A7
:1039F00004EBD4714910C1F18001B14202DA002612
:103A00003819C7B2C4F14000B84204DA00200646B3
:103A10000746FFF7AFFE012000902A78234639467B
:103A20003046FFF70BFF204604EBD07106EB610137
:103A3000CEB26D1C28787E2802DC28782028D7DAC0
:103A4000F8BD08B501211820FEF772FA01210846D9
:103A5000FEF76EFA01211E48FDF77DFEFF20ADF84E
:103A6000000010208DF8030003208DF80200694645
:103A70001048FDF79FFD4FF6FF710E48FDF750FE11
:103A80004FF47070ADF8000010208DF80300032093
:103A90008DF8020069460F48FDF78CFD4FF47071F8
:103AA0000C48FDF734FE0021AE20FFF703FE002195
:103AB000D52011E0000C0140A0012242000022426A
:103AC00040410020E050000854550008445B0008C5
:103AD0000002300000100140FFF7ECFD00215020F3
:103AE000FFF7E8FD0021A820FFF7E4FD00213F20BB
:103AF000FFF7E0FD0021D320FFF7DCFD00210846A1
:103B0000FFF7D8FD00214020FFF7D4FD00218D20D4
:103B1000FFF7D0FD00211420FFF7CCFD002120206D
:103B2000FFF7C8FD00210220FFF7C4FD0021A120FE
:103B3000FFF7C0FD0021C020FFF7BCFD0021DA2007
:103B4000FFF7B8FD00211220FFF7B4FD002181200E
:103B5000FFF7B0FD0021EF20FFF7ACFD0021D920D9
:103B6000FFF7A8FD0021F120FFF7A4FD0021DB20D5
:103B7000FFF7A0FD00213020FFF79CFD0021A420CD
:103B8000FFF798FD0021A620FFF794FD0021AF204C
:103B9000FFF790FDFFF7EEFD08BDF0B480EA0102EB
:103BA000D40F4200B2EB410F02D202460846114642
:103BB0004A0042D0C30DDDB2C1F3C752AD1A202D69
:103BC00035DAC1F3160141F4000204B15242C5F1E5
:103BD000200602FA06F12A411044B3EBD05F23D04D
:103BE000C4B1012DA0EBC35009DCF0BC4FF0004282
:103BF00002EAC352DBB200F5000000F072BB4000E5
:103C000000F1807000EBC350A0F1807040EAD170E9
:103C1000490009E0490841EAC071A0EBC35000F532
:103C20000000400800EBC350F0BC00F051BB614203
:103C3000012202EB4101001BF6E7F0BC704781F066
:103C40000041AAE780F00040A7E780EA010210B532
:103C500002F00043400022D04A001FD0010E01EBC9
:103C60001261C0F35600C2F3560240F4000042F461
:103C70000002A0FB022000047F39140400D0401C85
:103C800050EA124001D44000491EC2B20C0604EBB7
:103C9000D010401C4008802A02D003E0002010BD54
:103CA00020F00100002900DA0020184310BD30B4D4
:103CB00080EA010202F0004530F0004221F00040AD
:103CC00013D090B1C30DD40DC2F31601C0F316008A
:103CD000E41A41F4000140F400027D34914201D322
:103CE000641C00E04900002C02DA30BC0020704760
:103CF0004FF400000023914201D3891A0343400886
:103D00004FEA4101F7D151B1914202D14FF0004148
:103D100005E002D24FF0010101E06FF0010103EB79
:103D2000C450284430BC00F0D3BA2DE9FE4F804681
:103D300081EA0300C00F0C46009021F0004123F0FF
:103D40000045B8EB0200A94105D240462146904605
:103D50001C460B46024623F00040104347D0270D77
:103D6000C7F30A00C3F30A510290401A0190402899
:103D70006BDAC3F3130040F4801B0098924620B125
:103D80000023D2EB030A63EB0B0B01985946C0F1F9
:103D90004002504600F06BFA06460D465046594622
:103DA000019A00F083FA10EB08006141002487EAD1
:103DB000115284EAE7731A4340D0009A62B3019A21
:103DC000012A4FEA075215DC001B61EB02014FF09C
:103DD000004202EA0752CDE90042001C41F5801181
:103DE00032462B4600F0E9FA03B0BDE8F08F4046BA
:103DF0002146F9E7001B61EB0201001C41F580132D
:103E000000185B412018A2F5001747EB030140EAB8
:103E1000D570B6196D4111E06D084FEA360645EAD6
:103E2000C0754FEA0752001B61EB0201001C41F50F
:103E3000801149084FEA30000019514132462B46A3
:103E400003B0BDE8F04F00F0A9BA0098012240008D
:103E50000023D0EB020263EBE073009821464FEAA7
:103E6000E074B8EB000061EB0401E9E783F0004384
:103E70005BE781F0004158E72DE9FE4F81EA03043A
:103E800004F0004421F0004100944FF0000B23F0B7
:103E9000004350EA01045ED052EA03045BD0C3F34E
:103EA0000A54C1F30A552C44A4F2F3340194A0FB44
:103EB0000254C1F3130141F48011C3F3130343F41B
:103EC000801301FB024400FB034E840A970A44EA74
:103ED000815447EA8357A4FB076802958D0A05FBC6
:103EE00007854FEA932C04FB0C542705029D4FEAEB
:103EF000065847EA1637B5EB08056EEB070C870E38
:103F0000920E47EA811742EA8312A7FB0201B6EB41
:103F10000B0164EB00042B0D43EA0C335E1844EBF9
:103F20001C50DA465146E7FB0201C5F313044FEA81
:103F30000B3343EA14534FEA0432019C43EA06036D
:103F4000A4F10C040294009CCDE900B400F035FA11
:103F500003B0BDE8F08F00200146F9E72DE9F04DF0
:103F600081EA030404F0004B21F0004514464FF0B1
:103F7000000A23F0004150EA050220D054EA010271
:103F80001DD0C5F30A570246C5F31303C1F313004E
:103F9000C1F30A5640F4801543F48013A7EB0608DA
:103FA000101BD64608F2FD3873EB050002D308F16A
:103FB000010801E092185B41B8F1000F03DA00201C
:103FC0000146BDE8F08D00204FF48011064684467E
:103FD0000EE0171B73EB050705D3121B63EB0503FC
:103FE00006434CEA010C49084FEA300092185B4145
:103FF00050EA0107EDD152EA030012D082EA040030
:1040000083EA0501084305D0101BAB4106D201220B
:10401000002306E000224FF0004302E06FF00102AF
:1040200053101AEB06004CEB085110EB0A0041EB61
:104030000B01BDE8F04D00F0B1B9C10F80EAE070AE
:104040000844CA079623002100F04BB996230022AA
:10405000114600F046B90EB5C10F80EAE070084481
:10406000CA07002140F233438DE80E000A460B4692
:1040700000F0A3F903B000BD0EB540F23341029148
:104080000021CDE900110A460B4600F096F903B075
:1040900000BD20F00040C10DC0F3160040F4000048
:1040A0007F2901DA00207047962903DCC1F19601CF
:1040B000C840704796398840704770B5C1F30A52BE
:1040C00001F000450024C1F3130140F2FF3341F435
:1040D00080119A4201DA002070BD40F233439A42C7
:1040E000A2F2334203DC524200F0D0F800E09040EC
:1040F0002C43F1D0404270BD00F0004230F000404F
:104100000AD0C10D01F56071C0F3160042EA0151F9
:10411000C208400711437047002001467047000065
:1041200030B5041E71F1000404DB4FF0004440423E
:1041300064EB0101141E73F1000405DB1C464FF013
:104140000043524263EB04038B4208BF824230BDFE
:1041500030B5041E71F1000404DB4FF0004440420E
:1041600064EB0101141E73F1000405DB1C464FF0E3
:104170000043524263EB0403994208BF904230BDB2
:1041800001F0004330B421F0004150EA010206D0B2
:104190000A0DA2F56072C1F31301002A02DC30BCE3
:1041A00000207047440F44EAC104C100E01830BC4D
:1041B00000EBC25000F08CB8002801DBC0F10040D9
:1041C000002901DBC1F1004181427047002801DB79
:1041D000C0F10040002901DBC1F100418842704775
:1041E00030B50B46014600202022012409E021FAC7
:1041F00002F59D4205D303FA02F5491B04FA02F5C4
:104200002844151EA2F10102F1DC30BD2DE9F05F5A
:104210000546002092469B46884606468146402435
:104220001BE0284641464746224600F02FF85346F9
:104230005A46C01A914110D311461846224600F042
:1042400016F82D1A67EB01084F462246012000217F
:1042500000F00DF817EB00094E41201EA4F10104F7
:10426000DFDC484631462A464346BDE8F09F202A17
:1042700004DB203A00FA02F1002070479140C2F1BD
:10428000200320FA03F3194390407047202A04DBEF
:10429000203A21FA02F00021704721FA02F3D040BF
:1042A000C2F120029140084319467047202A06DBDC
:1042B000CB17203A41FA02F043EAE07306E041FAF4
:1042C00002F3D040C2F120029140084319467047E2
:1042D0000029A8BF7047401C490008BF20F001001A
:1042E000704710B4B0FA80FC00FA0CF050EA0104F8
:1042F00004BF10BC704749B1CCF1200421FA04F48A
:1043000011FA0CF118BF012121430843A3EB0C0162
:10431000CB1D4FEA00614FEA102042BF002010BCC5
:10432000704700EBC35010440029A4BF10BC704775
:10433000401C490008BF20F0010010BC7047F0B4D9
:10434000002802DCF0BC00207047C0F3C751C0F366
:10435000160040F40000CA0701D14000491E3F2268
:1043600002EB6105002211464FF4000626FA01F324
:104370001344D418844201D8001B1A464000491C3B
:104380001729F3DD5100814202D24FF0FF3100E0E6
:10439000002102EBC550F0BCFFF79ABF10B5141E08
:1043A00073F1000408DA401C41F1000192185B41EE
:1043B0001A4301D120F0010010BD2DE9F04D9246C5
:1043C0009B4611B1B1FA81F202E0B0FA80F22032DC
:1043D0009046FFF74CFF04460F4640EA0A0041EAC8
:1043E0000B0153465A46084313D0114653EA0100C5
:1043F00019D0C8F140025046FFF748FF05460E4667
:10440000504659464246FFF732FF084305D0012087
:1044100004E020463946BDE8F08D0020054346EA19
:10442000E0762C4337430A986305E40AA0EB0800C2
:104430000022FD0A44EA47540A3002D50020014612
:10444000E9E7010510196941DDE9084500196941ED
:10445000BDE8F04DA2E7C1F30A52C1F3130140F2E7
:10446000FF3341F480119A4202DA0020014670477E
:1044700040F233439A42A2F2334202DC5242FFF747
:1044800005BFFFF7F4BE0000064C074D06E0E068EC
:1044900040F0010394E8070098471034AC42F6D38B
:1044A000FBF74AFEA0680008C06800080FB4054B7F
:1044B00010B503A9044A029800F0D0F810BC5DF8CA
:1044C00014FB0000110200083800002002E008C8B8
:1044D000121F08C1002AFAD170477047002001E07E
:1044E00001C1121F002AFBD170470000014908607A
:1044F000704700003C0000202DE9FF5FDDE902204D
:10450000010DDDF838B0024318D044F61050A1F286
:10451000FF3141430D140F98012820D0A5EB0B006B
:10452000401C5FEA000A4FF00004474EDFF81C9180
:10453000A046504616D5CAF1000728E00F9801247E
:1045400043A2012808D0002100980F9BC0E9002158
:10455000C0E90243BDE8FF9F6FEA0B01F4E7CBF12E
:104560000000DEE7074612E0F80707D02246334690
:1045700040464946FFF780FC80468946224633463E
:1045800010461946FFF778FC04460E467F10002FB0
:10459000EAD1DDE90201BAF1000F42464B4602DAE8
:1045A000FFF76AFC01E0FFF7D9FC04460E46002243
:1045B000284BFFF7CDFD03D84FF0FF30014607E051
:1045C0000022254B20463146FFF7AFFBFFF743FFA4
:1045D000102409E0002C0ADB0A220023FFF716FE54
:1045E000019B30321A55641E50EA0102F2D1641C5C
:1045F000019AC4F1110314440F9A012A03D0012235
:1046000008430DD10AE0084304D000204FF0110BFD
:104610000F9080E7A3EB0B056D1E0DE05B4504DDFD
:104620004FF0000205F1010504E003DA4FF000024B
:10463000A5F10105002AECD000980F99C0E90231DC
:10464000C0E9004586E70000000024400000F03F7C
:10465000300000000000F0430000E03F2DE9FF4F74
:1046600095B09B468946064600250FE2252877D15E
:1046700000242746F84A0121059400E0044316F877
:10468000013F203B01FA03F01042F7D130782A288D
:1046900011D06FF02F033078A0F13002092A16D81C
:1046A000059A44F0020402EB820203EB420210443A
:1046B000761C0590EFE759F8042B0592002A03DADF
:1046C000504244F40054059044F00204761C3078C3
:1046D0002E2816D116F8010F44F004042A280DD014
:1046E0006FF02F023078A0F13003092B09D807EBC7
:1046F000870302EB4303C718761CF3E759F8047BE2
:10470000761C30786C280FD006DC4C2817D068282F
:104710000DD06A2814D104E0742810D07A280FD163
:104720000DE044F400140AE044F4801401E044F481
:1047300040147278824202D104F58014761C761CF3
:10474000307866280BD013DC582877D009DC002895
:1047500075D04528F6D04628F4D047281AD19DE1D7
:1047600018E0632835D0642879D0652812D195E106
:10477000702873D008DC6728F1D069286FD06E28C4
:104780000DD06F2806D1B5E073282CD0752875D0D0
:10479000782874D05A46179990476D1C75E1C4F378
:1047A0000250022809D003280DD0D9F8001004289F
:1047B0000DD00D6009F1040967E1D9F80010EA177E
:1047C000C1E90052F6E7D9F800100D80F2E70D704C
:1047D000F0E719F8041B8DF8001000208DF8010097
:1047E000EA46012003E059F804AB4FF0FF306107BF
:1047F0004FF0000102D40DE008F101018846B942F2
:104800000FDA8045F8DB1AF808100029F4D108E027
:1048100008F1010188468142FADB1AF808100029E4
:10482000F6D105985B46A0EB080721463846179A53
:1048300000F094FA284400EB080507E04DE029E178
:104840000DE01AF8010B5A4617999047B8F1010884
:10485000F7D25B4621463846179A13E142E00A2216
:104860000092C4F302524FF0000A022A08D059F80D
:1048700004CB032A4FEAEC710AD00DE029E02AE0CC
:1048800009F1070121F00702F2E802C1914609E0AF
:104890000FFA8CFC4FEAEC71042A03D14FFA8CFC1E
:1048A0004FEAEC71002907DA0A460021DCF1000C1E
:1048B00061EB02012D2202E0220504D52B228DF8A6
:1048C0000420012203E0E20701D02022F7E790460E
:1048D00059E00A2102E010220DE010214FF0000AF9
:1048E00000910BE010224FF0000A44F00404082766
:1048F000009203E008224FF0000A0092C4F3025233
:10490000022A05D059F804CB0021032A08D009E077
:1049100009F1070121F00702F2E802C1914605E022
:104920001FFA8CFC042A01D10CF0FF0C4FF0000898
:10493000220728D5702806D0009B83F0100353EA85
:104940000A0305D00EE040228DF80420012208E081
:104950005CEA010206D030228DF804208DF80500B3
:1049600002229046009B83F0080353EA0A030AD10F
:104970005CEA010201D1620705D530228DF80420DE
:104980004FF001087F1E582804D034A003900EA8D1
:1049900002900DE036A0F9E753466046009AFFF713
:1049A00035FC84460398825C0298401E0290027097
:1049B0005CEA0100F0D1029806A9081A00F1200A69
:1049C000600702D524F4803400E00127574502DD5A
:1049D000A7EB0A0000E0002000EB0A010090059818
:1049E0004144401A0590E00306D45B462146179ADD
:1049F000059800F0B3F90544002706E001A85A46DF
:104A0000C05D179990476D1C7F1C4745F6DBE0039E
:104A10000CD55B462146179A059800F09FF905448E
:104A200004E030205A46179990476D1C0099481EA3
:104A300000900029F5DC08E0029802995A460078B7
:104A4000491C0291179990476D1CBAF10001AAF117
:104A5000010AF1DC65E10000092801003031323340
:104A600034353637383961626364656600000000AA
:104A70003031323334353637383941424344454694
:104A80000000000000F058F90544761C307800283A
:104A90007FF4ECAD19B02846BDE8F08F620700D472
:104AA000062709F1070222F0070CFCE80223E14681
:104AB00003F000485FEA080C02D00FF2702C0DE002
:104AC0005FEA045C02D50FF2682C07E05FEAC47C61
:104AD00002D00FF2602C01E0AFF2700C4FF0FF3803
:104AE00023F00043CDF850C065280CD006DC4528E3
:104AF00009D046281DD047283DD13DE0662818D072
:104B000067287ED138E00021112F01DB112000E061
:104B1000781CCDE9000106A90EA8FFF7EDFCDDE940
:104B20000F010E9A03910021009207F1010A0491EE
:104B30004DE04FF000400097CDE9011006A90EA806
:104B4000FFF7DAFCDDE90F0203920E9B11990022B8
:104B5000DDF80CA00093049211B9791C00EB010A56
:104B6000B7EB0A0004D4C0F1FF3007F1010A04904A
:104B7000AAEB0700019044E0012F00DA0127002191
:104B8000112F01DD112000E03846CDE9000106A912
:104B90000EA8FFF7B1FCDDE90F010E9A0391002189
:104BA00004910092BA4621070CD40399514500DACA
:104BB0008A46BAF1010F05DD009AAAF10101515CA4
:104BC000302908D0B84202DA10F1040F06DA0121C8
:104BD000CDE9011015E0AAF10101E9E7002805DCA3
:104BE000049901440491AAEB000102E0411C5145E3
:104BF00000DD8A460499401A401C01904FF00040A5
:104C00000290200704D40198504501DBCDF80480C0
:104C100000208DF84F0002980DF14F07B0F1004FC2
:104C200025D02B200E9002984FF0020800280CDAB5
:104C3000404202902D200E9007E00A210298FFF7D3
:104C4000CFFA3031029007F8011DB8F10001A8F148
:104C50000108F2DC02980028EFD1791E0E98087046
:104C6000307800F0200040F0450007F8020D12A84F
:104C7000C01B00F107081498007800B1012000EB78
:104C80000A01019801EBE07105984144401A401E69
:104C90000590E00306D45B462146179A059800F07C
:104CA0005DF805441498007818B15A461799904752
:104CB0006D1CE00324D55B462146179A059800F049
:104CC0004DF805441CE00498002807DBDDE90301EA
:104CD000884203DD0098405C179901E01799302065
:104CE0005A469047049805F10105401C049001982C
:104CF000401E019004D12E205A46179990476D1CF2
:104D0000BAF10001AAF1010ADDDC05E017F8010B98
:104D10005A46179990476D1CB8F10001A8F1010897
:104D2000F4DC5B462146179A0598ABE62D0000009F
:104D30002B000000200000002DE9F0410446002572
:104D40001E461746880404D405E039462020B047A3
:104D50006D1C641EF9D52846BDE8F0812DE9F041AF
:104D6000044600251E469046C80301D5302700E0C2
:104D70002027880404D505E041463846B0476D1C1D
:104D8000641EF9D52846BDE8F08170B50546FFF7E9
:104D9000D6FA044620F00040C0F1FF40C00F08D012
:104DA00025F00040C0F1FF40C00F04BF0120FFF715
:104DB0009DFB204670BD00000000000000000000C8
:104DC0006F0EA6389415903F6058F72D1215A03F2E
:104DD000AB047532561EA83F7993E01B0A13B03F0F
:104DE000498E3932E515B43FF017FC7F7B17B83F89
:104DF000DA97623D8C17BC3FE05BA15DEB0AC03FD8
:104E0000E9AA91330D09C23F7553A8670B06C43F49
:104E10006C2377D3C501C63F797A03651CFCC73F75
:104E2000A3DDCC20EFF4C93F6A1FD2231EECCB3F99
:104E3000CCFB94A589E1CD3F96071CFA11D5CF3F55
:104E40004769F9C94BE3D03F0E0E1483FDDAD13F19
:104E50001FFD24838ED1D23F4FE92F37EFC6D33FBA
:104E6000FB02711F10BBD43FDD9657D0E1ADD53F9B
:104E70004B667FF3549FD63F19A9A8485A8FD73F56
:104E800063A9AEA6E27DD83FC2E97CFCDE6AD93FC9
:104E900063C602524056DA3F9D8125C9F73FDB3F8A
:104EA000C3ACB09EF627DC3F01DE442B2E0EDD3F67
:104EB0001FA444E48FF2DD3F52A9BF5C0DD5DE3F55
:104EC00024F65B4698B5DF3FE4A21E39114AE03F65
:104ED0009C2EF5E84EB8E03F512B183C7E25E13F73
:104EE0005CE9014D9891E13FEA00B04796FCE13F53
:104EF00057BB116A7166E23F5E5A750423CFE23FE9
:104F00004136F479A436E33F0BACDD40EF9CE33F40
:104F10002AD520E3FC01E43FBC01B5FEC665E43FB1
:104F2000EFEE004647C8E43FECB240807729E53F0A
:104F3000F057EA895189E53F14201155CFE7E53F45
:104F4000A66BC7E9EA44E63FCD3B7F669EA0E63FFD
:104F5000664B6900E4FAE63F16B8D203B653E73F62
:104F6000A53581D40EABE73FDCC50DEEE800E83F88
:104F700014EF3DE43E55E83FEA6B5B630BA8E83F66
:104F8000844E8A3049F9E83FF2911D2AF348E93FFF
:104F90005714EA470497E93FA8F4979B77E3E93F62
:104FA000C94EF250482EEA3F095135AE7177EA3FBB
:104FB00017A65A14EFBEEA3F862E64FFBB04EB3FF0
:104FC0004005A506D448EB3F3CCA08DD328BEB3FD9
:104FD000F72E5951D4CBEB3F5AC0814EB40AEC3F67
:104FE000A7E9D1DBCE47EC3F6C2C3D1D2083EC3F85
:104FF00045899953A4BCEC3F8C15DCDC57F4EC3F9D
:1050000031BA5334372AED3FED17E2F23E5EED3F01
:10501000468D32CF6B90ED3FE55AEF9DBAC0ED3F24
:10502000E3E2F45128EFED3FD8FF82FCB11BEE3FE5
:105030007E706CCD5446EE3FFF5444130E6FEE3F2E
:10504000F5BA893BDB95EE3F7235D1D2B9BAEE3F66
:10505000667EEC84A7DDEE3FE01E101DA2FEEE3F53
:10506000CF1BF785A71DEF3FF8A404CAB53AEF3F61
:1050700014C46313CB55EF3FFF0925ACE56EEF3F3A
:1050800021385AFE0386EF3F5CE42F94249BEF3FC8
:10509000D015051846AEEF3F03D9805467BFEF3FE8
:1050A00003CAA53487CEEF3F5C93E3C3A4DBEF3F95
:1050B000AF60262EBFE6EF3FFE43E4BFD5EFEF3FE4
:1050C000D38C28E6E7F6EF3F86109D2EF5FBEF3FE9
:1050D00012639147FDFEEF3F000000000000F03F2B
:1050E00000000000000000000000000000000000C0
:1050F0003F40000000000000000030004000300091
:105100004000000009000BC03D000BC03D0009003D
:1051100018C024407FE0224031800000180024C0E5
:105120001B000D803240018003801C4027401C8002
:105130000740004010006000000000000000000078
:105140000000000000001F802040402000004020A0
:1051500020401F8000000000090006001F8006009C
:1051600009000000040004003F8004000400000067
:1051700000100060000000000000000004000400B7
:1051800004000400040000000000004000000000D3
:1051900000000000002001C00600380040000000B0
:1051A0001F802040204020401F8000000000104051
:1051B0003FC000400000000018C0214022402440B1
:1051C0001840000010802040244024401B80000034
:1051D00002000D0011003FC0014000003C8024404F
:1051E00024402440238000001F8024402440344079
:1051F000038000003000200027C03800200000009D
:105200001B802440244024401B8000001C0022C03E
:10521000224022401F8000000000000008400000E3
:10522000000000000000000004600000000000001A
:10523000000004000A00110020804040090009001D
:105240000900090009000000000040402080110012
:105250000A00040018002000234024001800000069
:105260001F802040274029401F400000004007C009
:1052700039000F0001C0004020403FC024402440BE
:105280001B8000001F802040204020403080000014
:1052900020403FC0204020401F80000020403FC0F1
:1052A00024402E4030C0000020403FC024402E004B
:1052B000300000000F0010802040224033800200A8
:1052C00020403FC0040004003FC020402040204058
:1052D0003FC02040204000000060202020203FC030
:1052E0002000200020403FC024400B0030C0204060
:1052F00020403FC020400040004000C03FC03C0074
:1053000003C03C003FC0000020403FC00C402300D1
:105310003FC020001F802040204020401F80000010
:1053200020403FC024402400180000001F8021407E
:10533000214020E01FA0000020403FC02440260064
:1053400019C0004018C02440244022403180000091
:10535000300020403FC020403000000020003F804F
:10536000004000403F80200020003E0001C00700B8
:1053700038002000380007C03C0007C0380000009B
:10538000204039C0060039C02040000020003840CD
:1053900007C0384020000000304021C0264038407F
:1053A00020C00000000000007FE0402040200000FE
:1053B000000070000C00038000400000000040204E
:1053C00040207FE00000000000002000400020009E
:1053D000000000000010001000100010001000106D
:1053E00000000000400000000000000000000280FB
:1053F0000540054003C0004020003FC00440044079
:1054000003800000000003800440044006400000C8
:1054100000000380044024403FC00040000003809F
:105420000540054003400000000004401FC0244028
:1054300024402000000002E00550055006500420E2
:1054400020403FC00440040003C00040000004406E
:1054500027C000400000000000100010041027E0EA
:105460000000000020403FC00140070004C004408D
:10547000204020403FC000400040000007C0040022
:1054800007C0040003C00000044007C0044004003B
:1054900003C000400000038004400440038000007B
:1054A000041007F004500440038000000000038053
:1054B0000440045007F00010044007C002400400FC
:1054C00004000000000006400540054004C0000044
:1054D000000004001F80044000400000040007801A
:1054E0000040044007C000400400070004C00180E1
:1054F00006000400060001C0070001C0060000000D
:10550000044006C0010006C004400000041007105B
:1055100004E00180060004000000044005C00640CD
:10552000044000000000000004007BE04020000078
:10553000000000000000FFF000000000000040201C
:105540007BE00400000000004000800040002000DC
:1055500020004000000000000000000000000000EB
:10556000000000000000000000001FCC000C000044
:10557000000000000000080030006000080030005B
:1055800060000000022003FC1E20022003FC1E20FD
:105590000220000000000E1811043FFF10840C7858
:1055A000000000000F0010840F3800C00778188436
:1055B0000078000000780F8410C411240E9800E4D5
:1055C000008400080800680070000000000000006F
:1055D0000000000000000000000007E01818200490
:1055E00040020000000040022004181807E00000FC
:1055F000000000000240024001800FF001800240E4
:10560000024000000080008000800FF800800080D1
:10561000008000000001000D000E000000000000EE
:1056200000000000000000800080008000800080FA
:10563000008000800000000C000C00000000000052
:105640000000000000000006001800600180060055
:1056500018002000000007F00808100410040808D3
:1056600007F000000000080408041FFC0004000408
:105670000000000000000E0C1014102410441184CF
:105680000E0C000000000C18100411041104128804
:105690000C700000000000E00320042408241FFC1C
:1056A0000024000000001F981084110411041088C9
:1056B00010700000000007F0088811041104188819
:1056C0000070000000001C00100010FC13001C0003
:1056D0001000000000000E381144108410841144A2
:1056E0000E38000000000700088C104410440888A1
:1056F00007F00000000000000000030C030C000095
:105700000000000000000000000101060000000091
:105710000000000000000080014002200410080882
:105720001004000002200220022002200220022099
:1057300002200000000010040808041002200140AC
:105740000080000000000E001200100C106C108091
:105750000F00000003E00C1813E4142417C40828F9
:1057600007D000000004003C03C41C40074000E4D4
:10577000001C000410041FFC1104110411040E8805
:105780000070000003E00C1810041004100410084E
:105790001C10000010041FFC100410041004080862
:1057A00007F0000010041FFC1104110417C41004BA
:1057B0000818000010041FFC1104110017C010008D
:1057C0000800000003E00C181004100410441C78BA
:1057D0000040000010041FFC108400800080108432
:1057E0001FFC10040000100410041FFC100410041F
:1057F0000000000000030001100110011FFE100056
:105800001000000010041FFC110403801464181C15
:105810001004000010041FFC100400040004000425
:10582000000C000010041FFC1F0000FC1F001FFCE8
:105830001004000010041FFC0C04030000E010180A
:105840001FFC100007F008081004100410040808DA
:1058500007F0000010041FFC1084108010801080DE
:105860000F00000007F0081810241024101C080A6C
:1058700007F2000010041FFC1104110011C01130C8
:105880000E0C000400000E1C11041084108410443F
:105890001C3800001800100010041FFC1004100039
:1058A0001800000010001FF8100400040004100489
:1058B0001FF8100010001E0011E0001C0070138083
:1058C0001C0010001FC0103C00E01F0000E0103C56
:1058D0001FC000001004180C163401C001C016349B
:1058E000180C100410001C00130400FC13041C000E
:1058F000100000000804101C1064108413041C0421
:10590000101800000000000000007FFE400240026E
:1059100040020000000030000C0003800060001C0A
:105920000003000000004002400240027FFE000031
:105930000000000000000000200040004000400087
:105940002000000000010001000100010001000131
:1059500000010001000040004000200000000000A5
:1059600000000000000000980124014401440144AB
:1059700000FC000410001FFC0088010401040088E2
:1059800000700000000000700088010401040104A0
:105990000088000000000070008801040104110864
:1059A0001FFC0004000000F80144014401440144CC
:1059B00000C800000000010401040FFC11041104E0
:1059C00011001800000000D601290129012901C990
:1059D0000106000010041FFC008401000100010406
:1059E00000FC000400000104190419FC0004000478
:1059F000000000000000000300010101190119FE70
:105A00000000000010041FFC0024004001B4010C41
:105A1000010400000000100410041FFC0004000436
:105A200000000000010401FC0104010001FC01046C
:105A3000010000FC010401FC0084010001000104DC
:105A400000FC0004000000F801040104010401044A
:105A500000F80000010101FF008501040104008835
:105A600000700000000000700088010401040105BE
:105A700001FF00010104010401FC00840104010094
:105A800001800000000000CC012401240124012435
:105A90000198000000000100010007F80104010462
:105AA00000000000010001F80004000400040108E7
:105AB00001FC0004010001800170000C0010016075
:105AC0000180010001F0010C003001C00030010C28
:105AD00001F0010000000104018C00740170018CD0
:105AE00001040000010101810171000E0018016034
:105AF0000180010000000184010C01340144018493
:105B0000010C0000000000000000000001003EFC4D
:105B1000400240020000000000000000FFFF000003
:105B2000000000000000400240023EFC01000000B6
:105B30000000000000006000800080004000400085
:105B40002000200000000000000000000000000015
:105B50000000000000000000000000000000000045
:105B60000000000000000000000000000000000035
:105B7000000000000000000F80380FFE380F803852
:105B80000000000000000000000000000000000015
:105B900000000100000600000C0000380000310089
:105BA000000600000C00003800003000000000007B
:105BB0000000000061800067F807F9800061800044
:105BC00061800061800061800067F807F9800061F2
:105BD0008000000000000000000001C0E003E0F0D1
:105BE0000630080418081FFFFE040E080787F0039C
:105BF00081E000000000000001F000060C00040439
:105C000008060C7001F9C0000E00003BE000EC1823
:105C1000070808040C180003E00000000001E00081
:105C200007F003F818041C0804170807E1D003C0A4
:105C3000E00023B0003C0800200800001000000035
:105C40000000000100003100003200001C000000D4
:105C50000000000000000000000000000000000044
:105C60000000000000000000000000000000000034
:105C7000000000007F0001FFC00780F00C0018103A
:105C800000042000020000000000002000021000BC
:105C9000040C00180780F001FFC0007F0000000026
:105CA00000000000000000000000000000000000F4
:105CB0004200006600006600003C0000180003FF80
:105CC000C0001800003C00006600006600004200B2
:105CD00000000000080000080000080000080000A4
:105CE000080001FFC00008000008000008000008CC
:105CF0000000080000000000000100003100003238
:105D000000001C0000000000000000000000000077
:105D10000000000000000000000000000800000873
:105D2000000008000008000008000008000008004B
:105D3000000800000800000800000000000000004B
:105D400000000000380000380000380000000000AB
:105D50000000000000000000000000000000000043
:105D600000000000000600001C0000700001800020
:105D70000E0000380000C0000700001C00003000CA
:105D800000000000000000007F8001FFE003807041
:105D900006001804000804000806001803807001BB
:105DA000FFE0007F80000000000000000000010014
:105DB0000801000801000803FFF807FFF8000008C9
:105DC00000000800000800000000000000000001C2
:105DD000C03802C0580400980401180402180404D2
:105DE00018061C1803F81801E0F800000000000075
:105DF00000000001C0E003C0F0040008040808042B
:105E0000080806180803F41801E7F00001E0000094
:105E100000000000000000000300000D0000110061
:105E200000610000810803010807FFF80FFFF80078
:105E300001080001080000000000000000E007FC6D
:105E4000D0060808061008061008061008061838BC
:105E5000060FF00607C00000000000000000000070
:105E60003F8001FFE003843002081804100804108A
:105E700008041008071810030FF00007C000000006
:105E800000000000000003C000070000060000063C
:105E900000F80607F806180006E0000700000600F4
:105EA0000000000000000001E1E003F7F0063410FC
:105EB000041808041808040C08040C080616180333
:105EC000F3F001C1E000000000000000F80003FC56
:105ED000300306380402080402080402080404100F
:105EE0000308F001FFC0007F000000000000000078
:105EF000000000000000000000000000703800708A
:105F000038007038000000000000000000000000B1
:105F10000000000000000000000000000000000081
:105F2000301A00301C0000000000000000000000DB
:105F30000000000000000000000000080000140045
:105F40000022000041000080800100400200200487
:105F500000100800080000000000000021000021DF
:105F6000000021000021000021000021000021008C
:105F700000210000210000210000000000000000BE
:105F8000000008000804001002002001004000800A
:105F90008000410000220000140000080000000002
:105FA00000000003C00004C000040000080038081E
:105FB0000F380808380810000C300007E00003C054
:105FC00000000000000000003F8000FFE003807040
:105FD000020F1006708804C088048308047F8802BA
:105FE000C09003012000FE400000080000180001DE
:105FF000F8003E0801C20007020007E20000FE00B0
:10600000001FC80001F8000038000008040008075D
:10601000FFF807FFF8040808040808040808040843
:106020000806180803F41801E7F00001E00000007A
:10603000000000003F8001FFE003807002001804B0
:10604000000804000804000804001006002007806F
:10605000C000000004000807FFF807FFF80400086C
:1060600004000804000804001802001003807001F6
:10607000FFE0007F8000000004000807FFF807FF32
:10608000F8040808040808040808040808043E087E
:106090000400080600180100600000000400080762
:1060A000FFF807FFF80408080408000408000408C3
:1060B00000043E0006000006000001800000000011
:1060C000000000003F8001FFE0038070060018041C
:1060D00000080402080402080203F00783F000022B
:1060E0000000020004000807FFF807FFF804080892
:1060F0000008000008000008000008000408080765
:10610000FFF807FFF804000800000000000004008A
:106110000804000804000807FFF807FFF804000857
:106120000400080400080000000000000000000057
:106130000006000007000001040001040001040043
:106140000307FFFE07FFFC0400000400000400003A
:1061500004000807FFF807FFF8040C080018000007
:106160003E0004C7800503C80600F8040038040098
:106170001800000804000807FFF807FFF8040008EB
:1061800000000800000800000800000800000800E7
:10619000001800006000000004000807FFF80780F6
:1061A0000807FC00007FC00003F80007C00078006B
:1061B00007800807FFF807FFF80400080400080735
:1061C000FFF807000803C00000E000003800001ED0
:1061D000000007000001C00400F007FFF804000001
:1061E000000000007F8001FFE003807006001804BB
:1061F000000804000806001803003001FFE0007FDB
:106200008000000004000807FFF807FFF8040408F6
:10621000040400040400040400040400060C000349
:10622000F80001F000000000000000007F8001FF86
:10623000E00380700600880400880400C806003C63
:1062400003003E01FFE6007F840000000400080711
:10625000FFF807FFF8040808040800040C00040F06
:1062600000040BC00610F003F03801E0080000083D
:1062700000000001E0F803F03006301004180804B4
:106280001808040C08040C080206180207F007811D
:10629000E00000000180000600000400000400008F
:1062A00004000807FFF807FFF804000804000004D2
:1062B000000006000001800004000007FFE007FF67
:1062C000F0040018000008000008000008000008A2
:1062D00000000804001007FFE004000004000006AE
:1062E000000007E00007FE00041FE00001F80000C6
:1062F000380001E0043E0007C00006000004000072
:1063000004000007E00007FFC0041FF80007C007F3
:10631000F80007FF80043FF80007C004F8000700FA
:106320000004000000000004000806001807C07800
:1063300005F1C8003E00001F800463E80780F806EE
:106340000018040008000000040000060000078098
:106350000007E008047C08001FF80007F800180890
:1063600004E008070000060000040000000000012F
:1063700000080600380400F80403E8040F08047C51
:106380000805F00807C008070018040060000000B6
:106390000000000000000000000000000000003FBE
:1063A000FFFE200002200002200002200002200048
:1063B00002000000000000000000080000070000CC
:1063C00000C0000038000006000001C000003000DE
:1063D000000E00000100000000000000000020008E
:1063E000022000022000022000022000023FFFFEE7
:1063F000000000000000000000000000000000009D
:106400000000000000080000100000300000200024
:106410000030000010000008000000000000000034
:106420000000010000010000010000010000010067
:106430000001000001000001000001000001000057
:10644000010000010000000000000000002000002A
:1064500020000010000010000000000000000000FC
:1064600000000000000000000000000000F0001923
:10647000F8001B1800220800260800240800241039
:10648000003FF8001FF8000008000018000000049A
:10649000000007FFF80FFFF0001818001008002098
:1064A00008002008003018001FF0000FC000000096
:1064B0000000000007C0001FF00018300020080096
:1064C0002008002008003C08001C100000600000AC
:1064D000000000000000000007C0001FF000381896
:1064E00000200800200800200804101007FFF80F03
:1064F000FFF0000010000000000000000000000796
:10650000C0001FF0001230002218002208002208EC
:10651000003208001E10000E2000000000000000E5
:10652000200000200800200801FFF803FFF80620E3
:1065300008042008042008072000030000000000D1
:1065400000000000000E000E6E001FF30031B100CD
:1065500020B10020B1003191001F13002E1E002039
:106560000E00300000000004000807FFF80FFFF8DD
:10657000001008002000002000002008003FF80064
:106580001FF80000080000000000000000000020CC
:1065900008002008002008063FF8063FF800000821
:1065A00000000800000800000000000000000000DB
:1065B0000000000003000003002001002001002073
:1065C00003063FFE063FFC00000000000000000044
:1065D00000000004000807FFF80FFFF80001880022
:1065E0000300002FC00038F8002038002008000009
:1065F000080000000000000000000400080400087B
:1066000004000807FFF80FFFF8000008000008006A
:106610000008000000000000002008003FF8003FD4
:10662000F8001008002000003FF8003FF8001008B4
:10663000002000003FF8003FF800000800000000C4
:106640002008003FF8003FF800100800100000206C
:1066500000002008003FF8001FF8000008000000BC
:106660000000000007C0000FF000183000300800E4
:106670002008002008003008001830000FF0000744
:10668000C0000000000000002001003FFF003FFFAD
:1066900000101100200900200800200800303800F8
:1066A0001FF0000FC00000000000000007C0001F26
:1066B000F000381800200800200800200900101100
:1066C000001FFF003FFF0000010000000020080045
:1066D0002008002008003FF8003FF80008080010DC
:1066E00008002008002000003000003000000000FA
:1066F000000000000000000C78001E1800330800A5
:1067000023080021080021880021980030F000387B
:1067100060000000000000002000002000002000B9
:1067200000FFF003FFF80020080020080020080008
:106730000030000000000000000000002000003FCA
:10674000F0007FF80000180000080000080020108A
:10675000003FF8007FF00000100000000000000083
:106760002000003000003C00003F800023F00000CB
:1067700078000070002380003C0000300000200002
:10678000002000003C00003FE00023F80000E00093
:106790002700003E00003FE00021F80001E0003E3D
:1067A0000000200000000000200800200800383809
:1067B000003E680027800003C8002CF8003838002D
:1067C0002018002008000000000000002000003019
:1067D00003003C01003F830023EC00007000238095
:1067E000003C00002000002000000000000000002D
:1067F00000000038080020380020F80023E8002FAF
:1068000088003E08003808002018000070000000D2
:106810000000000000000000000000000000000078
:1068200008000014001FF7FC3000062000020000E2
:106830000000000000000000000000000000000058
:10684000000000000000FFFFFF000000000000004B
:106850000000000000000000000000000000200018
:10686000023000061FF7FC001400000800000000C2
:106870000000000000000000000000000000001800
:1068800000006000004000004000002000001000F8
:10689000000800000400000400000C0000100000CC
:1068A000C06800080000002040000000CC44000840
:1068B000006900084000002000490000DC44000896
:1068C00000000000000000000102030401020304B4
:1068D000060708090204060800A24A040000000096
:1068E0000000000001020304060708090000000080
:1068F0000000000000000000000000000000000098
:0400000508000131BD
:00000001FF
